:020000040800F2
:1000000000000320F1050008D5190008D9190008DF
:10001000DD190008E1190008E519000800000000DA
:10002000000000000000000000000000E9190008C6
:10003000ED19000800000000F1190008F51900088A
:100040004106000841060008410600084106000874
:100050004106000841060008410600084106000864
:100060004106000841060008410600084106000854
:100070004106000841060008410600084106000844
:100080004106000841060008410600084106000834
:100090004106000841060008410600084106000824
:1000A000FD190008410600080D1A00084106000865
:1000B0004106000841060008410600084106000804
:1000C00041060008410600084106000841060008F4
:1000D000410600081D1A00084106000841060008F4
:1000E00041060008410600084106000841060008D4
:1000F00041060008410600084106000841060008C4
:1001000041060008410600084106000841060008B3
:1001100041060008410600084106000841060008A3
:100120004106000841060008410600084106000893
:100130004106000841060008410600084106000883
:100140004106000841060008410600084106000873
:100150004106000841060008410600082D1A000863
:100160004106000841060008410600084106000853
:100170004106000841060008410600080000000092
:100180004106000841060008410600084106000833
:100190004106000841060008410600084106000823
:0C01A00041060008410600084106000866
:1001B00010B5054C237833B9044B13B10448AFF3A1
:1001C00000800123237010BDF80000200000000013
:1001D000805C0008084B10B51BB108490848AFF314
:1001E00000800848036803B910BD074B002BFBD003
:1001F000BDE81040184700BF00000000FC000020D0
:10020000805C0008F80000200000000053B94AB9E3
:10021000002908BF00281CBF4FF0FF314FF0FF300E
:1002200000F07EB9ADF1080C6DE904CE00F006F8DF
:10023000DDF804E0DDE9022304B070472DE9F04762
:100240008C460E460446089D002B50D18A42174624
:100250006CD9B2FA82FEBEF1000F0BD0CEF12004B1
:1002600020FA04F401FA0EF644EA060C02FA0EF73C
:1002700000FA0EF44FEA1749220CBCFBF9F01FFA02
:1002800087F809FB10C642EA064600FB08F3B342B2
:1002900009D9F61900F1FF3280F02281B34240F211
:1002A0001F8102383E44F61AA2B2B6FBF9F309FBED
:1002B000136642EA064403FB08F8A04509D9E4198D
:1002C00003F1FF3280F00A81A04540F20781023B32
:1002D0003C44C8EB040443EA00400021002D62D0F6
:1002E00024FA0EF400232C606B60BDE8F0878B428B
:1002F00007D9002D55D0002185E841000846BDE80A
:10030000F087B3FA83F1002940F09080B34202D322
:10031000824200F2F880841A66EB03060120B4469C
:10032000002D40D085E81010BDE8F08712B90127F4
:10033000B7FBF2F7B7FA87FEBEF1000F35D1F31B1A
:100340004FEA17481FFA87FC0121B3FBF8F0220C93
:1003500008FB103642EA06460CFB00F3B34207D90D
:10036000F61900F1FF3202D2B34200F2CE801046FD
:10037000F61AA2B2B6FBF8F308FB136642EA06448B
:100380000CFB03FCA44507D9E41903F1FF3202D2A8
:10039000A44500F2B5801346CCEB040443EA0040C8
:1003A0009CE729462846BDE8F087CEF1200106FAF1
:1003B0000EF307FA0EF720FA01F94FEA1748CE407C
:1003C00049EA0309B6FBF8FA4FEA194408FB1A6632
:1003D0001FFA87FC44EA06430AFB0CF29A4200FA31
:1003E0000EF40AD9DB190AF1FF3180F087809A42B6
:1003F00040F28480AAF1020A3B449B1A1FFA89F951
:10040000B3FBF8F108FB113349EA034301FB0CF697
:100410009E4207D9DB1901F1FF326BD29E4269D9A6
:1004200002393B449B1B41EA0A418EE7C1F1200E91
:1004300022FA0EF48B40234320FA0EF706FA01F459
:100440004FEA134C26FA0EF63C43B6FBFCF9270C98
:100450000CFB19661FFA83F847EA064609FB08F702
:10046000B74202FA01F200FA01FA08D9F61809F1C6
:10047000FF3041D2B7423FD9A9F102091E44F61B11
:10048000A0B2B6FBFCF40CFB146640EA064704FB82
:1004900008F8B84507D9FF1804F1FF3028D2B8454D
:1004A00026D9023C1F4444EA0940C8EB0707A0FBD9
:1004B00002894F4544464E4614D329D065B3BAEB62
:1004C000040367EB060707FA0EFECB40CF404EEA67
:1004D000030385E888000021BDE8F0871346F8E6AD
:1004E0001046E0E6B8EB020469EB03060138E5E7E5
:1004F0000446D8E7114695E78146C0E78A467CE77F
:10050000023B3C4448E708460AE702383E442FE7EE
:10051000C245E7D33E46D1E72946BDE8F08700BF94
:10052000704700BF10F8012B11F8013B012A28BFCA
:100530009A42F7D0D01A7047034613F8012B002ACD
:10054000FBD1181A013870470000000000000000BD
:1005500001F0FF01102A2BDB10F0070F08D010F874
:10056000013B013A8B422DD010F0070F42B3F6D178
:10057000F0B441EA012141EA014122F007047FF091
:1005800000070023F0E80256083C85EA010586EAE8
:10059000010685FA47F5A3FA87F586FA47F6A5FA24
:1005A00087F68EB9EED1F0BC01F0FF0102F0070230
:1005B00032B110F8013B013A83EA010313B1F8D1DB
:1005C0000020704701387047002D06BF35460338BC
:1005D000073815F0010F07D1013015F4807F02BFF5
:1005E000013015F4C03F0130F0BC0138704700BF46
:1005F000DFF834D0002103E00C4B5B58435004314A
:100600000B480C4B42189A42F6D30B4A02E00023E7
:1006100042F8043B094B9A42F9D301F00FFA04F077
:10062000D1FE00F093FE704700000320F89F000801
:1006300000000020F8000020F8000020F40700204F
:10064000FEE7000008B50B4B1B6813B90A4A094BBB
:100650001A60084B1A68131869468B4206D904F0D1
:10066000ABFE0C2303604FF0FF3008BD01490B6067
:10067000104608BD14010020F807002070B594B0A2
:1006800005460E4600F0C8F94E494F4800F0EAFA18
:100690004E494F4800F0E6FA002408E04B494D4827
:1006A00000F0E0FA4FF47A7001F026FA0134042CDD
:1006B000F4DD4649484800F0D5FA4249474800F081
:1006C000D1FA4049464800F02BFB0028F9D03F49B9
:1006D000444800F0C7FA3B49434800F0C3FA39499F
:1006E000424800F01DFB0028F9D0384C2146404814
:1006F00000F0B8FA21463F4800F0B4FA33462A46E3
:100700003D49684604F08CFE2E49684600F0AAFA7E
:100710002C493A4800F004FB0028F9D02A46384911
:10072000684604F07DFE2949684600F09BFA254999
:10073000344800F097FA2349334800F0F1FA0028D2
:10074000F9D0204A3149324800F098FA0028F8D010
:100750001C49304800F0E4FA0028F9D02B4C204620
:10076000FFF7EAFE01380023235422462A4968464F
:1007700004F056FE1549684600F074FA11492748FE
:1007800000F070FA0F49264800F0CAFA0028F9D0A4
:100790000E49244800F066FA0A49234800F062FA3C
:1007A00008491C4800F0BCFA0028F9D0074C214643
:1007B0001E4800F057FA21461D4800F053FA14B0C5
:1007C00070BD00BFCC050020949900088C06002065
:1007D000A0990008AC990008409A0008B099000858
:1007E000B8990008C4990008D0990008E099000859
:1007F000F8990008089A00082C9A0008449A000802
:10080000589A00086C9A0008789A0008540400204E
:10081000849A0008F0990008889A0008989A0008BD
:10082000A89A0008C09A0008D09A0008E49A000824
:10083000F89A000830B595B004460D46FFF77CFEE7
:1008400003462A461449684604F0EAFD13496846FF
:1008500000F008FA1149124800F062FA0028F9D0B5
:100860000E49204600F0FEF90C490E4800F058FAF7
:100870000028F9D00C4B0FCB8DE80F0007496846D4
:1008800000F0F0F90549094800F04AFA0028F9D0CB
:10089000012015B030BD00BF189B0008CC0500201A
:1008A0002C9B0008309B0008389B0008F09900083A
:1008B00030B5ADF2044D04460D464FF48062002180
:1008C000684604F0A5FD21492046FFF72BFE88B9B4
:1008D0001F4C2168684604F0A3FD6168684604F077
:1008E000C3FDA168684604F0BFFD29466846FFF7CE
:1008F000A1FF27E017492046FFF714FE88B9144CE2
:100900002168684604F08CFDE168684604F0ACFD9F
:10091000A168684604F0A8FD29466846FFF78AFFEB
:1009200010E00B4C2168684604F07AFDE1686846E7
:1009300004F09AFDA168684604F096FD29466846D1
:10094000FFF778FF0DF2044D30BD00BF489B000853
:1009500000000020509B000800B593B04022002109
:1009600002A804F055FD244B0DF107020121234894
:1009700000F030FA0028F6D09DF80730303B8DF8B3
:1009800007301D4A02A91E4800F078F90028F8D067
:1009900002A91C4800F07EF8012809D1A0F101103D
:1009A00004F018F89DF807101648FFF781FF1FE0C4
:1009B00002A9154800F06EF8012809D14FF0FF2078
:1009C00004F008F89DF807100F48FFF771FF0FE0DB
:1009D00002A90E4800F05EF8012809D0002220216B
:1009E0000B4801F03BFD9DF807100A48FFF760FF38
:1009F00013B05DF804FB00BFCC050020589B000835
:100A0000609B0008489B0008509B00086C9B0008F6
:100A1000000002407C9B0008114B124A136003F156
:100A20004801114A116003F19001104A1160D83356
:100A30000F4A13600F4B1A68536943F00103536167
:100A40000D4B1B68596941F001015961D16841F0B2
:100A50002001D160DA6842F02002DA60704700BFFE
:100A60001C0100206C04002070040020740400208D
:100A700068040020CC0500208C0600200B6C01339C
:100A800003F03F034A6C9A4202D00A6C88540B640C
:100A9000704700BF70B505460C46FFF74DFD064692
:100AA0002046FFF749FD002300E001332978E25C8E
:100AB0009142FAD109D102E00132013300E0002273
:100AC000A85CE15C8842F7D002E08342EEDB03E001
:100AD000B24204D1012070BD4FF0FF3070BD4FF025
:100AE000FF3070BD104B984208D1104B1B68196C39
:100AF0005A6C91420ED05A6C985C70470C4B9842DD
:100B00000BD10C4B1B68196C5A6C914208D05A6C73
:100B1000985C70474FF0FF3070474FF0FF307047E0
:100B20004FF0FF30704700BFCC0500206C04002060
:100B30008C06002074040020154B98420DD1154BF3
:100B40001B68196C5A6C914218D05A6C985C5A6C9C
:100B5000013202F03F025A6470470F4B984210D1A5
:100B60000E4B1B68196C5A6C91420DD05A6C985CF4
:100B70005A6C013202F03F025A6470474FF0FF3066
:100B800070474FF0FF3070474FF0FF30704700BFA5
:100B9000CC0500206C0400208C060020740400208A
:100BA00010B4002830DB1A4B994215D1194B196843
:100BB0000B6C013303F03F034A6C1C469A42FBD096
:100BC0000B6CC854134B1B681C64114B1A68D36818
:100BD00043F08003D36017E00F4B994214D10F4BC1
:100BE00019680B6C013303F03F034A6C1C469A42B0
:100BF000FBD00B6CC854094B1B681C64064B1A686D
:100C0000D36843F08003D3605DF8044B704700BFA6
:100C1000CC050020700400208C0600206804002011
:100C20000C4B984207D10C4B1A68136C506C181A75
:100C300000F03F007047094B984207D1084B1A68F3
:100C4000136C506C181A00F03F0070474FF0FF30E3
:100C5000704700BFCC0500206C0400208C060020EB
:100C60007404002038B504460D4603E001342946DB
:100C7000FFF796FF20780028F8D138BD2DE9F84F0E
:100C800006460F461446FFF757FC8146804600256E
:100C90002046FFF7C5FF0028FAD010E01F4B1A6866
:100CA000516C525C7A551A68536C013303F03F0360
:100CB000536401352046FFF7B3FF0028FAD02046E1
:100CC000FFF710FF33789842E8D14FF0000A0FE0A9
:100CD0000AF1010A05F1010B2046FFF72DFF7855B7
:100CE000D04513D02046FFF79BFF0028FAD05D4681
:100CF0002046FFF7F7FE16F80A309842E8D0C245C2
:100D0000C6D1CA4505D10120BDE8F88F0120BDE854
:100D1000F88F4FF0FF30BDE8F88F00BF6C04002063
:100D20002DE9F04106460C46FFF706FC80460746D3
:100D30002046FFF775FF0028FAD0224B9C420ED1C7
:100D400006E0214B1A68536C013303F03F035364F0
:100D50002046FFF7C7FE33789842F2D11DE01B4BC7
:100D60009C421AD106E01A4B1A68536C013303F007
:100D70003F0353642046FFF7B5FE33789842F2D123
:100D80000BE001352046FFF7D7FEAF4213D02046D7
:100D9000FFF746FF0028FAD000E000252046FFF7C5
:100DA000A1FE735D9842ECD0BD42C1D1454505D14D
:100DB0000120BDE8F0810120BDE8F0814FF0FF3057
:100DC000BDE8F081CC0500206C0400208C060020DA
:100DD00074040020F8B505460E4617461C46214609
:100DE0002846FFF79DFF0128F9D1002509E020469C
:100DF000FFF716FF0028FAD02046FFF79DFE785532
:100E00000135B542F3DB0120F8BD00BF08B503682A
:100E10001A68D96812F0200F17D011F0200F14D0E3
:100E20001A685B68DBB22C4A904205D12B4A1168E4
:100E30001846FFF723FE08BD294A90424AD1294AA5
:100E400011681846FFF71AFE08BD12F0800F41D056
:100E500011F0800F3ED0204A90421CD1224AD2F895
:100E60008810D2F88C20914204D1DA6822F08002F6
:100E7000DA6008BD1C4AD2F88C30134493F848104D
:100E8000D2F88C30013303F03F03C2F88C30036892
:100E90001A68596008BD124A90421BD1124AD2F812
:100EA0001811D2F81C21914204D1DA6822F0800294
:100EB000DA6008BD0C4AD2F81C31134493F8D810FC
:100EC000D2F81C31013303F03F03C2F81C31036830
:100ED0001A68596008BD00BFCC0500206C040020D2
:100EE0008C060020740400201C01002030B58FB057
:100EF000002409940A940B940C940D940194314BA2
:100F00001A6B42F010021A631A6B02F0100201927F
:100F1000019A02941A6B42F020021A631A6B02F0D3
:100F200020020292029A03941A6B42F080021A6322
:100F30001A6B02F080020392039A04941A6B42F037
:100F400004021A631A6B02F004020492049A0594D4
:100F50001A6B42F001021A631A6B02F00102059249
:100F6000059A06941A6B42F002021A631A6B02F099
:100F700002020692069A07941A6B42F040021A6324
:100F80001A6B02F040020792079A08941A6B42F01B
:100F900008021A631B6B03F008030893089B0A4DB1
:100FA00022461C21284601F059FA1C2309930123EB
:100FB0000A930B940C9409A9284601F0B5F80FB0D8
:100FC00030BD00BF003802400010024010B50A4C8E
:100FD0000A4B2360002363600222A260E360A362E5
:100FE000E26223636363204600F050FF0121204644
:100FF00001F038F810BD00BFCC06002000B0024060
:1010000000B589B000220F480F4B036001234360F5
:1010100082600423C3601023036140214161802169
:101020008161C26102624262826201930293039310
:10103000049305930693079301A902F097F909B069
:101040005DF804FB0C070020400100A038B50D4CF2
:101050000D4B23600D4B63600025A560E5604FF4E8
:10106000804323616561A561E5612562204601F049
:10107000FBF92946204601F0D1FA2946204601F025
:10108000EFFA38BD78040020005C0040A086010023
:10109000F0B59BB03424224600210DEB040004F08F
:1010A000B7F922460021684604F0B2F92A4D2B4BCD
:1010B0002B6000246C60AC60EC602C6107236B61DA
:1010C0000323AB610E23EB6105262E624FF4A77359
:1010D0006B62F523AB624FF4AA73EB62F7232B63C9
:1010E00085F8344085F8354085F83640284601F0CB
:1010F000A5FB0D940E940F941094119412941394D4
:101100004FF48067149715961694179418948DF8D9
:1011100064408DF865408DF8664022460DA928464A
:1011200001F006FC00940194029403940494059445
:1011300006940797089609940A940B948DF830400A
:101140008DF831408DF8324001226946284601F081
:10115000EFFB1BB0F0BD00BF24050020006801407C
:1011600008B50B480B4B03604FF4827343600023B8
:101170008360C360036143614FF400728261C361A5
:101180000362436283620A23C36202F007FA08BD66
:10119000CC0400200050014008B50848084B03600B
:1011A00042F20F7343600023836044F24F62C260D7
:1011B0000361836102F0DEFE08BD00BF0C06002063
:1011C0000048014030B58DB00024089409940A9479
:1011D0000B94019402940394049405940694079448
:1011E000134D144B2B6041F293136B60AC6063237F
:1011F000EB602C61AC61284602F0BCFE4FF48053DA
:10120000089308A9284602F0A1FF284602F0CEFE66
:1012100060230193029403940594224601A9284671
:1012200002F018FF284600F033FB0DB030BD00BFC0
:101230004C0600200040014008B50848084B0360F8
:101240004FF4E133436000238360C36003610C22E9
:1012500042618361C36103F0D7F808BDCC0500206B
:101260000010014008B50848084B03604FF4E13313
:10127000436000238360C36003610C224261836189
:10128000C36103F0C1F808BD8C06002000140140C2
:1012900070B5A0B030252A46002114A804F0B8F893
:1012A00000240F9410941194129413942A4621460A
:1012B00003A804F0ADF80194224B1A6C42F080525E
:1012C0001A641B6C03F080530193019B02941E4B24
:1012D0001A6842F440421A601B6803F440430293C8
:1012E000029B012314934FF48033159302251A9522
:1012F0004FF480031B9308261C964FF4B4731D9380
:101300001E9504231F9314A801F09CFB01F058FBC9
:101310000F230F93109511944FF4A05312934FF491
:101320008053139305210FA801F0FEFD03964FF49F
:10133000D873079309950C9403A801F0CFFE20B051
:1013400070BD00BF003802400070004008B500F0DA
:10135000A7FBFFF79DFFFFF7C9FDFFF737FEFFF77C
:101360004FFEFFF773FEFFF793FEFFF7F9FEFFF75F
:1013700029FFFFF711FFFFF75FFFFFF773FF03F090
:10138000F5FB4FF05041002003F0BCFA4FF0504104
:10139000012003F0B7FA012003F0F8FA03F038FB5C
:1013A0000E4803F017FB0E4803F0F6FA0D4905202E
:1013B00003F022FD0C49062003F01EFD4FF47A7065
:1013C00000F09AFB094803F005FBFFF725FB0849ED
:1013D0000848FFF753F9FFF7BFFAFCE7FF0000FFEB
:1013E000404040FF849F0008909F00080000FFFFDE
:1013F0009C9F0008A89F00082DE9F04186B00023BB
:10140000019302930393049305932D4B1B68002BC8
:1014100052D14FF001082A4BC3F8008000260096F5
:10142000284B9A6B42EA08029A639B6B03EA080313
:101430000093009B4FF63F03019302270297032579
:1014400004950C24059401A91F4800F06DFECDF809
:101450000480029703960495059401A91B4800F0A7
:1014600063FE48F2331301930297039604950594A3
:1014700001A9174800F058FE4FF6837301930297B5
:1014800003960495059401A9124800F04DFE4CF214
:1014900003730193029703960495059401A90E48DE
:1014A00000F042FE60230193029703960495059491
:1014B00001A90A4800F038FE06B0BDE8F08100BF7F
:1014C0003C020020003802400014024000080240A4
:1014D0000018024000100240000C024000040240CC
:1014E00082B0002100910B4B5A6C42F480425A6446
:1014F0005A6C02F480420092009A01911A6C42F0F8
:1015000080521A641B6C03F080530193019B02B05C
:10151000704700BF003802400268094B9A420DD163
:1015200082B000230193074B1A6B42F400021A6346
:101530001B6B03F400030193019B02B0704700BFD3
:1015400000B00240003802402DE9F04389B000238A
:10155000039304930593069307930268224B9A42E0
:101560003FD100250095214C236B43F004032363F6
:10157000236B03F004030093009B0195236B43F05E
:1015800001032363236B03F001030193019B4FF4D9
:10159000007303934FF01209CDF810904FF001083B
:1015A000CDF81480032706970426079603A9104850
:1015B00000F0BAFD4FF480730393CDF81090CDF88E
:1015C00014800697079603A90A4800F0ADFD02951E
:1015D000236C43F400032364236C03F4000302939D
:1015E000029B09B0BDE8F083005C00400038024077
:1015F00000080240000002402DE9F0418CB00023B9
:101600000793089309930A930B930268564B9A42E7
:1016100040F0A6800024009403F550435A6C42F039
:1016200080625A645A6C02F080620092009A0194BF
:101630001A6B42F020021A631A6B02F02002019228
:10164000019A02941A6B42F001021A631A6B02F0BB
:1016500001020292029A03941A6B42F002021A6388
:101660001A6B02F002020392039A04941A6B42F07E
:1016700040021A631A6B02F040020492049A059425
:101680001A6B42F004021A631A6B02F0040205920C
:10169000059A06941A6B42F008021A631B6B03F05A
:1016A00008030693069B4FF4806307930225089571
:1016B0000E260B9607A92D4800F036FD41F658037B
:1016C0000793089509940A940B9607A9284800F0F7
:1016D0002BFD03230793089509940A944FF00908FA
:1016E000CDF82C80234F07A9384600F01DFD4FF49C
:1016F00070630793089509940A940B9607A93846D6
:1017000000F012FD4FF40C630793089509940A94B6
:101710000B9607F5A05707A9384600F005FD4FF4D2
:1017200098630793089509940A940B9607A91248A1
:1017300000F0FAFC48230793089509940A940B9645
:1017400007A90E4800F0F0FC4FF4A053079308954A
:1017500009940A94CDF82C8007A9384600F0E4FCDF
:101760000CB0BDE8F08100BF0068014000140240E9
:10177000000002400004024000080240000C024049
:1017800000B589B000230393049305930693079350
:101790000268154B9A4223D10021019103F5684359
:1017A0005A6C42F480125A645A6C02F4801201920C
:1017B000019A02911A6B42F020021A631B6B03F02C
:1017C00020030293029B4FF460730393022304935C
:1017D000032306930523079303A9044800F0A4FC00
:1017E00009B05DF804FB00BF005001400014024046
:1017F00008B50268064B9A4209D1064A536C23F495
:10180000801353644FF46071034800F081FD08BDFC
:1018100000500140003802400014024000B583B07F
:101820000368184A934213D100210091164B5A6C59
:1018300042F480325A645B6C03F480330093009B63
:101840000A46182000F07EF9182000F0ADF915E0E6
:101850000E4A934212D1002101910B4B5A6C42F473
:1018600080225A645B6C03F480230193019B0A4637
:101870001A2000F067F91A2000F096F903B05DF81D
:1018800004FB00BF00400140003802400048014016
:1018900000B587B00023019302930393049305934B
:1018A00002680E4B9A4215D1002300930C4B1A6B21
:1018B00042F010021A631B6B03F010030093009BAD
:1018C00020230193022302930323059301A90548D2
:1018D00000F02AFC07B05DF804FB00BF00400140A7
:1018E000003802400010024010B58AB00023059372
:1018F000069307930893099303682F4A93422BD1C9
:10190000002401942D4B5A6C42F010025A645A6C18
:1019100002F010020192019A02941A6B42F0010245
:101920001A631B6B03F001030293029B4FF4C06325
:10193000059302230693032308930723099305A91C
:101940001F4800F0F1FB22462146252000F0FAF85E
:10195000252000F029F92DE01A4A93422AD10024CB
:101960000394164B5A6C42F020025A645A6C02F0EF
:1019700020020392039A04941A6B42F040021A6305
:101980001B6B03F040030493049B4FF484430593C3
:1019900002230693032308930823099305A90A4801
:1019A00000F0C2FB22462146472000F0CBF847203A
:1019B00000F0FAF80AB010BD0010014000380240F3
:1019C00000000240001401400018024008B5FFF773
:1019D00013FD08BD704700BFFEE700BFFEE700BF74
:1019E000FEE700BFFEE700BF704700BF704700BFC3
:1019F000704700BF08B500F06DF808BD08B5024893
:101A000002F09AF908BD00BF4C06002008B5024854
:101A100002F092F908BD00BF0C06002008B502488C
:101A2000FFF7F4F908BD00BFCC05002008B5024857
:101A3000FFF7ECF908BD00BF8C060020054BD3F87A
:101A4000882042F47002C3F888204FF000629A6048
:101A5000704700BF00ED00E010B504460E4B18784B
:101A60004FF47A73B3FBF0F30C4A1068B0FBF3F059
:101A700000F0A8F858B90F2C0BD8002221464FF0DF
:101A8000FF3000F05FF8044B5C60002010BD0120C7
:101A900010BD012010BD00BF140000201000002068
:101AA00008B50B4B1A6842F400721A601A6842F4C7
:101AB00080621A601A6842F480721A60032000F093
:101AC0002FF80020FFF7C8FFFFF70AFD002008BD30
:101AD000003C0240034A1368034909780B44136031
:101AE000704700BF4007002014000020014B186819
:101AF000704700BF4007002038B50446FFF7F6FFE7
:101B00000546B4F1FF3F02D0044B1B781C44FFF79D
:101B1000EDFF401B8442FAD838BD00BF14000020FE
:101B2000074AD36823F4E0631B041B0C000200F493
:101B3000E060184340F0BF6040F40030D060704770
:101B400000ED00E030B4164BDB68C3F30223C3F1B1
:101B50000704042C28BF04241D1D062D01D9DD1EF9
:101B600000E00025012303FA04F4013C2140A940D0
:101B7000AB40013B1A400A43002808DB1201D2B2F5
:101B800000F1604000F5614080F8002305E000F0BE
:101B90000F001201D2B2034B1A5430BC704700BF81
:101BA00000ED00E014ED00E0002808DB420900F041
:101BB0001F00012303FA00F0014B43F82200704795
:101BC00000E100E00138B0F1807F0AD2064B586096
:101BD000F021064A82F823100020986007221A603C
:101BE00070470120704700BF10E000E000ED00E00A
:101BF0000268D3B2103B0B49A1FB03131B090A492E
:101C0000C95CC165032B06D922F47F7222F003025E
:101C10000432826504E022F47F7222F003028265BE
:101C2000806D7047ABAAAAAAB05C0008836A82697B
:101C300082B9012B08D00BB1022B2ED1C36A13F04D
:101C4000807F2CD100207047C36AB3F1C07F28D0B9
:101C500000207047B2F5005F13D1032B03D8DFE8F3
:101C600003F02204220A00207047C36A13F0807F29
:101C70001BD100207047C36AB3F1C07F17D000208A
:101C80007047022B15D9032B01D000207047C36A7F
:101C900013F0807F0FD10020704700207047012093
:101CA00070470120704701207047012070470120D4
:101CB0007047012070470120704700BF70B504468F
:101CC000FFF714FF002C5CD00546002384F8343065
:101CD000022384F835302268136823F0010313606F
:101CE0000AE0FFF703FF401B052805D920236365A1
:101CF000032084F8350070BD23681A6812F0010FC4
:101D0000EFD11A68204810406168A2681143E26868
:101D100011432269114362691143A2691143E269C7
:101D20000A43216A114340EA0102616A042903D18E
:101D3000E06A216B01430A431A602668756925F041
:101D40000705636A1D43042B0DD1A36A1D43E36A93
:101D50004BB12046FFF76AFF28B14023636501209D
:101D600084F8350070BD75612046FFF741FFE26DD4
:101D70003F239340836000206065012384F8353061
:101D800070BD012070BD00BF3F8010F000282CD036
:101D900038B5044690F83530DBB2022B27D0026804
:101DA000136823F001031360036800251D600368B6
:101DB0005D6003689D600368DD6003681D61036802
:101DC00021225A61FFF714FFE56325646564A56469
:101DD000E5642565E26D3F2393408360656584F883
:101DE000355084F83450284638BD01207047022011
:101DF00038BD00BF70B40668756C05F04045039CA3
:101E000044EA03432B4373640368DA634368B3F51E
:101E1000403F36D101F07F4401F47F0501F47F4358
:101E2000C9B282681AB92B432343194326E0012A19
:101E300003D145EA0302114320E0022A07D1EA0C4C
:101E40009C0AD30243EA441343EAD10116E0032A71
:101E50000AD1E40FEA0CDD0A930243EA451343EA90
:101E6000C43343EAD10109E0240F2E0D1A0B3602C8
:101E700046EA021646EA043545EA111103689963F9
:101E800001E00368D96070BC704700BF58B310B55B
:101E9000044690F8393013F0FF0F04D1002380F886
:101EA0003830FFF739FB022384F8393021680B689A
:101EB00023F44032636813430B6021684B6B23F0BB
:101EC0000702A36813434B6321680B6C23F47F5311
:101ED00023F03F03E26813430B640020E063012317
:101EE00084F8393010BD0120704700BF10B582B0B2
:101EF00090F83840012C12D00446012084F83800B4
:101F0000022084F83900049800902046FFF772FF01
:101F10002268136843F001031360002000E00220F0
:101F200002B010BD70B582B004460D460023019387
:101F300003681B6813F0010F3CD0FFF7D7FD06467E
:101F400033E05A680192019A12F0210F19D0019AD8
:101F500012F0200F03D0E26B42F00202E263019A1A
:101F600012F0010F03D0E26B42F00102E263212282
:101F70009A60042384F83930002384F83830012033
:101F80006DE0B5F1FF3F10D0FFF7B0FD801B85423B
:101F900000D355B9E36B43F02003E363032084F8D7
:101FA0003900002384F8383059E023685A6812F069
:101FB000020FC6D02268D169536A0B4313F0200F79
:101FC00044D0FFF793FD06463BE05A680192019A20
:101FD00012F0290F21D0019A12F0080F03D0E26B02
:101FE00042F00402E263019A12F0200F03D0E26B88
:101FF00042F00202E263019A12F0010F03D0E26B99
:1020000042F00102E26329229A60042384F8393005
:10201000002384F83830012021E0B5F1FF3F10D0D3
:10202000FFF764FD801B854200D355B9E36B43F095
:102030002003E363032084F83900002384F8383058
:102040000DE023685A6812F0100FBED023681222E8
:102050009A60012384F83930002084F8380002B0F7
:1020600070BD00BF90F83830012B57D030B4012339
:1020700080F83830022380F8393000EB0113DA6938
:102080008B1C1B01C35842EA0343093A012A07D8B3
:102090008A1C00EB0212526802F07F42134305E0F3
:1020A0008A1C00EB0212526843EA0263B9B9046861
:1020B000656A1C4A2A4013436362026800EB0113FD
:1020C0009C699461DB69093B012B1FD802680231CE
:1020D00000EB01114B6823F07F43936216E0046824
:1020E000E569104A2A401343E361026800EB0113DB
:1020F0009C691461DB69093B012B07D80268023136
:1021000000EB01114B6823F07F431362012380F839
:102110003930002380F83830184601E0022070473B
:1021200030BC7047F0FFFC002DE9F04182B0002385
:10213000E0E001229A400C6802EA0405AA4240F05D
:10214000D8804C68661E012E03D9112C01D0122CA8
:1021500015D187684FEA430E032606FA0EF627EAE2
:102160000606CC6804FA0EF434438460446824EA1A
:1021700002024C68C4F300149C4022434260C668CB
:102180005F000324BC40E44306EA04028E68BE40BC
:102190001643C6604A68022A01D0122A13D1DE080B
:1021A000083650F8268003F007024FEA820E0F220D
:1021B00002FA0EF228EA020C0A6902FA0EF24CEA5E
:1021C000020240F82620066826404A6802F003040E
:1021D00004FA07F2324302604A6812F0805F00F0AE
:1021E000888000220192464A546C44F4804454642E
:1021F000526C02F480420192019A9E08B41C414A3A
:1022000052F8247003F0030292000F24944027EA4E
:1022100004073D4CA04225D004F58064A04223D0A1
:1022200004F58064A04221D004F58064A0421FD050
:1022300004F58064A0421DD004F58064A0421BD048
:1022400004F58064A04219D004F58064A04217D040
:1022500004F58064A04215D004F58064A04213D137
:10226000092412E0002410E001240EE002240CE016
:1022700003240AE0042408E0052406E0062404E020
:10228000072402E0082400E00A2404FA02F23A4398
:1022900002361C4C44F826201C4A1468EA4304EA1F
:1022A00002064F6817F4803F01D045EA0406174C38
:1022B0002660646802EA04064F6817F4003F01D004
:1022C00045EA0406114C6660A46802EA04064F68F9
:1022D00017F4801F01D045EA04060C4CA660E468A0
:1022E00022404E6816F4001F01D045EA0402074C54
:1022F000E26001330F2B7FF61CAF02B0BDE8F08126
:10230000003802400038014000000240003C01401B
:10231000F0B5002397E001229A4002EA0104A242AC
:1023200040F090804FEA930C0CF10206484D55F8AE
:10233000267003F00305AD000F26AE403740DFF8EE
:1023400018E1704526D00EF5806E704525D00EF54B
:10235000806E704524D00EF5806E704523D00EF54A
:10236000806E704522D00EF5806E704521D00EF53E
:10237000806E704520D00EF5806E70451FD00EF532
:10238000806E70451ED00EF5806E70451DD14FF0E9
:10239000090E1CE04FF0000E19E04FF0010E16E0A0
:1023A0004FF0020E13E04FF0030E10E04FF0040E5A
:1023B0000DE04FF0050E0AE04FF0060E07E04FF07B
:1023C000070E04E04FF0080E01E04FF00A0E0EFA7F
:1023D00005F5AF4216D11F4D2F68E44327402F600B
:1023E0006F6827406F60AF682740AF60EF683C4080
:1023F000EC60174F0CF1020457F8245025EA06064A
:1024000047F8246005685E000324B440E443254097
:102410000560DD08083550F8257003F007064FEA1F
:10242000860E0F2606FA0EF627EA060640F8256005
:10243000C5682540C560456825EA02024260826899
:102440001440846001330F2B7FF665AFF0BD00BFF1
:1024500000380140003C0140000002400AB18161A7
:102460007047090481617047002800F0C980F8B501
:10247000044690F83D3013F0FF0F04D1002380F89C
:102480003C30FFF761F8242384F83D30226813685C
:1024900023F0010313602268136843F400431360C0
:1024A0002268136823F40043136000F0F7FD6268AC
:1024B000554B9A4205D8554B98428CBF00230123B7
:1024C00004E0534B98428CBF00230123002B40F0C3
:1024D0009980504BA3FB00239B0C21684A6822F093
:1024E0003F021A434A6025682A6A22F03F02666862
:1024F00045498E4201D8013308E04FF4967101FB43
:1025000003F34549A1FB03139B09013313432B62DA
:102510002568E96921F44F4121F0FF0166683A4BD3
:102520009E420AD8431E7000B3FBF0F00130C0F3A6
:102530000B00042838BF042035E0A3685BB9421EB5
:1025400006EB4607B2FBF7F20132C2F30B02B2FA16
:1025500082F252090CE0421E06EB860707EB870762
:10256000B2FBF7F20132C2F30B02B2FA82F2520965
:10257000C2B953B9421E06EB4600B2FBF0F001307F
:10258000C0F30B0343F400400DE0421E06EB860649
:1025900006EB8606B2FBF6F30133C3F30B0343F4F9
:1025A000404000E001200843E86121680B6823F007
:1025B000C002E069236A034313430B6021688B6800
:1025C00023F4034222F0FF022069E368034313432C
:1025D0008B602168CB6823F0FF026069A369034325
:1025E0001343CB602268136843F00103136000209B
:1025F0002064202384F83D30206384F83E00F8BD39
:10260000012070470120F8BDA08601007F841E00D4
:10261000FF083D0083DE1B43D34D621090F83D3030
:10262000DBB2202B1AD1242380F83D3002681368D6
:1026300023F0010313600268536A23F0100353620E
:1026400003685A6A114359620268136843F0010330
:102650001360202380F83D3000207047022070472F
:1026600090F83D30DBB2202B19D1242380F83D3087
:102670000268136823F0010313600268536A9BB277
:1026800023F00F03194389B251620268136843F0C3
:1026900001031360202380F83D30002070470220A2
:1026A000704700BFF0B54D680468E368C3F30B439F
:1026B0001D44D2011444D4F8883003F47043C4F8A4
:1026C0008830046816190B68E468C4F30B4423448B
:1026D000013343EA0543C6F88830CD680468E368EF
:1026E000C3F30A031D441444D4F88C3003F470433C
:1026F000C4F88C30046816198B68E468C4F30A04C3
:102700002344013343EA0543C6F88C30036813447D
:10271000D3F8944024F00704C3F8944003681344AA
:102720000C69C3F8944091F831E091F832308F6928
:1027300006681644D6F89C400025C6F89C500668EA
:10274000164491F8304044EA0E2444EA034343EA35
:102750000763C6F89C3003681344D3F8984024F00C
:10276000FF04C3F89840036813444C69C3F89840C9
:1027700003681344D3F8A04024F4E06424F0070471
:10278000C3F8A04003681344CE690C6A3443C3F80D
:10279000A04003681344D3F8AC40C3F8AC500368BE
:1027A00013444C6AC3F8AC400B695BB1012B0BD0EE
:1027B000042B0BD0022B0BD0032B0BD0072B0BD1F0
:1027C00002270AE0042708E0032706E0022704E0C6
:1027D000022702E0022700E0012704681444D4F82D
:1027E000B03003F0E023C4F8B0300468144404F1BE
:1027F00084058C6A04FB07F64B680C681C1B04FB01
:1028000007F3033343EA0643EB6203681344D3F848
:10281000B44024F4FF6424F00704C3F8B440036810
:102820001344C96AC3F8B41003681A44D2F8843058
:1028300043F00103C2F88430F0BD00BF002873D01C
:1028400038B5044690F8A13013F0FF0F04D10023EF
:1028500080F8A030FEF7D0FE022384F8A130226871
:10286000936923F070439361216888696368A26863
:102870001343E2681A432369134303438B612168BE
:102880008A682A4B1A408A60656921688868A2694B
:1028900042EA054202438A602168CA681A40CA6057
:1028A000E5692168C868226A42EA05420243CA60B3
:1028B00021680A691A400A61656A21680869A26A82
:1028C00042EA054202430A61226851690B405361A2
:1028D000E06A22685169236B43EA00430B4353616A
:1028E00094F8353094F8362012042068C16A01F05B
:1028F0007F41C1622168C86A42EA032294F83430F9
:1029000013430343CB622268536B43F006035363C4
:102910002268936943F0010393610020C4F8A40086
:10292000012384F8A13038BD0120704700F800F081
:1029300090F8A030012B27D02DE9F04196460F46A4
:1029400006464FF0010880F8A080022380F8A130ED
:10295000342404FB020438340D460FCD0FC40FCDD0
:102960000FC40FCD0FC42B68236072463946304622
:10297000FFF798FE3368C3F8248086F8A180002012
:1029800086F8A000BDE8F0810220704790F8A030E2
:10299000012B11D0012280F8A020022380F8A13061
:1029A00006498B6943F480338B6180F8A1200023B2
:1029B00080F8A03018467047022070470068014038
:1029C00010B582B0002301931A4B1A6C42F080526A
:1029D0001A641B6C03F080530193019B0122164B78
:1029E0001A60FFF783F8044605E0FFF77FF8001B45
:1029F000B0F57A7F18D8114B5B6813F4803FF4D0A0
:102A000001220F4B1A60FFF771F8044605E0FFF74B
:102A10006DF8001BB0F57A7F08D8084B5B6813F49B
:102A2000003FF4D0002002E0032000E0032002B0C9
:102A300010BD00BF0038024040000E420070004050
:102A400044000E42002800F0D78170B582B00446E1
:102A5000036813F0010F5AD0A04B9B6803F00C03DE
:102A6000042B0AD09D4B9B6803F00C03082B0DD15F
:102A70009A4B5B6813F4800F08D0984B1B6813F4D3
:102A8000003F44D06368002B41D1B7E16368B3F5E0
:102A9000803F05D1914A136843F48033136015E0F9
:102AA000B3F5A02F09D18D4B1A6842F480221A6029
:102AB0001A6842F480321A6008E0884B1A6822F4DF
:102AC00080321A601A6822F480221A6063687BB12F
:102AD000FFF70CF8054605E0FFF708F8401B6428EF
:102AE00000F28E817D4B1B6813F4003FF4D00EE0A2
:102AF000FEF7FCFF054605E0FEF7F8FF401B6428E3
:102B000000F28081754B1B6813F4003FF4D12368F9
:102B100013F0020F50D0714B9B6813F00C0F0AD0CA
:102B20006E4B9B6803F00C03082B16D16B4B5B6854
:102B300013F4800F11D1694B1B6813F0020F03D0FF
:102B4000E368012B40F06081644A136823F0F803C6
:102B5000216943EAC10313602EE0E368D3B1012287
:102B60005F4B1A60FEF7C2FF054605E0FEF7BEFFA9
:102B7000401B022800F24A81584B1B6813F0020FD9
:102B8000F4D0564A136823F0F803216943EAC103DD
:102B9000136011E00022524B1A60FEF7A7FF0546B2
:102BA00005E0FEF7A3FF401B022800F231814B4BEA
:102BB0001B6813F0020FF4D1236813F0080F26D01E
:102BC000636993B10122474B1A60FEF78FFF0546F8
:102BD00005E0FEF78BFF401B022800F21B813F4BF4
:102BE0005B6F13F0020FF4D011E000223D4B1A602E
:102BF000FEF77CFF054605E0FEF778FF401B022844
:102C000000F20A81354B5B6F13F0020FF4D1236899
:102C100013F0040F7DD0314B1B6C13F0805F0DD18E
:102C2000002301932D4B1A6C42F080521A641B6CE6
:102C300003F080530193019B012500E000252A4BFE
:102C40001B6813F4807F13D1274A136843F4807301
:102C50001360FEF74BFF064605E0FEF747FF801BBB
:102C6000022800F2DB80204B1B6813F4807FF4D035
:102C7000A368012B05D1194A136F43F001031367B1
:102C800014E0052B09D1154B1A6F42F004021A67A4
:102C90001A6F42F001021A6708E0104B1A6F22F017
:102CA00001021A671A6F22F004021A67A3688BB137
:102CB000FEF71CFF064607E0FEF718FF801B41F2F7
:102CC0008833984200F2AC80044B1B6F13F0020F64
:102CD000F2D018E0FEF70AFF06460FE00038024087
:102CE00000004742800E474200700040FEF7FEFEA3
:102CF000801B41F28833984200F29480554B1B6F41
:102D000013F0020FF2D125B1524A136C23F0805315
:102D10001364A369002B00F087804E4A926802F08A
:102D20000C02082A48D0022B33D100224A4B1A60E9
:102D3000FEF7DCFE054604E0FEF7D8FE401B022845
:102D400074D8444B1B6813F0007FF5D1E269236A05
:102D50001343626A43EA8213A26A5208013A43EAC1
:102D60000243E26A43EA02633A4A536001223A4B61
:102D70001A60FEF7BBFE044604E0FEF7B7FE001B38
:102D8000022855D8334B1B6813F0007FF5D0002084
:102D90005DE00022304B1A60FEF7A8FE044604E016
:102DA000FEF7A4FE001B022844D82A4B1B6813F030
:102DB000007FF5D100204AE0012B3DD0254B5B6818
:102DC00003F48001E269914238D103F03F02216AA5
:102DD0008A4235D1616A47F6C0721A408A4231D1BF
:102DE00003F44032A16A8A422ED103F07063E26A92
:102DF00093422BD001202AE001207047012026E0D9
:102E0000032024E0032022E0012020E003201EE034
:102E100003201CE003201AE0032018E0032016E042
:102E2000032014E0032012E0002010E003200EE055
:102E300003200CE003200AE0012008E0012006E066
:102E4000012004E0012002E0012000E0002002B0A7
:102E500070BD00BF003802406000474238B52F4BBC
:102E60009B6803F00C03042B55D0082B01D02C4891
:102E700038BD2A4B5A6802F03F025B6813F4800F9A
:102E800020D0264B5B68C3F38813DC000025690162
:102E900041EAD4616001041B61EB0505A90141EA27
:102EA0009461A001001B61EB0501C01841F1000114
:102EB0004B0243EAD0534402204619460023FDF753
:102EC000A5F91FE0154B5B68C3F38813DC000025F0
:102ED000690141EAD4616001041B61EB0505A901A8
:102EE00041EA9461A001001B61EB0501C01841F1AA
:102EF00000018B0243EA90538402204619460023C6
:102F0000FDF784F9054B5B68C3F3014301335B00B4
:102F1000B0FBF3F038BD034838BD00BF00380240B5
:102F20000024F40000127A00002800F0988070B5A8
:102F30000446524B1B6803F00F038B4208D2CBB2FE
:102F40004E4A1370136803F00F03994240F08980D2
:102F5000236813F0020F17D013F0040F04D0484A6F
:102F6000936843F4E0539360236813F0080F04D090
:102F7000434A936843F4604393604148836823F075
:102F8000F002A368134383600D46236813F0010F1A
:102F90002FD06268012A05D1394B1B6813F4003F1A
:102FA0000ED160E0931E012B05D8354B1B6813F042
:102FB000007F05D159E0324B1B6813F0020F56D049
:102FC0002F498B6823F0030313438B60FEF78EFDBC
:102FD000064606E0FEF78AFD801B41F288339842E0
:102FE00047D8274B9B6803F00C036268B3EB820F52
:102FF000F0D1224B1B6803F00F039D4207D2EAB2C7
:103000001E4B1A701B6803F00F039D4233D12368D7
:1030100013F0040F06D01A498B6823F4E052E368DA
:1030200013438B60236813F0080F07D0144A93688A
:1030300023F46043216943EAC1039360FFF70EFF65
:103040000F4B9B68C3F303130E4AD35CD8400E4B5F
:1030500018600E4B1868FEF7FFFC002070BD0120C1
:103060007047012070BD012070BD012070BD01209E
:1030700070BD032070BD012070BD00BF003C024048
:1030800000380240985C0008100000201800002062
:10309000014B1868704700BF1000002008B5FFF70B
:1030A000F7FF044B9B68C3F38223034AD35CD840E9
:1030B00008BD00BF00380240A85C000808B5FFF753
:1030C000E7FF044B9B68C3F34233034AD35CD84009
:1030D00008BD00BF00380240A85C000830B583B0CE
:1030E0000446036813F0430F58D00022994B1A602E
:1030F000FEF7FCFC054605E0FEF7F8FC401B022845
:1031000000F21981944B1B6813F0006FF4D123680F
:1031100013F0010F07D06268A3681B0743EA82130C
:103120008D4AC2F88430236813F0020F15D08A4903
:10313000D1F884306068E268120642EA801203F037
:10314000E0431343C1F88430D1F88C3023F01F02E0
:10315000E369013B1343C1F88C30236813F0400F3F
:103160000AD06268E3681B0643EA8213A26843EA56
:103170000273794AC2F884300122764B1A60FEF756
:10318000B5FC054605E0FEF7B1FC401B022800F245
:10319000D480714B1B6813F0006FF4D0236813F0D8
:1031A0000C0F56D000226D4B1A60FEF79FFC0546AF
:1031B00005E0FEF79BFC401B022800F2C080664B36
:1031C0001B6813F0005FF4D1236813F0040F16D0CE
:1031D0006149D1F8883020696269120642EA80129A
:1031E00003F0E0431343C1F88830D1F88C3023F466
:1031F000F852236A013B42EA0323C1F88C3023686A
:1032000013F0080F14D0544AD2F88830216903F023
:10321000706343EA8113A16943EA0173C2F88830FD
:10322000D2F88C3023F44031636A0B43C2F88C30FF
:1032300001224A4B1A60FEF759FC054604E0FEF7EE
:1032400055FC401B02287CD8434B1B6813F0005FE1
:10325000F5D0236813F0200F63D0002301933E4B79
:103260001A6C42F080521A641B6C03F08053019375
:10327000019B3B4A136843F480731360FEF736FCEE
:10328000054604E0FEF732FC401B02285BD8344BB5
:103290001B6813F4807FF5D02F4B1B6F13F4407322
:1032A00022D0A26A02F4407293421DD02A4B1A6FB8
:1032B00022F440722B4901200860002008601A6740
:1032C0001B6F13F0010F0FD0FEF710FC054606E050
:1032D000FEF70CFC401B41F28833984235D81E4B58
:1032E0001B6F13F0020FF3D0A36A03F44072B2F520
:1032F000407F0AD118498A6822F4F81223F07043FB
:1033000023F4407313438B6004E0134A936823F45F
:10331000F8139360104A116FA36AC3F30B030B43B6
:103320001367236813F0100F11D094F82C200E4B64
:103330001A6000200CE003200AE0032008E00320CC
:1033400006E0032004E0032002E0032000E0002068
:1033500003B030BD68004742003802407000474269
:1033600000700040400E4742E0114742E8B138B5D6
:1033700004460D4690F82C3013F0FF0F04D10023C3
:1033800080F82D30FEF722FB022384F82C30211D1B
:10339000206801F06BF862682946206801F0A4F803
:1033A000012384F82C30002038BD0120704700BF75
:1033B00038B590F82C30DBB2022B14D00D46044601
:1033C000022380F82C30006801F0DCF82B68022B17
:1033D00004D1052384F82C30002038BD012384F863
:1033E0002C30002038BD022038BD00BF90F82C30B2
:1033F000DBB2022B0CD010B50446022380F82C302F
:10340000006801F0EBF8012384F82C30002010BD97
:1034100002207047F8B505460F4616461C4634E0B4
:10342000B4F1FF3F31D0FEF761FB069BC01A844226
:1034300000D954BB2A68536823F0E00353606B68DB
:10344000B3F5827F0BD1AB68B3F5004F02D0B3F573
:10345000806F04D12A68136823F040031360AB6ABD
:10346000B3F5005F09D12A68136823F40053136091
:103470002A68136843F400531360012385F8513020
:10348000002385F850300320F8BD2B689B6837EA8D
:1034900003030CBF01230023B342C1D10020F8BDB8
:1034A00030B585B0164C2468164DA5FB0434640D68
:1034B0004FF47A7505FB04F403944468B4F5827FF5
:1034C0000ED10B460446009200228021FFF7A2FF96
:1034D000034690B1636D43F02003636503230CE062
:1034E000039B4BB1039B013B039303689B6813F061
:1034F000800FF5D1002300E00023184605B030BD51
:1035000010000020819F5E1610B582B0044640680E
:10351000B0F5827F0BD1A368B3F5004F02D0B3F5AD
:10352000806F04D12068036823F040030360606863
:10353000B0F5827F21D1A368B3F5806F0ED00092E1
:103540000B46002280212046FFF764FF034610B39C
:10355000636D43F02003636503231CE000920B4678
:10356000002201212046FFF755FF034698B1636D05
:1035700043F02003636503230DE000920B46002215
:1035800001212046FFF746FF034620B1636D43F05B
:10359000200363650323184602B010BD00283CD009
:1035A00010B504460023836290F8513013F0FF0FEA
:1035B00004D1002380F85030FEF7E2F8022384F8AB
:1035C00051302268136823F0400313602168626859
:1035D000A3681A43E3681A4323691A4363691A43C9
:1035E000A36903F400731343E2691343226A13438C
:1035F000A26A1A430A602168638B03F00402636ABB
:1036000013434B602268D36923F40063D361002025
:103610006065012384F8513010BD0120704700BF60
:1036200090B110B50446022380F851300268136847
:1036300023F040031360FEF7DBF80020606584F898
:10364000510084F8500010BD012070472DE9F04171
:1036500082B090F85040012C00F0C6801D461746FD
:1036600088460446012380F85030FEF73FFA0646AC
:1036700094F85130DBB2012B40F0A080B8F1000F7C
:1036800000F09E80002F00F09D80032384F85130CD
:1036900000236365C4F83080A786E786A363A38709
:1036A000E38763642364A368B3F5004F04D1226801
:1036B000136843F48043136023681A6812F0400FC4
:1036C00003D11A6842F040021A60E368B3F5006F54
:1036D00030D163680BB1012F27D12368226B128888
:1036E000DA60236B02332363E38E9BB2013B9BB210
:1036F000E3861AE023689A6812F0020F0BD0226B5F
:103700001288DA60236B02332363E38E9BB2013BA2
:103710009BB2E38609E0FEF7E9F9801BA84202D3D9
:10372000B5F1FF3F50D1002D50D0E38E9BB2002B5E
:10373000E0D12EE063680BB1012F26D12368226B04
:1037400012781A73236B01332363E38E9BB2013B20
:103750009BB2E38619E023689A6812F0020F0BD03F
:10376000226B12781A73236B01332363E28E92B2B9
:10377000013A92B2E28608E0FEF7B8F9801B854272
:1037800002D8B5F1FF3F23D125B3E28E92B2002AD1
:10379000E1D1324629462046FFF782FE08B12023B8
:1037A0006365A36833B901932368DA6801929B6863
:1037B0000193019B636D7BB900200EE002200CE0B9
:1037C00001200AE0012008E0032006E0032004E0D5
:1037D000032002E0032000E00120012384F851309F
:1037E000002384F8503000E0022002B0BDE8F081F0
:1037F0002DE9F04383B00A9D90F85040012C00F071
:103800000F811E4690460F460446012380F8503033
:10381000FEF76CF9814694F85130DBB26268012BF7
:103820000AD0B2F5827F40F0E180A268002A40F021
:10383000DF80042B40F0DE80002F00F0DD80B8F147
:10384000000F00F0DB80002E00F0DA8094F8513099
:10385000DBB2042B02D0052384F8513000236365CA
:10386000C4F83880E687A6872763E686A6862364A1
:10387000636423681A6812F0400F03D11A6842F09B
:1038800040021A60E368B3F5006F4CD163680BB176
:10389000012E0BD12368226B1288DA60236B02336E
:1038A0002363E38E9BB2013B9BB2E386012631E0AA
:1038B00023689A6812F0020F0FD0E28E92B262B1C2
:1038C0005EB1226B1288DA60236B02332363E38ECE
:1038D0009BB2013B9BB2E386002623689A6812F0F4
:1038E000010F0ED0E28F92B25AB1A26BDB68138047
:1038F000A36B0233A363E38F9BB2013B9BB2E387CD
:103900000126FEF7F3F8C9EB0000A84202D3B5F197
:10391000FF3F77D1E38E9BB2002BC9D1E38F9BB2DF
:10392000002BC5D14DE063680BB1012E40D1236857
:10393000226B12781A73236B01332363E38E9BB2DD
:10394000013B9BB2E38633E023689A6812F0020FD2
:103950000FD0E28E92B262B15EB1226B12781A730E
:10396000236B01332363E38E9BB2013B9BB2E3865F
:10397000002623689A6812F0010F0ED0E28F92B2EF
:103980005AB1A26BDB681370A36B0133A363E38F9F
:103990009BB2013B9BB2E3870126FEF7A7F8C9EB78
:1039A0000000854202D8B5F1FF3F2DD10DB92DE0C1
:1039B0000126E38E9BB2002BC6D1E38F9BB2002B76
:1039C000C2D14A4629462046FFF76AFD18B1202396
:1039D000636501201DE0A368D3B90020019023682E
:1039E000DA6801929B680193019B12E0022010E0CB
:1039F00002200EE002200CE001200AE0012008E095
:103A0000012006E0032004E0032002E0032000E0A0
:103A10000020012384F85130002384F8503000E066
:103A2000022003B0BDE8F0832DE9F04182B00446E6
:103A30000F4690461D464368B3F5827F0AD18368DE
:103A400043B9042380F85130009513460A46FFF726
:103A5000CFFE99E094F85030012B00F094800123C0
:103A600084F85030FEF742F8064694F85130DBB245
:103A7000012B72D1002F72D0B8F1000F71D0042346
:103A800084F8513000236365A763A4F83C80A4F850
:103A90003E802363A386E38623646364A368B3F54F
:103AA000004F04D12268136823F480431360236815
:103AB0001A6812F0400F03D11A6842F040021A60EF
:103AC000E368DBB139E023689A6812F0010F0BD08C
:103AD000A26B1B7B1370A36B0133A363E38F9BB2B9
:103AE000013B9BB2E38709E0FEF700F8801B8542AB
:103AF00002D8B5F1FF3F36D1002D36D0E38F9BB20F
:103B0000002BE0D11DE023689A6812F0010F0BD062
:103B1000A26BDB681380A36B0233A363E38F9BB2BA
:103B2000013B9BB2E38708E0FDF7E0FF801B854285
:103B300002D8B5F1FF3F1AD1DDB1E38F9BB2002B64
:103B4000E1D1324629462046FFF7DEFC08B12023AA
:103B50006365636D7BB900200EE002200CE001205C
:103B60000AE0012008E0032006E0032004E003202F
:103B700002E0032000E00120012384F851300023FB
:103B800084F8503000E0022002B0BDE8F08100BFB0
:103B900090F85100704700BF70B4036A23F001032E
:103BA0000362036A4668826922F073020C6842EA83
:103BB000040523F002028B6813430F4CA04202D08D
:103BC0000E4A904205D123F00803CA68134323F03C
:103BD0000403094CA04202D0084A904205D126F4C1
:103BE00040764A6932438E691643466085614A6869
:103BF0004263036270BC7047000001400004014052
:103C000030B4036A23F480730362036A4568C269AF
:103C100022F073020C68224323F400738C6843EA99
:103C20000423124CA04203D004F58064A04206D1C4
:103C300023F40063CC6843EA042323F480630B4C31
:103C4000A04203D004F58064A04207D125F440557A
:103C50004C6945EA04158C6945EA04154560C26162
:103C60004A68C263036230BC704700BF0000014075
:103C700030B4036A23F480530362036A4468C26960
:103C800022F4E6420D6842EA052223F400538D68CF
:103C900043EA0533094DA84203D005F58065A842E3
:103CA00004D124F480444D6944EA85144460C2611F
:103CB0004A680264036230BC704700BF00000140E4
:103CC00010B4036A046A24F001040462846924F0D5
:103CD000F00444EA021223F00A03194382610162EC
:103CE0005DF8044B704700BF10B4036A23F0100363
:103CF00003628469036A24F4704444EA023223F0C4
:103D0000A00343EA0111826101625DF8044B704730
:103D1000836823F07003194341F007018160704705
:103D2000704700BF704700BF704700BF704700BFBB
:103D3000704700BF704700BF10B5044603681A699A
:103D400012F0020F17D0DA6812F0020F13D06FF0E2
:103D500002021A610123037703689B6913F0030FC2
:103D600002D0FFF7E3FF04E0FFF7DEFF2046FFF796
:103D7000DFFF0023237723681A6912F0040F19D09C
:103D8000DA6812F0040F15D06FF004021A610223F2
:103D9000237723689B6913F4407F03D02046FFF705
:103DA000C5FF05E02046FFF7BFFF2046FFF7C0FF35
:103DB0000023237723681A6912F0080F19D0DA68F4
:103DC00012F0080F15D06FF008021A610423237750
:103DD0002368DB6913F0030F03D02046FFF7A6FF2B
:103DE00005E02046FFF7A0FF2046FFF7A1FF0023D4
:103DF000237723681A6912F0100F19D0DA6812F0CD
:103E0000100F15D06FF010021A6108232377236872
:103E1000DB6913F4407F03D02046FFF787FF05E0FE
:103E20002046FFF781FF2046FFF782FF002323771C
:103E300023681A6912F0010F09D0DA6812F0010F35
:103E400005D06FF001021A612046FFF76BFF23686F
:103E50001A6912F0800F09D0DA6812F0800F05D0CD
:103E60006FF080021A61204600F0E4F923681A69B5
:103E700012F0400F09D0DA6812F0400F05D06FF051
:103E800040021A612046FFF755FF23681A6912F0B5
:103E9000200F09D0DA6812F0200F05D06FF0200251
:103EA0001A61204600F0C4F910BD00BF0368304A13
:103EB000904212D0B0F1804F0FD0A2F57C429042D8
:103EC0000BD002F58062904207D002F580629042EA
:103ED00003D002F57842904203D123F070034A6880
:103EE0001343234A90422AD0B0F1804F27D0A2F545
:103EF0007C42904223D002F5806290421FD002F5AE
:103F0000806290421BD002F57842904217D002F5B1
:103F10007052904213D002F5806290420FD002F5A9
:103F2000806290420BD0A2F59832904207D002F501
:103F30008062904203D002F58062904203D123F464
:103F40004073CA68134323F080034A691343036034
:103F50008B68C3620B688362054B984203D003F5FC
:103F60008063984201D10B69036301234361704769
:103F700000000140B8B110B5044690F83D3013F090
:103F8000FF0F04D1002380F83C30FDF747FC0223EB
:103F900084F83D30211D2068FFF788FF012384F855
:103FA0003D30002010BD0120704700BFB8B110B5F2
:103FB000044690F83D3013F0FF0F04D1002380F841
:103FC0003C30FFF7ADFE022384F83D30211D206810
:103FD000FFF76CFF012384F83D30002010BD012065
:103FE000704700BF30B4036A23F010030362036A12
:103FF0004468826922F4E6420D6842EA052223F011
:1040000020038D6843EA0513114DA84203D005F53E
:104010008065A84206D123F08003CD6843EA0513EA
:1040200023F040030A4DA84203D005F58065A8425D
:1040300007D124F440644D6944EA85048D6944EA5B
:104040008504446082614A688263036230BC7047C1
:104050000000014038B590F83C30012B66D00D4689
:104060000446012380F83C30022380F83D300C2ABE
:1040700055D8DFE802F0075454541A5454542E54BF
:10408000545441000068FFF787FD2268936943F0AC
:10409000080393612268936923F004039361226803
:1040A00091692B690B43936139E00068FFF79AFF30
:1040B0002268936943F4006393612268936923F44F
:1040C0008063936122689369296943EA01239361BC
:1040D00025E00068FFF794FD2268D36943F00803E8
:1040E000D3612268D36923F00403D3612268D169C4
:1040F0002B690B43D36112E00068FFF7B9FD22681A
:10410000D36943F40063D3612268D36923F48063E5
:10411000D3612268D369296943EA0123D36101236A
:1041200084F83D30002084F83C0038BD022038BDC2
:1041300010B4846824F47F4442EA0323194344EA18
:10414000010383605DF8044B704700BF90F83C307A
:10415000012B6AD010B50446012380F83C300223BD
:1041600080F83D300268936823F47F4323F077039F
:1041700093600B68402B43D00AD8102B4AD002D84A
:10418000002B47D04AE0202B44D0302B42D045E0D2
:10419000602B2BD002D8502B1ED03FE0702B03D0C9
:1041A000B3F5005F0CD039E0CB684A6889680068D5
:1041B000FFF7BEFF2268936843F0770393602DE01A
:1041C000CB684A6889680068FFF7B2FF2268936885
:1041D00043F48043936021E0CA6849680068FFF7B0
:1041E0006FFD50212068FFF793FD17E0CA6849680A
:1041F0000068FFF779FD60212068FFF789FD0DE079
:10420000CA6849680068FFF75BFD40212068FFF736
:104210007FFD03E019462068FFF77AFD012384F84B
:104220003D30002084F83C0010BD0220704700BFE4
:10423000704700BF704700BFF8B5044601680B69BE
:1042400023F44052C36813430B6181680369194327
:1042500043691943C36919430068C26822F41643CD
:1042600023F00C030B43C36021684B6923F44072B5
:10427000A36913434B61E369B3F5004F61D1236830
:104280005F4A934203D002F5806293422CD1FEF73D
:1042900015FF25680021061841EB010736184F412C
:1042A000FB0043EA5673F20016461F46626800237D
:1042B00092185B4180197941FBF7A8FF514BA3FB92
:1042C00000125109642202FB1102D2003232A3FB18
:1042D00002235B095A0002F4F87202EB011203F0A8
:1042E00007031344AB60F8BDFEF7D8FE2568002134
:1042F000061841EB010736184F41FB0043EA56739D
:10430000F20016461F466268002392185B4180192E
:104310007941FBF77BFF3B4BA3FB00125109642261
:1043200002FB1102D2003232A3FB02235B095A00C6
:1043300002F4F87202EB011203F007031344AB60BE
:10434000F8BD23682E4A934203D002F5806293425F
:104350002AD1FEF7B3FE25680021061841EB0107BC
:1043600036184F41FB0043EA5673F20016461F46CB
:1043700063689A009B0F80197941FBF747FF214B37
:10438000A3FB00214909642202FB1102120132320F
:10439000A3FB02235B0903F0F00202EB011103F01F
:1043A0000F030B44AB60F8BDFEF778FE25680021D3
:1043B000061841EB010736184F41FB0043EA5673DC
:1043C000F20016461F4663689A009B0F80197941D8
:1043D000FBF71CFF0B4BA3FB00214909642202FBE6
:1043E000110212013232A3FB02235B0903F0F00237
:1043F00002EB011103F00F030B44AB60F8BD00BFEB
:10440000001001401F85EB5168B310B5044690F8C9
:10441000393013F0FF0F04D1002380F83830FDF756
:1044200063FA242384F839302268D36823F40053D4
:10443000D3602046FFF700FF2268136923F49043FE
:1044400013612268536923F02A0353612268D368F9
:1044500043F40053D3600020E063202384F8393014
:1044600084F83A3010BD0120704700BF30B40B68AB
:10447000012B18D0036823F4FF4424F07F044A681A
:104480008B681A43CB681A430B691A434B691A436A
:104490008B691A43CB691A430B6A13434A6A134365
:1044A000234303601CE0046824F4F842CC690B6ADF
:1044B0001C434B6A234342EA0304436823F4FF4549
:1044C00025F07F054A688B681A43CB681A430B694D
:1044D0001A434B6913438A6913432B4304604360B7
:1044E000002030BC704700BFF0B5012A20D083689F
:1044F00003F0704E0B685A1E4E68013E42EA0617E2
:104500008D68013D47EA0526CC68013C46EA043542
:104510000A69013A45EA02444B69013B44EA035205
:104520008B69013B42EA03634EEA0303836026E0A2
:10453000876827F4700222F47042CF68013F4B690C
:10454000013B1B0543EA073342EA0307C36803F054
:10455000704E0B685E1E4C68013C46EA04158A6882
:10456000013A45EA02240B69013B44EA03428B69A4
:10457000013B42EA03634EEA03038760C360002005
:10458000F0BD00BF70B582B004461546002301930C
:104590000A684B6813438A68013A43EA4213CA68BF
:1045A00043EA42230193019B0361FDF79FFA06460C
:1045B00008E0B5F1FF3F05D055B1FDF797FA801B34
:1045C000854207D3A36913F0200FF2D1002002E047
:1045D000032000E0032002B070BD00BF436943EA3E
:1045E000410141610020704700B589B0002101916F
:1045F000124B5A6C42F480125A645A6C02F48012C4
:104600000192019A02911A6B42F020021A631B6B0D
:1046100003F020030293029B4FF460730393022381
:1046200004930593012306930523079303A90448E4
:10463000FDF77AFD09B05DF804FB00BF00380240C9
:104640000014024010B51048FFF7A2FAD0B90E4C82
:104650000E4B23601823E3610023A3606361236191
:10466000A3620722E262E36023624FF40072A26158
:1046700063624FF4827363602046FFF7B5FF204604
:10468000FEF78CFF10BD00BF440200200050014027
:1046900008B50348FEF7C4FFFFF7D4FF08BD00BF0D
:1046A0004402002000B583B002A921F8020D064B98
:1046B0001B6801220548FEF7C9FF08B1FFF7E8FFB4
:1046C00003B05DF804FB00BF1C0000204402002082
:1046D00000B583B0064B1B68024601A90548FFF7E9
:1046E000A3F908B1FFF7D4FF019803B05DF804FB0C
:1046F0001C00002044020020304B93F85830002B5F
:104700005AD12DE9F04188B001262C4B83F858602E
:10471000002500952A4C236B43F008032363236B89
:1047200003F008030093009B4FF400530393049697
:1047300005954FF00208CDF81880224F03A938469E
:10474000FDF7F2FC0195236B43F008032363236B11
:1047500003F008030193019B4FF4805303930496E5
:104760000595CDF8188003A93846FDF7DDFC0295C4
:10477000236B43F004032363236B03F004030293CE
:10478000029B0427039704960595CDF81880A4F59D
:10479000405403A92046FDF7C7FC2A463946204667
:1047A000FDF75CFE324639462046FDF757FEFFF71F
:1047B00049FF08B0BDE8F081704700BF4402002007
:1047C00000380240000C024038B5054601224FF483
:1047D00000510948FDF742FE084C00220421204602
:1047E000FDF73CFE2846FFF75DFF0122042120462D
:1047F000FDF734FE38BD00BF000C02400008024047
:1048000038B5054600224FF400510948FDF726FE51
:10481000084C002204212046FDF720FE2846FFF721
:1048200041FF012204212046FDF718FE38BD00BFDC
:10483000000C024000080240F8B507460E46104C36
:10484000002204212046FDF709FE0E4D00224FF400
:1048500000512846FDF702FE3846FFF723FF304699
:10486000FFF736FF064601224FF400512846FDF7B8
:10487000F5FD012204212046FDF7F0FD3046F8BD8C
:1048800000080240000C024008B5FDF735F908BDEC
:10489000F0B583B004460D4616461F460F484FF448
:1048A0004033436000238360089BC3600C4B03606C
:1048B000FDF7ECFA80B921460848FDF7D3FB58B95B
:1048C000009733462A4609990448FDF70FFB18B9AB
:1048D0000A210248FDF726FB03B0F0BDA00200202C
:1048E00000B0024008B5024B1B689B6A984708BDA0
:1048F000EC07002008B5024B1B68DB6A984708BD2F
:10490000EC07002070B58EB004460E4600250195D8
:10491000FFF7E8FF02900395FFF7ECFF0490059581
:104920000A96FF23069307958DF834508DF835507D
:104930008DF836504FF4C063089307230993FFF7AF
:10494000D1FF0B90FFF7D6FF0C900D4D224601A929
:104950002846FDF7EDFF0B4A610008198300134458
:104960004FF0FF305864084898640C44A300134487
:104970004FF07F421A642846FEF708F80EB070BD6B
:1049800044070020A002002030000020014B986561
:10499000704700BFA002002003498B6D03EB430367
:1049A0009A000A4410647047A002002003498B6DEE
:1049B00003EB43039A000A4490647047A00200206E
:1049C00003498B6D03EB43039A000A44906C7047D4
:1049D000A0020020F0B583B007460B4B9C6D34233A
:1049E0000A4A03FB0423DD6DFFF77CFF0646FFF751
:1049F00081FF019700230093034632462946204653
:104A0000FFF746FF03B0F0BDA002002044070020DE
:104A100008B5034B1B689B6803B1984708BD00BFEE
:104A2000EC07002030B58FB000220192484B596C42
:104A300041F080615964596C01F0806101910199E4
:104A40000292196B41F400011963196B01F4000122
:104A5000029102990392196B41F001011963196BDC
:104A600001F00101039103990492196B41F00201D5
:104A70001963196B01F00201049104990592196BF5
:104A800041F004011963196B01F0040105910599C6
:104A90000692196B41F008011963196B01F00801C6
:104AA000069106990792196B41F020011963196B61
:104AB00001F02001079107990892196B41F040011C
:104AC00019631B6B03F040030893089B41F65803DE
:104AD000099302230A930B920C930E230D9309A9B9
:104AE0001C48FDF721FB4FF4706309931A4D09A987
:104AF0002846FDF719FB4FF49863099309A9174855
:104B0000FDF712FB4823099309A91548FDF70CFB93
:104B10004FF48063099309A91248FDF705FB4FF490
:104B20000C630993104C09A92046FDF7FDFA0323F5
:104B3000099309230D9309A92846FDF7F5FA4FF4C7
:104B4000A053099309A92046FDF7EEFA0FB030BD36
:104B50000038024000000240000402400008024009
:104B6000000C0240001402400018024038B5204CEE
:104B7000204B2360092363610123A3611D23E361AB
:104B80000323236240F20D13636240F24313A362D6
:104B900040F21713E36240F247132363002584F8C1
:104BA000365084F8345084F8355013480823C365D0
:104BB000C023C366042343674FF40033C0F880303A
:104BC0005C30FEF78BFA6560A560E5602561FFF754
:104BD00029FF2046FDF732FE084B094A13601B6887
:104BE000984700F031FA0748FFF7E0FE284638BD45
:104BF0004407002000680140A00200205C00002063
:104C0000EC07002030000020F8B507460C46164699
:104C1000064B9A6D3421064B01FB0233DD6DFFF725
:104C200061FE00FB047045F82060F8BDA002002082
:104C3000440700202DE9F04F83B081460F460092D3
:104C400031498B6D03EB43039A000A44936CDA8875
:104C500001929D8805F1070B4FEAEB0BC5EBCB08E2
:104C60005FFA88F84FF0000A47E00AFB0BF3009A5E
:104C70001A44BBF1010F03D0BBF1020F03D008E0CF
:104C8000009AD65C0DE00099CE5C537843EA062684
:104C900007E00099CE5C53781B0243EA06439678FE
:104CA0001E43002423E02B1B4344013B012202FA54
:104CB00003F333420DD014498B6D03EB43039A0089
:104CC0000A4409EB0400126C394680B2FFF79CFFDE
:104CD0000CE00D498B6D03EB43039A000A4409EB8A
:104CE0000400526C394680B2FFF78EFF0134AC42AB
:104CF000D9D30137BFB20AF1010A019B9A45B4D357
:104D000003B0BDE8F08F00BFA002002038B50A4D07
:104D1000AB6D03EB43039C002C44A36C1C68203A4E
:104D2000DD8802FB05F29B880733DB1003FB0242A0
:104D3000FFF780FF38BD00BFA00200202DE9F04141
:104D400006460F46154698461346002401E00134F6
:104D500013465A1C1B78002BF9D1FFF7C3FD2549D8
:104D60008B6D03EB43039A000A44936C9B88B0FB62
:104D7000F3F0B8F1010F03D0B8F1020F07D00AE049
:104D8000001B00FB03F006EB5006B6B203E0001B6D
:104D900010FB0366B6B2002411E015F8012B39466A
:104DA0003046FFF7B3FF13498B6D03EB43039A00C3
:104DB0000A44936C9B881E44B6B20134A4B295F8A1
:104DC0000080FFF78FFD0B498B6D03EB43039A00C7
:104DD0000A44936C9A8802FB140080B218F1000315
:104DE00018BF0123904238BF0023002BD5D1BDE866
:104DF000F08100BFA002002038B504460D46FFF741
:104E0000DFFDC18811FB04F103232A4689B200208B
:104E1000FFF794FF38BD00BF2DE9F04782B082460E
:104E20004FF00008CDF80480214C012626600827A9
:104E30006760A660C4F80C8004F110054FF6FF729D
:104E400021462846FEF7B4FA3046FCF755FE022309
:104E500023606760A660C4F80C804FF6FF7221469D
:104E60002846FEF7A5FA0323236067604FF0040984
:104E7000C4F80890C4F80C804FF6FF72214628460B
:104E8000FEF796FA4FF40C730193C4F80090676034
:104E9000A660019BE3604FF6FF7221462846FEF7AD
:104EA00087FA51462846FEF7A1FA02B0BDE8F0871E
:104EB0002C030020002800F0B48070B58EB00646A8
:104EC00000240194574B9A6B42F001029A639A6B4B
:104ED00002F001020192019A02941A6B42F48002DC
:104EE0001A631A6B02F480020292029A03941A6BFC
:104EF00042F002021A631A6B02F002020392039A52
:104F000004941A6B42F004021A631A6B02F0040252
:104F10000492049A05941A6B42F008021A631A6B01
:104F200002F008020592059A06941A6B42F01002EC
:104F30001A631A6B02F010020692069A07941A6B13
:104F400042F020021A631A6B02F020020792079ABD
:104F500008941A6B42F040021A631B6B03F0400383
:104F60000893089B02230A930C930B940C230D9334
:104F70000EAD602345F8143D29462B48FDF7D4F8C3
:104F80000123099329462948FDF7CEF84CF2037313
:104F9000099329462648FDF7C7F84FF6837309930E
:104FA00029462448FDF7C0F84FF63F0309932946E8
:104FB0002148FDF7B9F848F23313099329461F48F1
:104FC000FDF7B2F81E4B9C648022DA644FF4007245
:104FD0001A654FF480625A654FF480529A654FF417
:104FE0008042DA651C664FF400325A669C660322E2
:104FF000DA661C675C671D46124A45F8442F356324
:10500000DE672846FCF7C2FE2846FCF757FE22461C
:105010000F213820FCF796FD3820FCF7C5FD0EB0B7
:1050200070BD704700380240000402400008024092
:10503000000C024000100240001402400018024020
:105040002C0300201064024038B5204C204B236113
:105050000223C4F8A4300721C4F8A8100422C4F81D
:10506000AC20C4F8B010C4F8B430C4F8B830C4F8F8
:10507000BC30012363610021A161E261102323623E
:10508000402363624FF4C073A362E1624FF4006394
:10509000236361634FF40053A36304F110052846B2
:1050A000FFF708FF04F1A4012846FEF75FF918B1E5
:1050B0000122084B1A7002E00022064B1A7040F2DF
:1050C0006A50FFF7A9FE034B187838BD2C03002067
:1050D000400100A058000020F02070474FF4A0705D
:1050E000704700BF08B5FFF78BFB08BD08B5292046
:1050F000FFF7F8FF08BD00BF08B52820FFF7F2FF53
:1051000008BD00BF08B5FFF75FFB08BD08B5FFF796
:10511000F3FACA20FFF7E6FFC320FFF7F3FF0820EA
:10512000FFF7F0FF5020FFF7EDFFCF20FFF7DAFF8A
:105130000020FFF7E7FFC120FFF7E4FF3020FFF773
:10514000E1FFED20FFF7CEFF6420FFF7DBFF032038
:10515000FFF7D8FF1220FFF7D5FF8120FFF7D2FF1E
:10516000E820FFF7BFFF8520FFF7CCFF0020FFF707
:10517000C9FF7820FFF7C6FFCB20FFF7B3FF392028
:10518000FFF7C0FF2C20FFF7BDFF0020FFF7BAFF9D
:105190003420FFF7B7FF0220FFF7B4FFF720FFF737
:1051A000A1FF2020FFF7AEFFEA20FFF79BFF0020C2
:1051B000FFF7A8FF0020FFF7A5FFB120FFF792FF40
:1051C0000020FFF79FFF1B20FFF79CFFB620FFF793
:1051D00089FF0A20FFF796FFA220FFF793FFC02068
:1051E000FFF780FF1020FFF78DFFC120FFF77AFF48
:1051F0001020FFF787FFC520FFF774FF4520FFF75A
:1052000081FF1520FFF77EFFC720FFF76BFF90207F
:10521000FFF778FF3620FFF765FFC820FFF772FF22
:10522000F220FFF75FFF0020FFF76CFFB020FFF7D1
:1052300059FFC220FFF766FFB620FFF753FF0A2091
:10524000FFF760FFA720FFF75DFF2720FFF75AFF5A
:105250000420FFF757FF2A20FFF744FF0020FFF745
:1052600051FF0020FFF74EFF0020FFF74BFFEF201C
:10527000FFF748FF2B20FFF735FF0020FFF742FF25
:105280000020FFF73FFF0120FFF73CFF3F20FFF723
:1052900039FFF620FFF726FF0120FFF733FF00203C
:1052A000FFF730FF0620FFF72DFF2C20FFF71AFF36
:1052B000C820FFF7E9FA2620FFF714FF0120FFF7C7
:1052C00021FFE020FFF70EFF0F20FFF71BFF292033
:1052D000FFF718FF2420FFF715FF0C20FFF712FF40
:1052E0000E20FFF70FFF0920FFF70CFF4E20FFF7FE
:1052F00009FF7820FFF706FF3C20FFF703FF092096
:10530000FFF700FF1320FFF7FDFE0520FFF7FAFE71
:105310001720FFF7F7FE1120FFF7F4FE0020FFF73C
:10532000F1FEE120FFF7DEFE0020FFF7EBFE162086
:10533000FFF7E8FE1B20FFF7E5FE0420FFF7E2FE83
:105340001120FFF7DFFE0720FFF7DCFE3120FFF71B
:10535000D9FE3320FFF7D6FE4220FFF7D3FE05200B
:10536000FFF7D0FE0C20FFF7CDFE0A20FFF7CAFEA4
:105370002820FFF7C7FE2F20FFF7C4FE0F20FFF7FE
:10538000C1FE1120FFF7AEFEC820FFF77DFA2920ED
:10539000FFF7A8FE2C20FFF7A5FE08BD08B5FFF714
:1053A0004BFA08BD08B5FFF7A7F90321D320FFF793
:1053B000F5FF80B208BD00BF014B1868704700BF01
:1053C000F400002070B50E4B0E4CE41AA41000251A
:1053D0001E46A54204D056F8253098470135F8E717
:1053E00000F04EFC084C094BE41AA41000251E46A0
:1053F000A54204D056F8253098470135F8E770BD2E
:10540000F09F0008F09F0008F49F0008F09F00083C
:1054100002440346934202D003F8011BFAE77047A7
:105420000EB400B59CB04FF402711DABADF8141072
:10543000029006906FF000410A48049107914FF6E0
:10544000FF7153F8042BADF816100068019302A900
:1054500000F072F8029B00221A701CB05DF804EB99
:1054600003B07047F400002010B502461346013225
:105470001C78002CFAD1013B11F8012B03F8012F05
:10548000002AF9D110BD2DE9F0478E689E42824670
:105490000C46914698463ED88A8912F4906F3AD0CD
:1054A000256809696F1A6569022305EB450595FBB7
:1054B000F3F57B1C43449D4238BF1D4653050FD571
:1054C000294600F03DFB064698B13A46216900F0B6
:1054D000C3FAA38923F4906343F08003A38113E00C
:1054E0002A4600F08BFB064670B92169504600F051
:1054F000D9FA0C23CAF80030A38943F04003A381F2
:105500004FF0FF30BDE8F087266165613E44ED1B3A
:105510002660A5604646464528BF4646324649466F
:10552000206800F0A4FAA3689B1BA36023681E44B4
:1055300026600020BDE8F0872DE9F04F9DB0804641
:1055400003938B891C060D4616460DD50B695BB976
:10555000402100F0F5FA2860286118B90C23C8F83A
:105560000030CDE040236B610023099320238DF8A8
:105570002930DFF89CB130238DF82A3037463C467D
:1055800014F8013B1BB9B7EB060910D003E0252B3B
:10559000F9D02746F3E74B46324629464046FFF707
:1055A00072FF013000F0A780099B4B4409933B78C0
:1055B000002B00F0A08000234FF0FF3204930793EC
:1055C000059206938DF853301A930126052221780F
:1055D0004E48FAF7BDFF671C049B38B14B4A801A4E
:1055E00006FA00F0184304903C46EFE7D90644BFA2
:1055F00020228DF853201A0744BF2B228DF8532008
:1056000022782A2A03D0079A00210A200BE0039A65
:10561000111D12680391002A10DA524243F0020071
:10562000079204900BE0274601343B78303B092B6E
:1056300003D800FB02320121F5E701B107923B7864
:105640002E2B1ED17B782A2B0AD1039B1A1D1B6897
:105650000392002BB8BF4FF0FF330237059310E0E1
:1056600000230593781C19460A24074601303A782E
:10567000303A092A03D804FB01210123F5E703B1DD
:105680000591032239782248FAF762FF40B140239E
:10569000CBEB000003FA00F0049B184304900137A1
:1056A00039781C488DF8281006227E1CFAF750FF26
:1056B00088B1194B33B9039B073323F00703083331
:1056C000039314E003AB00932A46144B04A940460D
:1056D000AFF3008007E003AB00932A460F4B04A909
:1056E000404600F093F8B0F1FF3F824603D0099B9B
:1056F0005344099342E7AB895B0601D4099801E062
:105700004FF0FF301DB0BDE8F08F00BFB49F000820
:10571000BA9F0008BE9F00080000000087540008E0
:105720002DE9F04791461F460A698B68DDF8208015
:105730009342B8BF1346C9F8003091F8432006469B
:105740000C4612B10133C9F800302368990642BFF4
:10575000D9F800300233C9F80030256815F0060585
:1057600010D104F1190A07E00123524639463046A8
:10577000C04701301AD00135E368D9F800209B1AE0
:105780009D42F1DB94F843302268003318BF0123B7
:1057900092060FD5E1185A1C302081F843002244AC
:1057A00094F8451082F84310023303E04FF0FF30C5
:1057B000BDE8F08704F1430239463046C047013066
:1057C000F4D02268D9F80050E36802F00602042AF7
:1057D00008BF5D1B2269A3680CBF25EAE57500259B
:1057E0009342C4BF9B1AED184FF000091A344D457F
:1057F00009D00123224639463046C0470130D5D072
:1058000009F10109F3E70020BDE8F0872DE9F04335
:1058100017460A7E85B06E2A984606460C460C9BB3
:1058200001F1430E00F0AE8011D8632A22D009D8CE
:10583000002A00F0BB80582A40F0CA8081F8452039
:10584000834955E0642A1ED0692A1CD0C0E0732A1F
:1058500000F0B08009D86F2A2ED0702A40F0B880AE
:105860000A6842F020020A603EE0752A24D0782AB5
:105870003AD0ADE01A6801F14205111D19601368B4
:1058800084F84230A8E021681A6811F0800F02D035
:10589000111D196008E011F0400F02F104011960B8
:1058A00002D0B2F9003000E01368002B3CDA2D2260
:1058B0005B4284F8432037E021681A6811F0800FBA
:1058C00002D0111D196007E011F0400F02F1040130
:1058D000196001D0138800E01368227E5C496F2AAA
:1058E00014BF0A2208221BE078225A4984F8452076
:1058F0002268186812F0800F00F104051D6003D1C2
:10590000550601D5038800E00368D00744BF42F084
:10591000200222601BB9226822F02002226010229D
:10592000002084F8430001E049490A226568A56027
:10593000002D08DB206820F0040020602BB9002D2A
:105940007DD175460CE0002B79D07546B3FBF2F0A3
:1059500002FB1033CB5C05F8013D03460028F5D16E
:10596000082A0BD12368DA0708D5236962689A42AE
:10597000DEBF302305F8013C05F1FF35C5EB0E0312
:1059800023612EE008681A68496910F0800F03D07F
:10599000101D1860136808E010F0400F02F10400B9
:1059A0001860136801D0198000E01960002323619A
:1059B000754616E01A68111D1960156862680021A5
:1059C0002846FAF7C5FD08B1401B6060636804E033
:1059D00004F1420584F8422001232361002384F866
:1059E0004330CDF800803B4603AA21463046FFF7FE
:1059F00097FE013002D14FF0FF3026E023692A469E
:105A000039463046C0470130F5D023689B0710D592
:105A1000002504F1190907E001234A4639463046BA
:105A2000C0470130E7D00135E368039A9B1A9D42D5
:105A3000F2DBE068039B9842B8BF184605E00B789C
:105A400084F8423004F142058AE705B0BDE8F083EE
:105A5000C59F0008D69F000810B5431E0A44914216
:105A600004D011F8014B03F8014FF8E710BD88424C
:105A700010B501EB020301D8421E0BE09842FBD2A5
:105A80008118D21AD34204D013F8014D01F8014D08
:105A9000F8E710BD994204D011F8014B02F8014F0C
:105AA000F8E710BD38B50546002946D051F8043C4A
:105AB0000C1F002BB8BFE41800F0D6F81F4A13687B
:105AC000114613B96360146032E0A3420ED9226814
:105AD000A018834204BF18685B68636004BF121893
