:020000040800F2
:100000000000032021050008891200088D12000855
:1000100091120008951200089912000800000000D3
:100020000000000000000000000000009D12000819
:10003000A112000800000000A5120008A912000883
:1000400071050008710500087105000871050008B8
:1000500071050008710500087105000871050008A8
:100060007105000871050008710500087105000898
:100070007105000871050008710500087105000888
:100080007105000871050008710500087105000878
:100090007105000871050008710500087105000868
:1000A000B112000871050008C112000871050008AE
:1000B0007105000871050008710500087105000848
:1000C0007105000871050008710500087105000838
:1000D00071050008D11200087105000871050008BB
:1000E0007105000871050008710500087105000818
:1000F0007105000871050008710500087105000808
:1001000071050008710500087105000871050008F7
:1001100071050008710500087105000871050008E7
:1001200071050008710500087105000871050008D7
:1001300071050008710500087105000871050008C7
:1001400071050008710500087105000871050008B7
:10015000710500087105000871050008E11200082A
:100160007105000871050008710500087105000897
:100170007105000871050008710500080000000005
:100180007105000871050008710500087105000877
:100190007105000871050008710500087105000867
:0C01A000710500087105000871050008D9
:1001AC0010B5054C237833B9044B13B10448AFF3A5
:1001BC0000800123237010BD0C0000200000000003
:1001CC0074310008084B10B51BB108490848AFF34F
:1001DC0000800848036803B910BD074B002BFBD007
:1001EC00BDE81040184700BF0000000010000020C0
:1001FC00743100080C0000200000000053B94AB90B
:10020C00002908BF00281CBF4FF0FF314FF0FF3012
:10021C0000F07EB9ADF1080C6DE904CE00F006F8E3
:10022C00DDF804E0DDE9022304B070472DE9F04766
:10023C008C460E460446089D002B50D18A42174628
:10024C006CD9B2FA82FEBEF1000F0BD0CEF12004B5
:10025C0020FA04F401FA0EF644EA060C02FA0EF740
:10026C0000FA0EF44FEA1749220CBCFBF9F01FFA06
:10027C0087F809FB10C642EA064600FB08F3B342B6
:10028C0009D9F61900F1FF3280F02281B34240F215
:10029C001F8102383E44F61AA2B2B6FBF9F309FBF1
:1002AC00136642EA064403FB08F8A04509D9E41991
:1002BC0003F1FF3280F00A81A04540F20781023B36
:1002CC003C44C8EB040443EA00400021002D62D0FA
:1002DC0024FA0EF400232C606B60BDE8F0878B428F
:1002EC0007D9002D55D0002185E841000846BDE80E
:1002FC00F087B3FA83F1002940F09080B34202D327
:10030C00824200F2F880841A66EB03060120B446A0
:10031C00002D40D085E81010BDE8F08712B90127F8
:10032C00B7FBF2F7B7FA87FEBEF1000F35D1F31B1E
:10033C004FEA17481FFA87FC0121B3FBF8F0220C97
:10034C0008FB103642EA06460CFB00F3B34207D911
:10035C00F61900F1FF3202D2B34200F2CE80104601
:10036C00F61AA2B2B6FBF8F308FB136642EA06448F
:10037C000CFB03FCA44507D9E41903F1FF3202D2AC
:10038C00A44500F2B5801346CCEB040443EA0040CC
:10039C009CE729462846BDE8F087CEF1200106FAF5
:1003AC000EF307FA0EF720FA01F94FEA1748CE4080
:1003BC0049EA0309B6FBF8FA4FEA194408FB1A6636
:1003CC001FFA87FC44EA06430AFB0CF29A4200FA35
:1003DC000EF40AD9DB190AF1FF3180F087809A42BA
:1003EC0040F28480AAF1020A3B449B1A1FFA89F955
:1003FC00B3FBF8F108FB113349EA034301FB0CF69C
:10040C009E4207D9DB1901F1FF326BD29E4269D9AA
:10041C0002393B449B1B41EA0A418EE7C1F1200E95
:10042C0022FA0EF48B40234320FA0EF706FA01F45D
:10043C004FEA134C26FA0EF63C43B6FBFCF9270C9C
:10044C000CFB19661FFA83F847EA064609FB08F706
:10045C00B74202FA01F200FA01FA08D9F61809F1CA
:10046C00FF3041D2B7423FD9A9F102091E44F61B15
:10047C00A0B2B6FBFCF40CFB146640EA064704FB86
:10048C0008F8B84507D9FF1804F1FF3028D2B84551
:10049C0026D9023C1F4444EA0940C8EB0707A0FBDD
:1004AC0002894F4544464E4614D329D065B3BAEB66
:1004BC00040367EB060707FA0EFECB40CF404EEA6B
:1004CC00030385E888000021BDE8F0871346F8E6B1
:1004DC001046E0E6B8EB020469EB03060138E5E7E9
:1004EC000446D8E7114695E78146C0E78A467CE783
:1004FC00023B3C4448E708460AE702383E442FE7F3
:10050C00C245E7D33E46D1E72946BDE8F08700BF98
:10051C00704700BFDFF834D0002103E00C4B5B5870
:10052C00435004310B480C4B42189A42F6D30B4AF9
:10053C0002E0002342F8043B094B9A42F9D300F045
:10054C00D1FE02F0E3FD00F083FB704700000320B6
:10055C00B4310008000000200C0000200C0000202A
:10056C002C040020FEE70000114B124A136003F12B
:10057C004801114A116003F19001104A1160D833FF
:10058C000F4A13600F4B1A68536943F00103536110
:10059C000D4B1B68596941F001015961D16841F05B
:1005AC002001D160DA6842F02002DA60704700BFA7
:1005BC002800002054010020580100205C0100207C
:1005CC0050010020B4020020740300200B6C013396
:1005DC0003F03F034A6C9A4202D00A6C88540B64B5
:1005EC00704700BF154B98420DD1154B1B68196C09
:1005FC005A6C914218D05A6C985C5A6C013202F0C9
:10060C003F025A6470470F4B984210D10E4B1B6837
:10061C00196C5A6C91420DD05A6C985C5A6C013220
:10062C0002F03F025A6470474FF0FF3070474FF0B2
:10063C00FF3070474FF0FF30704700BFB40200200E
:10064C0054010020740300205C01002010B4002829
:10065C0030DB1A4B994215D1194B19680B6C0133CD
:10066C0003F03F034A6C1C469A42FBD00B6CC854F7
:10067C00134B1B681C64114B1A68D36843F080033E
:10068C00D36017E00F4B994214D10F4B19680B6CC8
:10069C00013303F03F034A6C1C469A42FBD00B6CAF
:1006AC00C854094B1B681C64064B1A68D36843F08A
:1006BC008003D3605DF8044B704700BFB402002088
:1006CC005801002074030020500100200C4B98426C
:1006DC0007D10C4B1A68136C506C181A00F03F00C1
:1006EC007047094B984207D1084B1A68136C506C31
:1006FC00181A00F03F0070474FF0FF30704700BFF2
:10070C00B402002054010020740300205C0100207E
:10071C0008B503681A68D96812F0200F17D011F0C9
:10072C00200F14D01A685B68DBB22C4A904205D1BA
:10073C002B4A11681846FFF749FF08BD294A904219
:10074C004AD1294A11681846FFF740FF08BD12F03C
:10075C00800F41D011F0800F3ED0204A90421CD126
:10076C00224AD2F88810D2F88C20914204D1DA684F
:10077C0022F08002DA6008BD1C4AD2F88C30134497
:10078C0093F84810D2F88C30013303F03F03C2F8D1
:10079C008C3003681A68596008BD124A90421BD10C
:1007AC00124AD2F81811D2F81C21914204D1DA68FD
:1007BC0022F08002DA6008BD0C4AD2F81C311344D6
:1007CC0093F8D810D2F81C31013303F03F03C2F870
:1007DC001C3103681A68596008BD00BFB4020020C0
:1007EC0054010020740300205C010020280000202C
:1007FC0030B58FB0002409940A940B940C940D948A
:10080C000194314B1A6B42F010021A631A6B02F00E
:10081C0010020192019A02941A6B42F020021A63A0
:10082C001A6B02F020020292029A03941A6B42F0A5
:10083C0080021A631A6B02F080020392039A0494EA
:10084C001A6B42F004021A631A6B02F0040204924F
:10085C00049A05941A6B42F001021A631A6B02F0A7
:10086C0001020592059A06941A6B42F002021A6371
:10087C001A6B02F002020692069A07941A6B42F067
:10088C0040021A631A6B02F040020792079A08940E
:10089C001A6B42F008021A631B6B03F008030893EF
:1008AC00089B0A4D22461C21284600F067FF1C239A
:1008BC00099301230A930B940C9409A9284600F080
:1008CC0069FE0FB030BD00BF00380240001002407E
:1008DC0010B50A4C0A4B2360002363600222A2600D
:1008EC00E360A362E26223636363204600F0C0FD11
:1008FC000121204600F0ECFD10BD00BFB403002028
:10090C0000B0024000B589B000220F480F4B0360C5
:10091C000123436082600423C360102303614021E0
:10092C00416180218161C2610262426282620193F3
:10093C0002930393049305930693079301A901F083
:10094C008BFE09B05DF804FBF4030020400100A00D
:10095C0038B50D4C0D4B23600D4B63600025A56025
:10096C00E5604FF4804323616561A561E561256213
:10097C00204600F009FF2946204600F0DFFF2946FB
:10098C00204600F0FDFF38BD60010020005C0040F7
:10099C00A0860100F0B59BB03424224600210DEB5B
:1009AC00040002F0D9FB22460021684602F0D4FB79
:1009BC002A4D2B4B2B6000246C60AC60EC602C61DE
:1009CC0007236B610323AB610E23EB6105262E62BB
:1009DC004FF4A7736B62F523AB624FF4AA73EB620F
:1009EC00F7232B6385F8344085F8354085F836407D
:1009FC00284601F0B3F80D940E940F9410941194B2
:100A0C00129413944FF480671497159616941794B8
:100A1C0018948DF864408DF865408DF86640224638
:100A2C000DA9284601F014F9009401940294039442
:100A3C000494059406940797089609940A940B94C9
:100A4C008DF830408DF831408DF8324001226946E6
:100A5C00284601F0FDF81BB0F0BD00BF0C020020D1
:100A6C000068014008B50B480B4B03604FF48273D0
:100A7C00436000238360C360036143614FF40072E1
:100A8C008261C3610362436283620A23C36201F021
:100A9C0005FE08BDB40100200050014008B508480F
:100AAC00084B036042F20F7343600023836044F2EF
:100ABC004F62C2600361836102F020F808BD00BF81
:100ACC00F40200200048014030B58DB00024089499
:100ADC0009940A940B94019402940394049405943D
:100AEC0006940794134D144B2B6041F293136B60D7
:100AFC00AC606323EB602C61AC61284601F0FEFF17
:100B0C004FF48053089308A9284602F0E3F82846CE
:100B1C0002F010F86023019302940394059422468A
:100B2C0001A9284602F05AF8284600F005FB0DB042
:100B3C0030BD00BF340300200040014008B5084818
:100B4C00084B03604FF4E133436000238360C360C0
:100B5C0003610C2242618361C36102F019FA08BD82
:100B6C00B40200200010014008B50848084B03608F
:100B7C004FF4E133436000238360C36003610C22B4
:100B8C0042618361C36102F003FA08BD7403002063
:100B9C000014014070B5A0B030252A46002114A8DD
:100BAC0002F0DAFA00240F94109411941294139416
:100BBC002A46214603A802F0CFFA0194224B1A6C64
:100BCC0042F080521A641B6C03F080530193019B1A
:100BDC0002941E4B1A6842F440421A601B6803F4DC
:100BEC0040430293029B012314934FF480331593DB
:100BFC0002251A954FF480031B9308261C964FF47C
:100C0C00B4731D931E9504231F9314A801F090F840
:100C1C0001F04CF80F230F93109511944FF4A0533F
:100C2C0012934FF48053139305210FA801F0F2FA9D
:100C3C0003964FF4D873079309950C9403A801F00D
:100C4C00C3FB20B070BD00BF0038024000700040F4
:100C5C0010B500F079FBFFF79DFFFFF7C9FDFFF71B
:100C6C0037FEFFF74FFEFFF773FEFFF793FEFFF71C
:100C7C00F9FEFFF729FFFFF711FFFFF75FFFFFF703
:100C8C0073FFFFF771FC0F48FFF720FD68B10D48AB
:100C9C00FFF7A8FC0446702803D10B497020FFF71E
:100CAC00D5FC09492046FFF7D1FC0748FFF70EFD9C
:100CBC000028E8D00448FFF795FC0249FFF7C6FC72
:100CCC00E1E700BF74030020B40200202DE9F041DD
:100CDC0086B00023019302930393049305932D4B49
:100CEC001B68002B52D14FF001082A4BC3F800802F
:100CFC0000260096284B9A6B42EA08029A639B6B7B
:100D0C0003EA08030093009B4FF63F03019302276D
:100D1C000297032504950C24059401A91F4800F0A3
:100D2C0039FCCDF80480029703960495059401A92B
:100D3C001B4800F02FFC48F23313019302970396E3
:100D4C000495059401A9174800F024FC4FF6837311
:100D5C000193029703960495059401A9124800F09B
:100D6C0019FC4CF2037301930297039604950594B6
:100D7C0001A90E4800F00EFC602301930297039624
:100D8C000495059401A90A4800F004FC06B0BDE8DE
:100D9C00F08100BF480100200038024000140240DE
:100DAC00000802400018024000100240000C0240F3
:100DBC000004024082B0002100910B4B5A6C42F4AB
:100DCC0080425A645A6C02F480420092009A01915B
:100DDC001A6C42F080521A641B6C03F0805301931E
:100DEC00019B02B0704700BF003802400268094BFB
:100DFC009A420DD182B000230193074B1A6B42F437
:100E0C0000021A631B6B03F400030193019B02B0F5
:100E1C00704700BF00B00240003802402DE9F0439B
:100E2C0089B00023039304930593069307930268F8
:100E3C00224B9A423FD100250095214C236B43F065
:100E4C0004032363236B03F004030093009B0195BD
:100E5C00236B43F001032363236B03F00103019322
:100E6C00019B4FF4007303934FF01209CDF81090CF
:100E7C004FF00108CDF81480032706970426079637
:100E8C0003A9104800F086FB4FF480730393CDF850
:100E9C001090CDF814800697079603A90A4800F025
:100EAC0079FB0295236C43F400032364236C03F455
:100EBC0000030293029B09B0BDE8F083005C004084
:100ECC000038024000080240000002402DE9F041C9
:100EDC008CB000230793089309930A930B93026831
:100EEC00564B9A4240F0A6800024009403F55043E0
:100EFC005A6C42F080625A645A6C02F08062009222
:100F0C00009A01941A6B42F020021A631A6B02F0D9
:100F1C0020020192019A02941A6B42F001021A63A8
:100F2C001A6B02F001020292029A03941A6B42F0BD
:100F3C0002021A631A6B02F002020392039A0494DF
:100F4C001A6B42F040021A631A6B02F040020492D0
:100F5C00049A05941A6B42F004021A631A6B02F09D
:100F6C0004020592059A06941A6B42F008021A6361
:100F7C001B6B03F008030693069B4FF480630793E7
:100F8C00022508950E260B9607A92D4800F002FBAA
:100F9C0041F658030793089509940A940B9607A9F0
:100FAC00284800F0F7FA03230793089509940A944C
:100FBC004FF00908CDF82C80234F07A9384600F0D4
:100FCC00E9FA4FF470630793089509940A940B9609
:100FDC0007A9384600F0DEFA4FF40C630793089526
:100FEC0009940A940B9607F5A05707A9384600F008
:100FFC00D1FA4FF498630793089509940A940B96C9
:10100C0007A9124800F0C6FA4823079308950994DB
:10101C000A940B9607A90E4800F0BCFA4FF4A053A3
:10102C000793089509940A94CDF82C8007A93846A3
:10103C0000F0B0FA0CB0BDE8F08100BF00680140D0
:10104C00001402400000024000040240000802406C
:10105C00000C024000B589B0002303930493059360
:10106C00069307930268154B9A4223D100210191F4
:10107C0003F568435A6C42F480125A645A6C02F4B9
:10108C0080120192019A02911A6B42F020021A63AB
:10109C001B6B03F020030293029B4FF460730393CA
:1010AC0002230493032306930523079303A90448FF
:1010BC0000F070FA09B05DF804FB00BF005001406D
:1010CC000014024000B583B00368184A934213D150
:1010DC0000210091164B5A6C42F480325A645B6CBE
:1010EC0003F480330093009B0A46182000F06AF941
:1010FC00182000F099F915E00E4A934212D1002104
:10110C0001910B4B5A6C42F480225A645B6C03F4D1
:10111C0080230193019B0A461A2000F053F91A20F0
:10112C0000F082F903B05DF804FB00BF0040014001
:10113C00003802400048014000B587B000230193FD
:10114C00029303930493059302680E4B9A4215D1B4
:10115C00002300930C4B1A6B42F010021A631B6BAA
:10116C0003F010030093009B2023019302230293AE
:10117C000323059301A9054800F00CFA07B05DF8AC
:10118C0004FB00BF00400140003802400010024048
:10119C0010B58AB00023059306930793089309931F
:1011AC0003682F4A93422BD1002401942D4B5A6C87
:1011BC0042F010025A645A6C02F010020192019A29
:1011CC0002941A6B42F001021A631B6B03F00103C9
:1011DC000293029B4FF4C0630593022306930323EF
:1011EC0008930723099305A91F4800F0D3F9224659
:1011FC002146252000F0E6F8252000F015F92DE019
:10120C001A4A93422AD100240394164B5A6C42F08A
:10121C0020025A645A6C02F020020392039A04943E
:10122C001A6B42F040021A631B6B03F040030493E9
:10123C00049B4FF4844305930223069303230893E2
:10124C000823099305A90A4800F0A4F9224621466F
:10125C00472000F0B7F8472000F0E6F80AB010BDC0
:10126C000010014000380240000002400014014010
:10127C000018024008B5FFF729FD08BD704700BFF4
:10128C00FEE700BFFEE700BFFEE700BFFEE700BFC2
:10129C00704700BF704700BF704700BF08B500F033
:1012AC006DF808BD08B5024801F00AFB08BD00BF87
:1012BC003403002008B5024801F002FB08BD00BF52
:1012CC00F402002008B50248FFF722FA08BD00BF5F
:1012DC00B402002008B50248FFF71AFA08BD00BF97
:1012EC0074030020054BD3F8882042F47002C3F835
:1012FC0088204FF000629A60704700BF00ED00E05C
:10130C0010B504460E4B18784FF47A73B3FBF0F318
:10131C000C4A1068B0FBF3F000F094F858B90F2C9D
:10132C000BD8002221464FF0FF3000F04BF8044B55
:10133C005C60002010BD012010BD012010BD00BF5D
:10134C00040000200000002008B50B4B1A6842F482
:10135C0000721A601A6842F480621A601A6842F4C9
:10136C0080721A60032000F01BF80020FFF7C8FF02
:10137C00FFF720FD002008BD003C0240034A136823
:10138C00034909780B441360704700BF2804002000
:10139C0004000020014B1868704700BF280400208F
:1013AC00074AD36823F4E0631B041B0C000200F40F
:1013BC00E060184340F0BF6040F40030D0607047EC
:1013CC0000ED00E030B4164BDB68C3F30223C3F12D
:1013DC000704042C28BF04241D1D062D01D9DD1E75
:1013EC0000E00025012303FA04F4013C2140A9404C
:1013FC00AB40013B1A400A43002808DB1201D2B271
:10140C0000F1604000F5614080F8002305E000F039
:10141C000F001201D2B2034B1A5430BC704700BFFC
:10142C0000ED00E014ED00E0002808DB420900F0BC
:10143C001F00012303FA00F0014B43F82200704710
:10144C0000E100E00138B0F1807F0AD2064B586011
:10145C00F021064A82F823100020986007221A60B7
:10146C0070470120704700BF10E000E000ED00E085
:10147C0058B310B5044690F8393013F0FF0F04D16F
:10148C00002380F83830FFF7B1FC022384F83930A0
:10149C0021680B6823F44032636813430B602168A6
:1014AC004B6B23F00702A36813434B6321680B6C4F
:1014BC0023F47F5323F03F03E26813430B640020B3
:1014CC00E063012384F8393010BD0120704700BF60
:1014DC0090F83830012B57D030B4012380F83830D5
:1014EC00022380F8393000EB0113DA698B1C1B01E5
:1014FC00C35842EA0343093A012A07D88A1C00EB75
:10150C000212526802F07F42134305E08A1C00EB82
:10151C000212526843EA0263B9B90468656A1C4A4C
:10152C002A4013436362026800EB01139C699461C7
:10153C00DB69093B012B1FD80268023100EB01115A
:10154C004B6823F07F43936216E00468E569104A08
:10155C002A401343E361026800EB01139C69146198
:10156C00DB69093B012B07D80268023100EB011142
:10157C004B6823F07F431362012380F8393000233A
:10158C0080F83830184601E00220704730BC7047B4
:10159C00F0FFFC002DE9F04182B00023E0E00122D5
:1015AC009A400C6802EA0405AA4240F0D8804C68C4
:1015BC00661E012E03D9112C01D0122C15D187686F
:1015CC004FEA430E032606FA0EF627EA0606CC6807
:1015DC0004FA0EF434438460446824EA02024C6832
:1015EC00C4F300149C4022434260C6685F0003248D
:1015FC00BC40E44306EA04028E68BE401643C66053
:10160C004A68022A01D0122A13D1DE08083650F893
:10161C00268003F007024FEA820E0F2202FA0EF226
:10162C0028EA020C0A6902FA0EF24CEA020240F8AD
:10163C002620066826404A6802F0030404FA07F2E2
:10164C00324302604A6812F0805F00F0888000220A
:10165C000192464A546C44F480445464526C02F433
:10166C0080420192019A9E08B41C414A52F824709F
:10167C0003F0030292000F24944027EA04073D4C28
:10168C00A04225D004F58064A04223D004F58064E8
:10169C00A04221D004F58064A0421FD004F58064E0
:1016AC00A0421DD004F58064A0421BD004F58064D8
:1016BC00A04219D004F58064A04217D004F58064D0
:1016CC00A04215D004F58064A04213D1092412E085
:1016DC00002410E001240EE002240CE003240AE0B4
:1016EC00042408E0052406E0062404E0072402E0B4
:1016FC00082400E00A2404FA02F23A4302361C4C95
:10170C0044F826201C4A1468EA4304EA02064F688F
:10171C0017F4803F01D045EA0406174C2660646834
:10172C0002EA04064F6817F4003F01D045EA0406AC
:10173C00114C6660A46802EA04064F6817F4801F17
:10174C0001D045EA04060C4CA660E46822404E68C1
:10175C0016F4001F01D045EA0402074CE260013385
:10176C000F2B7FF61CAF02B0BDE8F08100380240B1
:10177C000038014000000240003C01400AB1816188
:10178C007047090481617047002800F0C980F8B5E2
:10179C00044690F83D3013F0FF0F04D1002380F87D
:1017AC003C30FFF73BFB242384F83D302268136860
:1017BC0023F0010313602268136843F400431360A1
:1017CC002268136823F40043136000F0DDFD6268A7
:1017DC00554B9A4205D8554B98428CBF0023012398
:1017EC0004E0534B98428CBF00230123002B40F0A4
:1017FC009980504BA3FB00239B0C21684A6822F074
:10180C003F021A434A6025682A6A22F03F02666842
:10181C0045498E4201D8013308E04FF4967101FB23
:10182C0003F34549A1FB03139B09013313432B62BB
:10183C002568E96921F44F4121F0FF0166683A4BB4
:10184C009E420AD8431E7000B3FBF0F00130C0F387
:10185C000B00042838BF042035E0A3685BB9421E96
:10186C0006EB4607B2FBF7F20132C2F30B02B2FAF7
:10187C0082F252090CE0421E06EB860707EB870743
:10188C00B2FBF7F20132C2F30B02B2FA82F2520946
:10189C00C2B953B9421E06EB4600B2FBF0F0013060
:1018AC00C0F30B0343F400400DE0421E06EB86062A
:1018BC0006EB8606B2FBF6F30133C3F30B0343F4DA
:1018CC00404000E001200843E86121680B6823F0E8
:1018DC00C002E069236A034313430B6021688B68E1
:1018EC0023F4034222F0FF022069E368034313430D
:1018FC008B602168CB6823F0FF026069A369034306
:10190C001343CB602268136843F00103136000207B
:10191C002064202384F83D30206384F83E00F8BD19
:10192C00012070470120F8BDA08601007F841E00B5
:10193C00FF083D0083DE1B43D34D621090F83D3011
:10194C00DBB2202B1AD1242380F83D3002681368B7
:10195C0023F0010313600268536A23F010035362EF
:10196C0003685A6A114359620268136843F0010311
:10197C001360202380F83D30002070470220704710
:10198C0090F83D30DBB2202B19D1242380F83D3068
:10199C000268136823F0010313600268536A9BB258
:1019AC0023F00F03194389B251620268136843F0A4
:1019BC0001031360202380F83D3000207047022083
:1019CC00704700BFF0B54D680468E368C3F30B4380
:1019DC001D44D2011444D4F8883003F47043C4F885
:1019EC008830046816190B68E468C4F30B4423446C
:1019FC00013343EA0543C6F88830CD680468E368D0
:101A0C00C3F30A031D441444D4F88C3003F470431C
:101A1C00C4F88C30046816198B68E468C4F30A04A3
:101A2C002344013343EA0543C6F88C30036813445E
:101A3C00D3F8944024F00704C3F89440036813448B
:101A4C000C69C3F8944091F831E091F832308F6909
:101A5C0006681644D6F89C400025C6F89C500668CB
:101A6C00164491F8304044EA0E2444EA034343EA16
:101A7C000763C6F89C3003681344D3F8984024F0ED
:101A8C00FF04C3F89840036813444C69C3F89840AA
:101A9C0003681344D3F8A04024F4E06424F0070452
:101AAC00C3F8A04003681344CE690C6A3443C3F8EE
:101ABC00A04003681344D3F8AC40C3F8AC5003689F
:101ACC0013444C6AC3F8AC400B695BB1012B0BD0CF
:101ADC00042B0BD0022B0BD0032B0BD0072B0BD1D1
:101AEC0002270AE0042708E0032706E0022704E0A7
:101AFC00022702E0022700E0012704681444D4F80E
:101B0C00B03003F0E023C4F8B0300468144404F19E
:101B1C0084058C6A04FB07F64B680C681C1B04FBE1
:101B2C0007F3033343EA0643EB6203681344D3F829
:101B3C00B44024F4FF6424F00704C3F8B4400368F1
:101B4C001344C96AC3F8B41003681A44D2F8843039
:101B5C0043F00103C2F88430F0BD00BF002873D0FD
:101B6C0038B5044690F8A13013F0FF0F04D10023D0
:101B7C0080F8A030FFF7AAF9022384F8A13022687C
:101B8C00936923F070439361216888696368A26844
:101B9C001343E2681A432369134303438B6121689F
:101BAC008A682A4B1A408A60656921688868A2692C
:101BBC0042EA054202438A602168CA681A40CA6038
:101BCC00E5692168C868226A42EA05420243CA6094
:101BDC0021680A691A400A61656A21680869A26A63
:101BEC0042EA054202430A61226851690B40536183
:101BFC00E06A22685169236B43EA00430B4353614B
:101C0C0094F8353094F8362012042068C16A01F03B
:101C1C007F41C1622168C86A42EA032294F83430D9
:101C2C0013430343CB622268536B43F006035363A5
:101C3C002268936943F0010393610020C4F8A40067
:101C4C00012384F8A13038BD0120704700F800F062
:101C5C0090F8A030012B27D02DE9F04196460F4685
:101C6C0006464FF0010880F8A080022380F8A130CE
:101C7C00342404FB020438340D460FCD0FC40FCDB1
:101C8C000FC40FCD0FC42B68236072463946304603
:101C9C00FFF798FE3368C3F8248086F8A1800020F3
:101CAC0086F8A000BDE8F0810220704710B582B024
:101CBC00002301931A4B1A6C42F080521A641B6C6D
:101CCC0003F080530193019B0122164B1A60FFF71E
:101CDC0061FB044605E0FFF75DFB001BB0F57A7F66
:101CEC0018D8114B5B6813F4803FF4D001220F4BD2
:101CFC001A60FFF74FFB044605E0FFF74BFB001B98
:101D0C00B0F57A7F08D8084B5B6813F4003FF4D029
:101D1C00002002E0032000E0032002B010BD00BF51
:101D2C000038024040000E420070004044000E4259
:101D3C00002800F0D78170B582B00446036813F018
:101D4C00010F5AD0A04B9B6803F00C03042B0AD054
:101D5C009D4B9B6803F00C03082B0DD19A4B5B68D1
:101D6C0013F4800F08D0984B1B6813F4003F44D039
:101D7C006368002B41D1B7E16368B3F5803F05D1AF
:101D8C00914A136843F48033136015E0B3F5A02F28
:101D9C0009D18D4B1A6842F480221A601A6842F4F9
:101DAC0080321A6008E0884B1A6822F480321A607C
:101DBC001A6822F480221A6063687BB1FFF7EAFA92
:101DCC00054605E0FFF7E6FA401B642800F28E8119
:101DDC007D4B1B6813F4003FF4D00EE0FFF7DAFAEA
:101DEC00054605E0FFF7D6FA401B642800F2808117
:101DFC00754B1B6813F4003FF4D1236813F0020FEA
:101E0C0050D0714B9B6813F00C0F0AD06E4B9B6833
:101E1C0003F00C03082B16D16B4B5B6813F4800F8B
:101E2C0011D1694B1B6813F0020F03D0E368012B2F
:101E3C0040F06081644A136823F0F803216943EA97
:101E4C00C10313602EE0E368D3B101225F4B1A602B
:101E5C00FFF7A0FA054605E0FFF79CFA401B0228A5
:101E6C0000F24A81584B1B6813F0020FF4D0564A0B
:101E7C00136823F0F803216943EAC103136011E0EE
:101E8C000022524B1A60FFF785FA054605E0FFF772
:101E9C0081FA401B022800F231814B4B1B6813F076
:101EAC00020FF4D1236813F0080F26D0636993B1A5
:101EBC000122474B1A60FFF76DFA054605E0FFF764
:101ECC0069FA401B022800F21B813F4B5B6F13F039
:101EDC00020FF4D011E000223D4B1A60FFF75AFAC2
:101EEC00054605E0FFF756FA401B022800F20A816E
:101EFC00354B5B6F13F0020FF4D1236813F0040F12
:101F0C007DD0314B1B6C13F0805F0DD100230193FE
:101F1C002D4B1A6C42F080521A641B6C03F08053E8
:101F2C000193019B012500E000252A4B1B6813F44B
:101F3C00807F13D1274A136843F480731360FFF733
:101F4C0029FA064605E0FFF725FA801B022800F265
:101F5C00DB80204B1B6813F4807FF4D0A368012B2B
:101F6C0005D1194A136F43F00103136714E0052BD5
:101F7C0009D1154B1A6F42F004021A671A6F42F01E
:101F8C0001021A6708E0104B1A6F22F001021A675F
:101F9C001A6F22F004021A67A3688BB1FFF7FAF9E3
:101FAC00064607E0FFF7F6F9801B41F288339842AA
:101FBC0000F2AC80044B1B6F13F0020FF2D018E050
:101FCC00FFF7E8F906460FE00038024000004742F0
:101FDC00800E474200700040FFF7DCF9801B41F295
:101FEC008833984200F29480554B1B6F13F0020F0C
:101FFC00F2D125B1524A136C23F080531364A369B8
:10200C00002B00F087804E4A926802F00C02082ADE
:10201C0048D0022B33D100224A4B1A60FFF7BAF991
:10202C00054604E0FFF7B6F9401B022874D8444B70
:10203C001B6813F0007FF5D1E269236A1343626ACF
:10204C0043EA8213A26A5208013A43EA0243E26A63
:10205C0043EA02633A4A536001223A4B1A60FFF793
:10206C0099F9044604E0FFF795F9001B022855D8AE
:10207C00334B1B6813F0007FF5D000205DE000228D
:10208C00304B1A60FFF786F9044604E0FFF782F93B
:10209C00001B022844D82A4B1B6813F0007FF5D193
:1020AC0000204AE0012B3DD0254B5B6803F48001F6
:1020BC00E269914238D103F03F02216A8A4235D15C
:1020CC00616A47F6C0721A408A4231D103F4403239
:1020DC00A16A8A422ED103F07063E26A93422BD03C
:1020EC0001202AE001207047012026E0032024E093
:1020FC00032022E0012020E003201EE003201CE04E
:10210C0003201AE0032018E0032016E0032014E05B
:10211C00032012E0002010E003200EE003200CE06E
:10212C0003200AE0012008E0012006E0012004E081
:10213C00012002E0012000E0002002B070BD00BFD1
:10214C00003802406000474238B52F4B9B6803F0C3
:10215C000C03042B55D0082B01D02C4838BD2A4B2E
:10216C005A6802F03F025B6813F4800F20D0264BB4
:10217C005B68C3F38813DC000025690141EAD46174
:10218C006001041B61EB0505A90141EA9461A00102
:10219C00001B61EB0501C01841F100014B0243EA41
:1021AC00D0534402204619460023FEF727F81FE0BF
:1021BC00154B5B68C3F38813DC000025690141EA09
:1021CC00D4616001041B61EB0505A90141EA94612E
:1021DC00A001001B61EB0501C01841F100018B024D
:1021EC0043EA90538402204619460023FEF706F872
:1021FC00054B5B68C3F3014301335B00B0FBF3F0A9
:10220C0038BD034838BD00BF003802400024F4003C
:10221C0000127A00002800F0988070B50446524BEA
:10222C001B6803F00F038B4208D2CBB24E4A1370DB
:10223C00136803F00F03994240F08980236813F070
:10224C00020F17D013F0040F04D0484A936843F4DC
:10225C00E0539360236813F0080F04D0434A93684B
:10226C0043F4604393604148836823F0F002A36811
:10227C00134383600D46236813F0010F2FD062685F
:10228C00012A05D1394B1B6813F4003F0ED160E0D5
:10229C00931E012B05D8354B1B6813F0007F05D11D
:1022AC0059E0324B1B6813F0020F56D02F498B6844
:1022BC0023F0030313438B60FFF76CF8064606E02C
:1022CC00FFF768F8801B41F28833984247D8274BB8
:1022DC009B6803F00C036268B3EB820FF0D1224BC6
:1022EC001B6803F00F039D4207D2EAB21E4B1A7013
:1022FC001B6803F00F039D4233D1236813F0040FC6
:10230C0006D01A498B6823F4E052E36813438B60C0
:10231C00236813F0080F07D0144A936823F4604322
:10232C00216943EAC1039360FFF70EFF0F4B9B68D3
:10233C00C3F303130E4AD35CD8400E4B18600E4BFC
:10234C001868FEF7DDFF002070BD012070470120EA
:10235C0070BD012070BD012070BD012070BD032037
:10236C0070BD012070BD00BF003C0240003802402F
:10237C008C3100080000002008000020014B186878
:10238C00704700BF0000002008B5FFF7F7FF044BB3
:10239C009B68C3F38223034AD35CD84008BD00BFBB
:1023AC00003802409C31000808B5FFF7E7FF044BEA
:1023BC009B68C3F34233034AD35CD84008BD00BFCB
:1023CC00003802409C31000830B583B004460368E5
:1023DC0013F0430F58D00022994B1A60FEF7DAFF26
:1023EC00054605E0FEF7D6FF401B022800F21981D6
:1023FC00944B1B6813F0006FF4D1236813F0010F9A
:10240C0007D06268A3681B0743EA82138D4AC2F89F
:10241C008430236813F0020F15D08A49D1F8843028
:10242C006068E268120642EA801203F0E04313434C
:10243C00C1F88430D1F88C3023F01F02E369013BE2
:10244C001343C1F88C30236813F0400F0AD0626834
:10245C00E3681B0643EA8213A26843EA0273794AD3
:10246C00C2F884300122764B1A60FEF793FF0546C2
:10247C0005E0FEF78FFF401B022800F2D480714B61
:10248C001B6813F0006FF4D0236813F00C0F56D0B8
:10249C0000226D4B1A60FEF77DFF054605E0FEF746
:1024AC0079FF401B022800F2C080664B1B6813F0BA
:1024BC00005FF4D1236813F0040F16D06149D1F8F2
:1024CC00883020696269120642EA801203F0E04308
:1024DC001343C1F88830D1F88C3023F4F852236AB6
:1024EC00013B42EA0323C1F88C30236813F0080F38
:1024FC0014D0544AD2F88830216903F0706343EA4F
:10250C008113A16943EA0173C2F88830D2F88C3088
:10251C0023F44031636A0B43C2F88C3001224A4BDE
:10252C001A60FEF737FF054604E0FEF733FF401B49
:10253C0002287CD8434B1B6813F0005FF5D023684E
:10254C0013F0200F63D0002301933E4B1A6C42F022
:10255C0080521A641B6C03F080530193019B3B4A1D
:10256C00136843F480731360FEF714FF054604E010
:10257C00FEF710FF401B02285BD8344B1B6813F48A
:10258C00807FF5D02F4B1B6F13F4407322D0A26ABF
:10259C0002F4407293421DD02A4B1A6F22F44072FF
:1025AC002B4901200860002008601A671B6F13F08C
:1025BC00010F0FD0FEF7EEFE054606E0FEF7EAFE31
:1025CC00401B41F28833984235D81E4B1B6F13F0D9
:1025DC00020FF3D0A36A03F44072B2F5407F0AD124
:1025EC0018498A6822F4F81223F0704323F44073DC
:1025FC0013438B6004E0134A936823F4F81393603D
:10260C00104A116FA36AC3F30B030B4313672368C0
:10261C0013F0100F11D094F82C200E4B1A600020E0
:10262C000CE003200AE0032008E0032006E003206E
:10263C0004E0032002E0032000E0002003B030BDE2
:10264C00680047420038024070004742007000406A
:10265C00400E4742E0114742E8B138B504460D46FA
:10266C0090F82C3013F0FF0F04D1002380F82D309C
:10267C00FEF700FE022384F82C30211D206800F0A8
:10268C00B9FC62682946206800F0F2FC012384F84A
:10269C002C30002038BD0120704700BF00283CD0F2
:1026AC0010B504460023836290F8513013F0FF0FED
:1026BC0004D1002380F85030FEF7CCFC022384F8C0
:1026CC0051302268136823F040031360216862685C
:1026DC00A3681A43E3681A4323691A4363691A43CC
:1026EC00A36903F400731343E2691343226A13438F
:1026FC00A26A1A430A602168638B03F00402636ABE
:10270C0013434B602268D36923F40063D361002028
:10271C006065012384F8513010BD0120704700BF63
:10272C0070B4036A23F001030362036A466882698A
:10273C0022F073020C6842EA040523F002028B6853
:10274C0013430F4CA04202D00E4A904205D123F005
:10275C000803CA68134323F00403094CA04202D0B7
:10276C00084A904205D126F440764A6932438E6974
:10277C001643466085614A684263036270BC7047C9
:10278C00000001400004014030B4036A23F480735C
:10279C000362036A4568C26922F073020C68224323
:1027AC0023F400738C6843EA0423124CA04203D038
:1027BC0004F58064A04206D123F40063CC6843EA9C
:1027CC00042323F480630B4CA04203D004F58064F3
:1027DC00A04207D125F440554C6945EA04158C6993
:1027EC0045EA04154560C2614A68C263036230BCA5
:1027FC00704700BF0000014030B4036A23F48053DB
:10280C000362036A4468C26922F4E6420D6842EA34
:10281C00052223F400538D6843EA0533094DA84281
:10282C0003D005F58065A84204D124F480444D6999
:10283C0044EA85144460C2614A680264036230BC95
:10284C00704700BF0000014010B4036A046A24F012
:10285C0001040462846924F0F00444EA021223F0B7
:10286C000A031943826101625DF8044B704700BF93
:10287C0010B4036A23F0100303628469036A24F41E
:10288C00704444EA023223F0A00343EA011182614E
:10289C0001625DF8044B7047836823F070031943A1
:1028AC0041F0070181607047704700BF704700BF5F
:1028BC00704700BF704700BF704700BF704700BF34
:1028CC0010B5044603681A6912F0020F17D0DA68C3
:1028DC0012F0020F13D06FF002021A61012303777A
:1028EC0003689B6913F0030F02D0FFF7E3FF04E0CA
:1028FC00FFF7DEFF2046FFF7DFFF00232377236877
:10290C001A6912F0040F19D0DA6812F0040F15D0FE
:10291C006FF004021A610223237723689B6913F476
:10292C00407F03D02046FFF7C5FF05E02046FFF7A8
:10293C00BFFF2046FFF7C0FF0023237723681A69E7
:10294C0012F0080F19D0DA6812F0080F15D06FF0DA
:10295C0008021A61042323772368DB6913F0030F41
:10296C0003D02046FFF7A6FF05E02046FFF7A0FFA7
:10297C002046FFF7A1FF0023237723681A6912F082
:10298C00100F19D0DA6812F0100F15D06FF010027A
:10299C001A61082323772368DB6913F4407F03D083
:1029AC002046FFF787FF05E02046FFF781FF204612
:1029BC00FFF782FF0023237723681A6912F0010FB7
:1029CC0009D0DA6812F0010F05D06FF001021A611C
:1029DC002046FFF76BFF23681A6912F0800F09D0AD
:1029EC00DA6812F0800F05D06FF080021A61204671
:1029FC0000F0E4F923681A6912F0400F09D0DA6884
:102A0C0012F0400F05D06FF040021A612046FFF71C
:102A1C0055FF23681A6912F0200F09D0DA6812F0FA
:102A2C00200F05D06FF020021A61204600F0C4F987
:102A3C0010BD00BF0368304A904212D0B0F1804FF5
:102A4C000FD0A2F57C4290420BD002F580629042EE
:102A5C0007D002F58062904203D002F57842904292
:102A6C0003D123F070034A681343234A90422AD0BF
:102A7C00B0F1804F27D0A2F57C42904223D002F5D2
:102A8C00806290421FD002F5806290421BD002F50A
:102A9C007842904217D002F57052904213D002F552
:102AAC00806290420FD002F5806290420BD0A2F56A
:102ABC009832904207D002F58062904203D002F522
:102ACC008062904203D123F44073CA68134323F00D
:102ADC0080034A69134303608B68C3620B6883628B
:102AEC00054B984203D003F58063984201D10B69E2
:102AFC00036301234361704700000140B8B110B576
:102B0C00044690F83D3013F0FF0F04D1002380F8F9
:102B1C003C30FEF7D7FA022384F83D30211D2068A3
:102B2C00FFF788FF012384F83D30002010BD012001
:102B3C00704700BFB8B110B5044690F83D3013F0A3
:102B4C00FF0F04D1002380F83C30FFF7ADFE0223C9
:102B5C0084F83D30211D2068FFF76CFF012384F8B9
:102B6C003D30002010BD0120704700BF30B4036A17
:102B7C0023F010030362036A4468826922F4E6427C
:102B8C000D6842EA052223F020038D6843EA051301
:102B9C00114DA84203D005F58065A84206D123F05B
:102BAC008003CD6843EA051323F040030A4DA84285
:102BBC0003D005F58065A84207D124F440644D6923
:102BCC0044EA85048D6944EA8504446082614A685C
:102BDC008263036230BC70470000014038B590F846
:102BEC003C30012B66D00D460446012380F83C3066
:102BFC00022380F83D300C2A55D8DFE802F0075448
:102C0C0054541A5454542E54545441000068FFF731
:102C1C0087FD2268936943F00803936122689369E6
:102C2C0023F004039361226891692B690B43936130
:102C3C0039E00068FFF79AFF2268936943F4006358
:102C4C0093612268936923F480639361226893698A
:102C5C00296943EA0123936125E00068FFF794FD9D
:102C6C002268D36943F00803D3612268D36923F047
:102C7C000403D3612268D1692B690B43D36112E041
:102C8C000068FFF7B9FD2268D36943F40063D36190
:102C9C002268D36923F48063D3612268D3692969DC
:102CAC0043EA0123D361012384F83D30002084F8EA
:102CBC003C0038BD022038BD10B4846824F47F4435
:102CCC0042EA0323194344EA010383605DF8044B91
:102CDC00704700BF90F83C30012B6AD010B5044609
:102CEC00012380F83C30022380F83D300268936861
:102CFC0023F47F4323F0770393600B68402B43D07E
:102D0C000AD8102B4AD002D8002B47D04AE0202BEF
:102D1C0044D0302B42D045E0602B2BD002D8502B26
:102D2C001ED03FE0702B03D0B3F5005F0CD039E020
:102D3C00CB684A6889680068FFF7BEFF2268936811
:102D4C0043F0770393602DE0CB684A68896800688C
:102D5C00FFF7B2FF2268936843F48043936021E04D
:102D6C00CA6849680068FFF76FFD50212068FFF7BB
:102D7C0093FD17E0CA6849680068FFF779FD602188
:102D8C002068FFF789FD0DE0CA6849680068FFF705
:102D9C005BFD40212068FFF77FFD03E019462068AA
:102DAC00FFF77AFD012384F83D30002084F83C00C5
:102DBC0010BD0220704700BF704700BF704700BFB6
:102DCC00F8B5044601680B6923F44052C3681343F9
:102DDC000B6181680369194343691943C36919433A
:102DEC000068C26822F4164323F00C030B43C36043
:102DFC0021684B6923F44072A36913434B61E36967
:102E0C00B3F5004F61D123685F4A934203D002F5BA
:102E1C00806293422CD1FFF7C7FA2568002106186F
:102E2C0041EB010736184F41FB0043EA5673F200A1
:102E3C0016461F466268002392185B41801979413F
:102E4C00FDF7DCF9514BA3FB00125109642202FB84
:102E5C001102D2003232A3FB02235B095A0002F4A6
:102E6C00F87202EB011203F007031344AB60F8BDD8
:102E7C00FFF78AFA25680021061841EB010736187E
:102E8C004F41FB0043EA5673F20016461F46626838
:102E9C00002392185B4180197941FDF7AFF93B4B48
:102EAC00A3FB00125109642202FB1102D200323240
:102EBC00A3FB02235B095A0002F4F87202EB011225
:102ECC0003F007031344AB60F8BD23682E4A93420A
:102EDC0003D002F5806293422AD1FFF765FA256888
:102EEC000021061841EB010736184F41FB0043EA5D
:102EFC005673F20016461F4663689A009B0F8019A2
:102F0C007941FDF77BF9214BA3FB00214909642290
:102F1C0002FB110212013232A3FB02235B0903F004
:102F2C00F00202EB011103F00F030B44AB60F8BD90
:102F3C00FFF72AFA25680021061841EB010736181D
:102F4C004F41FB0043EA5673F20016461F46636876
:102F5C009A009B0F80197941FDF750F90B4BA3FB9D
:102F6C0000214909642202FB110212013232A3FB37
:102F7C0002235B0903F0F00202EB011103F00F03D3
:102F8C000B44AB60F8BD00BF001001401F85EB5136
:102F9C0068B310B5044690F8393013F0FF0F04D124
:102FAC00002380F83830FEF7F3F8242384F8393006
:102FBC002268D36823F40053D3602046FFF700FF48
:102FCC002268136923F4904313612268536923F038
:102FDC002A0353612268D36843F40053D360002062
:102FEC00E063202384F8393084F83A3010BD012096
:102FFC00704700BF30B40B68012B18D0036823F462
:10300C00FF4424F07F044A688B681A43CB681A4348
:10301C000B691A434B691A438B691A43CB691A43E0
:10302C000B6A13434A6A1343234303601CE004688E
:10303C0024F4F842CC690B6A1C434B6A234342EAE2
:10304C000304436823F4FF4525F07F054A688B6829
:10305C001A43CB681A430B691A434B6913438A69A9
:10306C0013432B4304604360002030BC704700BF07
:10307C00F0B5012A20D0836803F0704E0B685A1EFD
:10308C004E68013E42EA06178D68013D47EA052667
:10309C00CC68013C46EA04350A69013A45EA024427
:1030AC004B69013B44EA03528B69013B42EA0363DF
:1030BC004EEA0303836026E0876827F4700222F44B
:1030CC007042CF68013F4B69013B1B0543EA073354
:1030DC0042EA0307C36803F0704E0B685E1E4C682F
:1030EC00013C46EA04158A68013A45EA02240B6958
:1030FC00013B44EA03428B69013B42EA03634EEA1B
:10310C0003038760C3600020F0BD00BF70B50E4B99
:10311C000E4CE41AA41000251E46A54204D056F805
:10312C00253098470135F8E700F01EF8084C094B9C
:10313C00E41AA41000251E46A54204D056F82530EA
:10314C0098470135F8E770BDAC310008AC31000888
:10315C00B0310008AC31000802440346934202D05F
:10316C0003F8011BFAE77047F8B500BFF8BC08BCC0
:10317C009E467047F8B500BFF8BC08BC9E46704729
:10318C00000000000000000001020304060708090B
:08319C00000000000102030421
:0831A40094D0FF7F0100000040
:0431AC00D101000845
:0431B000AD01000865
:0C31B4000024F4000100000010000000E6
:0400000508000521C9
:00000001FF
