:020000040800F2
:1000000000000320D10500082D130008311300085B
:1000100035130008391300083D13000800000000E4
:100020000000000000000000000000004113000874
:100030004513000800000000491300084D13000894
:1000400021060008210600082106000821060008F4
:1000500021060008210600082106000821060008E4
:1000600021060008210600082106000821060008D4
:1000700021060008210600082106000821060008C4
:1000800021060008210600082106000821060008B4
:1000900021060008210600082106000821060008A4
:1000A0005513000821060008651300082106000802
:1000B0002106000821060008210600082106000884
:1000C0002106000821060008210600082106000874
:1000D0002106000875130008210600082106000803
:1000E0002106000821060008210600082106000854
:1000F0002106000821060008210600082106000844
:100100002106000821060008210600082106000833
:100110002106000821060008210600082106000823
:100120002106000821060008210600082106000813
:100130002106000821060008210600082106000803
:1001400021060008210600082106000821060008F3
:100150002106000821060008210600088513000872
:1001600021060008210600082106000821060008D3
:1001700021060008210600082106000800000000F2
:1001800021060008210600082106000821060008B3
:1001900021060008210600082106000821060008A3
:0C01A000210600082106000821060008C6
:1001B00010B5054C237833B9044B13B10448AFF3A1
:1001C00000800123237010BD70000020000000009B
:1001D000D0470008084B10B51BB108490848AFF3D9
:1001E00000800848036803B910BD074B002BFBD003
:1001F000BDE81040184700BF000000007400002058
:10020000D0470008700000200000000053B94AB930
:10021000002908BF00281CBF4FF0FF314FF0FF300E
:1002200000F07EB9ADF1080C6DE904CE00F006F8DF
:10023000DDF804E0DDE9022304B070472DE9F04762
:100240008C460E460446089D002B50D18A42174624
:100250006CD9B2FA82FEBEF1000F0BD0CEF12004B1
:1002600020FA04F401FA0EF644EA060C02FA0EF73C
:1002700000FA0EF44FEA1749220CBCFBF9F01FFA02
:1002800087F809FB10C642EA064600FB08F3B342B2
:1002900009D9F61900F1FF3280F02281B34240F211
:1002A0001F8102383E44F61AA2B2B6FBF9F309FBED
:1002B000136642EA064403FB08F8A04509D9E4198D
:1002C00003F1FF3280F00A81A04540F20781023B32
:1002D0003C44C8EB040443EA00400021002D62D0F6
:1002E00024FA0EF400232C606B60BDE8F0878B428B
:1002F00007D9002D55D0002185E841000846BDE80A
:10030000F087B3FA83F1002940F09080B34202D322
:10031000824200F2F880841A66EB03060120B4469C
:10032000002D40D085E81010BDE8F08712B90127F4
:10033000B7FBF2F7B7FA87FEBEF1000F35D1F31B1A
:100340004FEA17481FFA87FC0121B3FBF8F0220C93
:1003500008FB103642EA06460CFB00F3B34207D90D
:10036000F61900F1FF3202D2B34200F2CE801046FD
:10037000F61AA2B2B6FBF8F308FB136642EA06448B
:100380000CFB03FCA44507D9E41903F1FF3202D2A8
:10039000A44500F2B5801346CCEB040443EA0040C8
:1003A0009CE729462846BDE8F087CEF1200106FAF1
:1003B0000EF307FA0EF720FA01F94FEA1748CE407C
:1003C00049EA0309B6FBF8FA4FEA194408FB1A6632
:1003D0001FFA87FC44EA06430AFB0CF29A4200FA31
:1003E0000EF40AD9DB190AF1FF3180F087809A42B6
:1003F00040F28480AAF1020A3B449B1A1FFA89F951
:10040000B3FBF8F108FB113349EA034301FB0CF697
:100410009E4207D9DB1901F1FF326BD29E4269D9A6
:1004200002393B449B1B41EA0A418EE7C1F1200E91
:1004300022FA0EF48B40234320FA0EF706FA01F459
:100440004FEA134C26FA0EF63C43B6FBFCF9270C98
:100450000CFB19661FFA83F847EA064609FB08F702
:10046000B74202FA01F200FA01FA08D9F61809F1C6
:10047000FF3041D2B7423FD9A9F102091E44F61B11
:10048000A0B2B6FBFCF40CFB146640EA064704FB82
:1004900008F8B84507D9FF1804F1FF3028D2B8454D
:1004A00026D9023C1F4444EA0940C8EB0707A0FBD9
:1004B00002894F4544464E4614D329D065B3BAEB62
:1004C000040367EB060707FA0EFECB40CF404EEA67
:1004D000030385E888000021BDE8F0871346F8E6AD
:1004E0001046E0E6B8EB020469EB03060138E5E7E5
:1004F0000446D8E7114695E78146C0E78A467CE77F
:10050000023B3C4448E708460AE702383E442FE7EE
:10051000C245E7D33E46D1E72946BDE8F08700BF94
:10052000704700BF00000000000000000000000055
:1005300001F0FF01102A2BDB10F0070F08D010F894
:10054000013B013A8B422DD010F0070F42B3F6D198
:10055000F0B441EA012141EA014122F007047FF0B1
:1005600000070023F0E80256083C85EA010586EA08
:10057000010685FA47F5A3FA87F586FA47F6A5FA44
:1005800087F68EB9EED1F0BC01F0FF0102F0070250
:1005900032B110F8013B013A83EA010313B1F8D1FB
:1005A0000020704701387047002D06BF35460338DC
:1005B000073815F0010F07D1013015F4807F02BF15
:1005C000013015F4C03F0130F0BC0138704700BF66
:1005D000DFF834D0002103E00C4B5B58435004316A
:1005E0000B480C4B42189A42F6D30B4A02E0002308
:1005F00042F8043B094B9A42F9D300F0CBFE02F0DB
:10060000B9FF00F0FFFA704700000320E44900083A
:10061000000000207000002070000020F003002087
:10062000FEE700000120704708B502F08BFF16239B
:1006300003604FF0FF3008BD08B54FF0FF31FFF702
:10064000F3FFFEE7F8B50D461746002405E06E1CE3
:10065000AFF30080287001343546BC42F7DB3846E2
:10066000F8BD00BF70B51646002405E04D1C0878A3
:10067000AFF3008001342946B442F7DB304670BD49
:1006800008B50B4B1B6813B90A4A094B1A60084B93
:100690001A68131869468B4206D902F053FF0C23DF
:1006A00003604FF0FF3008BD01490B60104608BDE4
:1006B0008C000020F00300204FF0FF30704700BF97
:1006C0004FF400534B600020704700BF012070477B
:1006D0000020704730B58FB0002409940A940B9421
:1006E0000C940D940194314B1A6B42F010021A6372
:1006F0001A6B02F010020192019A02941A6B42F0F6
:1007000020021A631A6B02F020020292029A0394EA
:100710001A6B42F080021A631A6B02F08002039295
:10072000039A04941A6B42F004021A631A6B02F0E3
:1007300004020492049A05941A6B42F001021A63AF
:100740001A6B02F001020592059A06941A6B42F0A8
:1007500002021A631A6B02F002020692069A0794CA
:100760001A6B42F040021A631A6B02F040020792C1
:10077000079A08941A6B42F008021A631B6B03F085
:1007800008030893089B0A4D22461C21284601F0C5
:1007900061F81C23099301230A930B940C9409A973
:1007A000284600F063FF0FB030BD00BF00380240A4
:1007B0000010024010B50A4C0A4B2360002363600E
:1007C0000222A260E360A362E262236363632046C5
:1007D00000F0BAFE0121204600F0E6FE10BD00BF89
:1007E0007403002000B0024000B589B000220F4819
:1007F0000F4B03600123436082600423C360102316
:1008000003614021416180218161C26102624262D3
:1008100082620193029303930493059306930793D3
:1008200001A901F085FF09B05DF804FBB4030020C5
:10083000400100A038B50D4C0D4B23600D4B63609B
:100840000025A560E5604FF4804323616561A561E3
:10085000E5612562204601F003F82946204601F0B3
:10086000D9F82946204601F0F7F838BD20010020CC
:10087000005C0040A0860100F0B59BB03424224605
:1008800000210DEB040002F09BFE22460021684689
:1008900002F096FE2A4D2B4B2B6000246C60AC605E
:1008A000EC602C6107236B610323AB610E23EB61CA
:1008B00005262E624FF4A7736B62F523AB624FF4EB
:1008C000AA73EB62F7232B6385F8344085F8354033
:1008D00085F83640284601F0ADF90D940E940F943A
:1008E00010941194129413944FF4806714971596F2
:1008F0001694179418948DF864408DF865408DF81F
:10090000664022460DA9284601F00EFA0094019493
:100910000294039404940594069407970896099406
:100920000A940B948DF830408DF831408DF83240A8
:1009300001226946284601F0F7F91BB0F0BD00BF5F
:10094000CC0100200068014008B50B480B4B036048
:100950004FF48273436000238360C360036143618B
:100960004FF400728261C3610362436283620A23AF
:10097000C36201F0FFFE08BD740100200050014079
:1009800008B50848084B036042F20F734360002328
:10099000836044F24F62C2600361836102F01AF91E
:1009A00008BD00BFB40200200048014030B58DB042
:1009B0000024089409940A940B94019402940394DB
:1009C0000494059406940794134D144B2B6041F244
:1009D00093136B60AC606323EB602C61AC612846C1
:1009E00002F0F8F84FF48053089308A9284602F063
:1009F000DDF9284602F00AF960230193029403947A
:100A00000594224601A9284602F054F9284600F030
:100A1000EBFB0DB030BD00BFF402002000400140F0
:100A200008B50848084B03604FF4E13343600023E6
:100A30008360C36003610C2242618361C36102F081
:100A400057FB08BD740200200010014008B508489B
:100A5000084B03604FF4E133436000238360C360BD
:100A600003610C2242618361C36102F041FB08BD56
:100A7000340300200014014030B58FB02C4C227894
:100A80002C4901A803F086F821780D2911D085B2F0
:100A90000A290ED0284800F049F9284C2A4601A915
:100AA000204602F057FB01222149204602F076FB46
:100AB0003BE00A290AD1214C02222149204602F0BA
:100AC00049FB01221A49204602F068FB184B1B78AB
:100AD0000D2B2AD1194C02221949204602F03AFB6B
:100AE00001221349204602F059FB134800F00AF98D
:100AF00080B9114C114D642204F11401284602F012
:100B000029FB01220A49284602F048FB204600F052
:100B1000D7F80AE0094C11220A49204602F01AFBD4
:100B200001220349204602F039FB0FB030BD00BF5F
:100B30001C0100208C480008940000207402002052
:100B4000904800089448000870B5A0B030252A46A7
:100B5000002114A802F034FD00240F941094119485
:100B6000129413942A46214603A802F029FD019409
:100B7000224B1A6C42F080521A641B6C03F08053B3
:100B80000193019B02941E4B1A6842F440421A6082
:100B90001B6803F440430293029B012314934FF418
:100BA0008033159302251A954FF480031B93082672
:100BB0001C964FF4B4731D931E9504231F9314A821
:100BC00001F022F901F0DEF80F230F931095119434
:100BD0004FF4A05312934FF48053139305210FA8A1
:100BE00001F084FB03964FF4D873079309950C9496
:100BF00003A801F055FC20B070BD00BF00380240D2
:100C00000070004008B500F0F7FBFFF79DFFFFF70D
:100C100061FDFFF7CFFDFFF7E7FDFFF70BFEFFF7E5
:100C20002BFEFFF791FEFFF7C1FEFFF7A9FEFFF7CE
:100C3000F7FEFFF70BFF0648642200F1140100F0F5
:100C40000DF801220349044802F0A8FAFEE700BFAC
:100C5000940000201C0100207402002008B528B96F
:100C6000124B134A0921134802F04EFC29B9124BCA
:100C70000F4A0A210F4802F047FC2AB90F4B0C4AD1
:100C80000B210C4802F040FC48B151B15AB101604F
:100C9000C2600022026142608260012008BD002023
:100CA00008BD002008BD002008BD00BFA8480008FE
:100CB000E8470008B4480008DC480008E848000895
:100CC00008B528B90C4B0D4A1E210D4802F01CFC3A
:100CD000024670B1036903E011680020C854013373
:100CE000D1688B42F8DB00235360936013610120CD
:100CF00008BD002008BD00BFA8480008F84700084C
:100D0000B448000808B528B9054B064A3121064801
:100D100002F0FAFB03690BB9012008BD002008BDF1
:100D2000A84800080C480008B448000808B528B9CD
:100D30000F4B104A5521104802F0E6FB034698B1CC
:100D40000069DA68904211DA18685A6881545A6862
:100D500001325A60D9688A4201D100225A601A6968
:100D600001321A61012008BD002008BD002008BD25
:100D7000A84800084C480008B44800082DE9F04194
:100D800086B00023019302930393049305932D4BA4
:100D90001B68002B52D14FF001082A4BC3F800808A
:100DA00000260096284B9A6B42EA08029A639B6BD6
:100DB00003EA08030093009B4FF63F0301930227C9
:100DC0000297032504950C24059401A91F4800F0FF
:100DD0004DFCCDF80480029703960495059401A973
:100DE0001B4800F043FC48F233130193029703962B
:100DF0000495059401A9174800F038FC4FF6837359
:100E00000193029703960495059401A9124800F0F6
:100E10002DFC4CF2037301930297039604950594FD
:100E200001A90E4800F022FC60230193029703966B
:100E30000495059401A90A4800F018FC06B0BDE825
:100E4000F08100BF0C010020003802400014024075
:100E5000000802400018024000100240000C02404E
:100E60000004024082B0002100910B4B5A6C42F406
:100E700080425A645A6C02F480420092009A0191B6
:100E80001A6C42F080521A641B6C03F08053019379
:100E9000019B02B0704700BF003802400268094B56
:100EA0009A420DD182B000230193074B1A6B42F492
:100EB00000021A631B6B03F400030193019B02B051
:100EC000704700BF00B00240003802402DE9F043F7
:100ED00089B0002303930493059306930793026854
:100EE000224B9A423FD100250095214C236B43F0C1
:100EF00004032363236B03F004030093009B019519
:100F0000236B43F001032363236B03F0010301937D
:100F1000019B4FF4007303934FF01209CDF810902A
:100F20004FF00108CDF81480032706970426079692
:100F300003A9104800F09AFB4FF480730393CDF897
:100F40001090CDF814800697079603A90A4800F080
:100F50008DFB0295236C43F400032364236C03F49C
:100F600000030293029B09B0BDE8F083005C0040DF
:100F70000038024000080240000002402DE9F04124
:100F80008CB000230793089309930A930B9302688C
:100F9000564B9A4240F0A6800024009403F550433B
:100FA0005A6C42F080625A645A6C02F0806200927D
:100FB000009A01941A6B42F020021A631A6B02F035
:100FC00020020192019A02941A6B42F001021A6304
:100FD0001A6B02F001020292029A03941A6B42F019
:100FE00002021A631A6B02F002020392039A04943B
:100FF0001A6B42F040021A631A6B02F0400204922C
:10100000049A05941A6B42F004021A631A6B02F0F8
:1010100004020592059A06941A6B42F008021A63BC
:101020001B6B03F008030693069B4FF48063079342
:10103000022508950E260B9607A92D4800F016FBF1
:1010400041F658030793089509940A940B9607A94B
:10105000284800F00BFB03230793089509940A9492
:101060004FF00908CDF82C80234F07A9384600F02F
:10107000FDFA4FF470630793089509940A940B9650
:1010800007A9384600F0F2FA4FF40C63079308956D
:1010900009940A940B9607F5A05707A9384600F063
:1010A000E5FA4FF498630793089509940A940B9610
:1010B00007A9124800F0DAFA482307930895099423
:1010C0000A940B9607A90E4800F0D0FA4FF4A053EB
:1010D0000793089509940A94CDF82C8007A93846FF
:1010E00000F0C4FA0CB0BDE8F08100BF0068014018
:1010F00000140240000002400004024000080240C8
:10110000000C024000B589B00023039304930593BB
:10111000069307930268154B9A4223D1002101914F
:1011200003F568435A6C42F480125A645A6C02F414
:1011300080120192019A02911A6B42F020021A6306
:101140001B6B03F020030293029B4FF46073039325
:1011500002230493032306930523079303A904485A
:1011600000F084FA09B05DF804FB00BF00500140B4
:101170000014024000B583B00368184A934213D1AB
:1011800000210091164B5A6C42F480325A645B6C19
:1011900003F480330093009B0A46182000F06AF99C
:1011A000182000F099F915E00E4A934212D100215F
:1011B00001910B4B5A6C42F480225A645B6C03F42D
:1011C00080230193019B0A461A2000F053F91A204C
:1011D00000F082F903B05DF804FB00BF004001405D
:1011E000003802400048014000B587B00023019359
:1011F000029303930493059302680E4B9A4215D110
:10120000002300930C4B1A6B42F010021A631B6B05
:1012100003F010030093009B202301930223029309
:101220000323059301A9054800F020FA07B05DF8F3
:1012300004FB00BF004001400038024000100240A3
:1012400010B58AB00023059306930793089309937A
:1012500003682F4A93422BD1002401942D4B5A6CE2
:1012600042F010025A645A6C02F010020192019A84
:1012700002941A6B42F001021A631B6B03F0010324
:101280000293029B4FF4C06305930223069303234A
:1012900008930723099305A91F4800F0E7F92246A0
:1012A0002146252000F0E6F8252000F015F92DE074
:1012B0001A4A93422AD100240394164B5A6C42F0E6
:1012C00020025A645A6C02F020020392039A04949A
:1012D0001A6B42F040021A631B6B03F04003049345
:1012E000049B4FF48443059302230693032308933E
:1012F0000823099305A90A4800F0B8F922462146B7
:10130000472000F0B7F8472000F0E6F80AB010BD1B
:10131000001001400038024000000240001401406B
:101320000018024008B5FFF729FD08BD704700BF4F
:10133000FEE700BFFEE700BFFEE700BFFEE700BF1D
:10134000704700BF704700BF704700BF08B500F08E
:101350006DF808BD08B5024801F01EFB08BD00BFCE
:10136000F402002008B5024801F016FB08BD00BFDA
:10137000B402002008B5024801F0A0FF08BD00BF7C
:101380007402002008B5024801F098FF08BD00BFB4
:1013900034030020054BD3F8882042F47002C3F8D0
:1013A00088204FF000629A60704700BF00ED00E0B7
:1013B00010B504460E4B18784FF47A73B3FBF0F374
:1013C0000C4A1068B0FBF3F000F094F858B90F2CF9
:1013D0000BD8002221464FF0FF3000F04BF8044BB1
:1013E0005C60002010BD012010BD012010BD00BFB9
:1013F000040000200000002008B50B4B1A6842F4DE
:1014000000721A601A6842F480621A601A6842F424
:1014100080721A60032000F01BF80020FFF7C8FF5D
:10142000FFF720FD002008BD003C0240034A13687E
:10143000034909780B441360704700BFE80300209C
:1014400004000020014B1868704700BFE80300202B
:10145000074AD36823F4E0631B041B0C000200F46A
:10146000E060184340F0BF6040F40030D060704747
:1014700000ED00E030B4164BDB68C3F30223C3F188
:101480000704042C28BF04241D1D062D01D9DD1ED0
:1014900000E00025012303FA04F4013C2140A940A7
:1014A000AB40013B1A400A43002808DB1201D2B2CC
:1014B00000F1604000F5614080F8002305E000F095
:1014C0000F001201D2B2034B1A5430BC704700BF58
:1014D00000ED00E014ED00E0002808DB420900F018
:1014E0001F00012303FA00F0014B43F8220070476C
:1014F00000E100E00138B0F1807F0AD2064B58606D
:10150000F021064A82F823100020986007221A6012
:1015100070470120704700BF10E000E000ED00E0E0
:1015200090F83530DBB2022B03D0802343650120D5
:101530007047052380F835300268136823F00103F3
:1015400013600020704700BF58B310B5044690F8F0
:10155000393013F0FF0F04D1002380F83830FFF743
:101560009DFC022384F8393021680B6823F4403253
:10157000636813430B6021684B6B23F00702A36879
:1015800013434B6321680B6C23F47F5323F03F0319
:10159000E26813430B640020E063012384F83930D0
:1015A00010BD0120704700BF90F83830012B57D094
:1015B00030B4012380F83830022380F8393000EB52
:1015C0000113DA698B1C1B01C35842EA0343093A31
:1015D000012A07D88A1C00EB0212526802F07F42EF
:1015E000134305E08A1C00EB0212526843EA0263CF
:1015F000B9B90468656A1C4A2A40134363620268E9
:1016000000EB01139C699461DB69093B012B1FD836
:101610000268023100EB01114B6823F07F439362B3
:1016200016E00468E569104A2A401343E361026842
:1016300000EB01139C691461DB69093B012B07D89E
:101640000268023100EB01114B6823F07F43136203
:10165000012380F83930002380F83830184601E043
:101660000220704730BC7047F0FFFC002DE9F041CC
:1016700082B00023E0E001229A400C6802EA0405EF
:10168000AA4240F0D8804C68661E012E03D9112C66
:1016900001D0122C15D187684FEA430E032606FAB3
:1016A0000EF627EA0606CC6804FA0EF4344384608A
:1016B000446824EA02024C68C4F300149C402243AC
:1016C0004260C6685F000324BC40E44306EA0402AB
:1016D0008E68BE401643C6604A68022A01D0122AAC
:1016E00013D1DE08083650F8268003F007024FEACF
:1016F000820E0F2202FA0EF228EA020C0A6902FA9E
:101700000EF24CEA020240F82620066826404A689B
:1017100002F0030404FA07F2324302604A6812F04E
:10172000805F00F0888000220192464A546C44F4A5
:1017300080445464526C02F480420192019A9E08E3
:10174000B41C414A52F8247003F0030292000F24A3
:10175000944027EA04073D4CA04225D004F580645C
:10176000A04223D004F58064A04221D004F5806417
:10177000A0421FD004F58064A0421DD004F580640F
:10178000A0421BD004F58064A04219D004F5806407
:10179000A04217D004F58064A04215D004F58064FF
:1017A000A04213D1092412E0002410E001240EE02D
:1017B00002240CE003240AE0042408E0052406E0E7
:1017C000062404E0072402E0082400E00A2404FAC6
:1017D00002F23A4302361C4C44F826201C4A146894
:1017E000EA4304EA02064F6817F4803F01D045EA55
:1017F0000406174C2660646802EA04064F6817F472
:10180000003F01D045EA0406114C6660A46802EA74
:1018100004064F6817F4801F01D045EA04060C4CFB
:10182000A660E46822404E6816F4001F01D045EA25
:101830000402074CE26001330F2B7FF61CAF02B0AD
:10184000BDE8F0810038024000380140000002404D
:10185000003C01400AB18161704709048161704711
:10186000002800F0C980F8B5044690F83D3013F028
:10187000FF0F04D1002380F83C30FFF727FB24231F
:1018800084F83D302268136823F001031360226856
:10189000136843F4004313602268136823F4004381
:1018A000136000F0DDFD6268554B9A4205D8554B38
:1018B00098428CBF0023012304E0534B98428CBF15
:1018C00000230123002B40F09980504BA3FB002301
:1018D0009B0C21684A6822F03F021A434A6025683F
:1018E0002A6A22F03F02666845498E4201D80133D8
:1018F00008E04FF4967101FB03F34549A1FB031384
:101900009B09013313432B622568E96921F44F4198
:1019100021F0FF0166683A4B9E420AD8431E7000D0
:10192000B3FBF0F00130C0F30B00042838BF0420F3
:1019300035E0A3685BB9421E06EB4607B2FBF7F23F
:101940000132C2F30B02B2FA82F252090CE0421EDB
:1019500006EB860707EB8707B2FBF7F20132C2F30B
:101960000B02B2FA82F25209C2B953B9421E06EB17
:101970004600B2FBF0F00130C0F30B0343F400402B
:101980000DE0421E06EB860606EB8606B2FBF6F37A
:101990000133C3F30B0343F4404000E0012008434C
:1019A000E86121680B6823F0C002E069236A034301
:1019B00013430B6021688B6823F4034222F0FF027B
:1019C0002069E368034313438B602168CB6823F0ED
:1019D000FF026069A36903431343CB602268136865
:1019E00043F00103136000202064202384F83D307D
:1019F000206384F83E00F8BD012070470120F8BD47
:101A0000A08601007F841E00FF083D0083DE1B438B
:101A1000D34D621090F83D30DBB2202B1AD1242335
:101A200080F83D300268136823F0010313600268F8
:101A3000536A23F01003536203685A6A11435962D0
:101A40000268136843F001031360202380F83D30DF
:101A5000002070470220704790F83D30DBB2202B09
:101A600019D1242380F83D300268136823F0010364
:101A700013600268536A9BB223F00F03194389B2C3
:101A800051620268136843F001031360202380F859
:101A90003D30002070470220704700BFF0B54D6810
:101AA0000468E368C3F30B431D44D2011444D4F823
:101AB000883003F47043C4F88830046816190B6842
:101AC000E468C4F30B442344013343EA0543C6F8F6
:101AD0008830CD680468E368C3F30A031D441444E6
:101AE000D4F88C3003F47043C4F88C3004681619B1
:101AF0008B68E468C4F30A042344013343EA0543D2
:101B0000C6F88C3003681344D3F8944024F00704DB
:101B1000C3F89440036813440C69C3F8944091F8E7
:101B200031E091F832308F6906681644D6F89C404F
:101B30000025C6F89C500668164491F8304044EAE7
:101B40000E2444EA034343EA0763C6F89C30036863
:101B50001344D3F8984024F0FF04C3F89840036876
:101B600013444C69C3F8984003681344D3F8A04069
:101B700024F4E06424F00704C3F8A040036813448D
:101B8000CE690C6A3443C3F8A04003681344D3F809
:101B9000AC40C3F8AC50036813444C6AC3F8AC4083
:101BA0000B695BB1012B0BD0042B0BD0022B0BD09C
:101BB000032B0BD0072B0BD102270AE0042708E0E8
:101BC000032706E0022704E0022702E0022700E0E4
:101BD000012704681444D4F8B03003F0E023C4F8BB
:101BE000B0300468144404F184058C6A04FB07F6E1
:101BF0004B680C681C1B04FB07F3033343EA0643E2
:101C0000EB6203681344D3F8B44024F4FF6424F077
:101C10000704C3F8B44003681344C96AC3F8B41096
:101C200003681A44D2F8843043F00103C2F88430C8
:101C3000F0BD00BF002873D038B5044690F8A1303D
:101C400013F0FF0F04D1002380F8A030FFF796F9BE
:101C5000022384F8A1302268936923F070439361D2
:101C6000216888696368A2681343E2681A4323699C
:101C7000134303438B6121688A682A4B1A408A60A8
:101C8000656921688868A26942EA054202438A6060
:101C90002168CA681A40CA60E5692168C868226A72
:101CA00042EA05420243CA6021680A691A400A6191
:101CB000656A21680869A26A42EA054202430A612C
:101CC000226851690B405361E06A22685169236BB5
:101CD00043EA00430B43536194F8353094F83620BF
:101CE00012042068C16A01F07F41C1622168C86A9C
:101CF00042EA032294F8343013430343CB62226850
:101D0000536B43F0060353632268936943F0010366
:101D100093610020C4F8A400012384F8A13038BDE9
:101D20000120704700F800F090F8A030012B27D078
:101D30002DE9F04196460F4606464FF0010880F81F
:101D4000A080022380F8A130342404FB020438343C
:101D50000D460FCD0FC40FCD0FC40FCD0FC42B6890
:101D60002360724639463046FFF798FE3368C3F861
:101D7000248086F8A180002086F8A000BDE8F081CC
:101D80000220704710B582B0002301931A4B1A6CE1
:101D900042F080521A641B6C03F080530193019B44
:101DA0000122164B1A60FFF74DFB044605E0FFF7D2
:101DB00049FB001BB0F57A7F18D8114B5B6813F410
:101DC000803FF4D001220F4B1A60FFF73BFB044623
:101DD00005E0FFF737FB001BB0F57A7F08D8084B0A
:101DE0005B6813F4003FF4D0002002E0032000E021
:101DF000032002B010BD00BF0038024040000E4278
:101E00000070004044000E42002800F0D78170B5F9
:101E100082B00446036813F0010F5AD0A04B9B68B0
:101E200003F00C03042B0AD09D4B9B6803F00C03BA
:101E3000082B0DD19A4B5B6813F4800F08D0984B98
:101E40001B6813F4003F44D06368002B41D1B7E115
:101E50006368B3F5803F05D1914A136843F480333A
:101E6000136015E0B3F5A02F09D18D4B1A6842F429
:101E700080221A601A6842F480321A6008E0884BA7
:101E80001A6822F480321A601A6822F480221A60DA
:101E900063687BB1FFF7D6FA054605E0FFF7D2FA93
:101EA000401B642800F28E817D4B1B6813F4003FB9
:101EB000F4D00EE0FFF7C6FA054605E0FFF7C2FAD8
:101EC000401B642800F28081754B1B6813F4003FAF
:101ED000F4D1236813F0020F50D0714B9B6813F0BC
:101EE0000C0F0AD06E4B9B6803F00C03082B16D125
:101EF0006B4B5B6813F4800F11D1694B1B6813F0B7
:101F0000020F03D0E368012B40F06081644A13683C
:101F100023F0F803216943EAC10313602EE0E3686C
:101F2000D3B101225F4B1A60FFF78CFA054605E03A
:101F3000FFF788FA401B022800F24A81584B1B68C1
:101F400013F0020FF4D0564A136823F0F803216906
:101F500043EAC103136011E00022524B1A60FFF7FD
:101F600071FA054605E0FFF76DFA401B022800F202
:101F700031814B4B1B6813F0020FF4D1236813F02F
:101F8000080F26D0636993B10122474B1A60FFF70F
:101F900059FA054605E0FFF755FA401B022800F202
:101FA0001B813F4B5B6F13F0020FF4D011E0002256
:101FB0003D4B1A60FFF746FA054605E0FFF742FA87
:101FC000401B022800F20A81354B5B6F13F0020FB1
:101FD000F4D1236813F0040F7DD0314B1B6C13F048
:101FE000805F0DD1002301932D4B1A6C42F080527B
:101FF0001A641B6C03F080530193019B012500E0E0
:1020000000252A4B1B6813F4807F13D1274A1368DD
:1020100043F480731360FFF715FA064605E0FFF7F7
:1020200011FA801B022800F2DB80204B1B6813F49E
:10203000807FF4D0A368012B05D1194A136F43F0B8
:102040000103136714E0052B09D1154B1A6F42F0F9
:1020500004021A671A6F42F001021A6708E0104B77
:102060001A6F22F001021A671A6F22F004021A672F
:10207000A3688BB1FFF7E6F9064607E0FFF7E2F940
:10208000801B41F28833984200F2AC80044B1B6FF6
:1020900013F0020FF2D018E0FFF7D4F906460FE074
:1020A0000038024000004742800E47420070004066
:1020B000FFF7C8F9801B41F28833984200F2948000
:1020C000554B1B6F13F0020FF2D125B1524A136C1E
:1020D00023F080531364A369002B00F087804E4ADD
:1020E000926802F00C02082A48D0022B33D1002259
:1020F0004A4B1A60FFF7A6F9054604E0FFF7A2F97C
:10210000401B022874D8444B1B6813F0007FF5D1A4
:10211000E269236A1343626A43EA8213A26A52089D
:10212000013A43EA0243E26A43EA02633A4A5360ED
:1021300001223A4B1A60FFF785F9044604E0FFF7E5
:1021400081F9001B022855D8334B1B6813F0007F20
:10215000F5D000205DE00022304B1A60FFF772F9E5
:10216000044604E0FFF76EF9001B022844D82A4B0E
:102170001B6813F0007FF5D100204AE0012B3DD011
:10218000254B5B6803F48001E269914238D103F08A
:102190003F02216A8A4235D1616A47F6C0721A400D
:1021A0008A4231D103F44032A16A8A422ED103F02F
:1021B0007063E26A93422BD001202AE0012070472D
:1021C000012026E0032024E0032022E0012020E07B
:1021D00003201EE003201CE003201AE0032018E087
:1021E000032016E0032014E0032012E0002010E09A
:1021F00003200EE003200CE003200AE0012008E0A9
:10220000012006E0012004E0012002E0012000E0BE
:10221000002002B070BD00BF00380240600047429D
:1022200038B52F4B9B6803F00C03042B55D0082BBB
:1022300001D02C4838BD2A4B5A6802F03F025B6837
:1022400013F4800F20D0264B5B68C3F38813DC00A7
:102250000025690141EAD4616001041B61EB0505B9
:10226000A90141EA9461A001001B61EB0501C018BE
:1022700041F100014B0243EAD05344022046194683
:102280000023FDF7C3FF1FE0154B5B68C3F3881302
:10229000DC000025690141EAD4616001041B61EBA7
:1022A0000505A90141EA9461A001001B61EB05014C
:1022B000C01841F100018B0243EA9053840220468A
:1022C00019460023FDF7A2FF054B5B68C3F30143EA
:1022D00001335B00B0FBF3F038BD034838BD00BFED
:1022E000003802400024F40000127A00002800F0B8
:1022F000988070B50446524B1B6803F00F038B4265
:1023000008D2CBB24E4A1370136803F00F03994200
:1023100040F08980236813F0020F17D013F0040FE8
:1023200004D0484A936843F4E0539360236813F061
:10233000080F04D0434A936843F4604393604148D4
:10234000836823F0F002A368134383600D4623687B
:1023500013F0010F2FD06268012A05D1394B1B6899
:1023600013F4003F0ED160E0931E012B05D8354BCE
:102370001B6813F0007F05D159E0324B1B6813F046
:10238000020F56D02F498B6823F0030313438B6051
:10239000FFF758F8064606E0FFF754F8801B41F2B5
:1023A0008833984247D8274B9B6803F00C03626838
:1023B000B3EB820FF0D1224B1B6803F00F039D4259
:1023C00007D2EAB21E4B1A701B6803F00F039D423E
:1023D00033D1236813F0040F06D01A498B6823F415
:1023E000E052E36813438B60236813F0080F07D0B3
:1023F000144A936823F46043216943EAC10393605C
:10240000FFF70EFF0F4B9B68C3F303130E4AD35C19
:10241000D8400E4B18600E4B1868FEF7C9FF00201D
:1024200070BD01207047012070BD012070BD0120EA
:1024300070BD012070BD032070BD012070BD00BFC4
:10244000003C0240003802407448000800000020B0
:1024500008000020014B1868704700BF00000020F2
:1024600008B5FFF7F7FF044B9B68C3F38223034AC9
:10247000D35CD84008BD00BF003802408448000843
:1024800008B5FFF7E7FF044B9B68C3F34233034AE9
:10249000D35CD84008BD00BF003802408448000823
:1024A00030B583B00446036813F0430F58D00022C0
:1024B000994B1A60FEF7C6FF054605E0FEF7C2FF1E
:1024C000401B022800F21981944B1B6813F0006F27
:1024D000F4D1236813F0010F07D06268A3681B07CB
:1024E00043EA82138D4AC2F88430236813F0020F46
:1024F00015D08A49D1F884306068E268120642EA51
:10250000801203F0E0431343C1F88430D1F88C30DB
:1025100023F01F02E369013B1343C1F88C302368A9
:1025200013F0400F0AD06268E3681B0643EA821387
:10253000A26843EA0273794AC2F884300122764BDA
:102540001A60FEF77FFF054605E0FEF77BFF401BA4
:10255000022800F2D480714B1B6813F0006FF4D096
:10256000236813F00C0F56D000226D4B1A60FEF753
:1025700069FF054605E0FEF765FF401B022800F2F3
:10258000C080664B1B6813F0005FF4D1236813F022
:10259000040F16D06149D1F88830206962691206AB
:1025A00042EA801203F0E0431343C1F88830D1F8C7
:1025B0008C3023F4F852236A013B42EA0323C1F82A
:1025C0008C30236813F0080F14D0544AD2F88830A6
:1025D000216903F0706343EA8113A16943EA01733F
:1025E000C2F88830D2F88C3023F44031636A0B4350
:1025F000C2F88C3001224A4B1A60FEF723FF0546D1
:1026000004E0FEF71FFF401B02287CD8434B1B68E9
:1026100013F0005FF5D0236813F0200F63D0002380
:1026200001933E4B1A6C42F080521A641B6C03F00B
:1026300080530193019B3B4A136843F480731360FA
:10264000FEF700FF054604E0FEF7FCFE401B0228F3
:102650005BD8344B1B6813F4807FF5D02F4B1B6F76
:1026600013F4407322D0A26A02F4407293421DD048
:102670002A4B1A6F22F440722B4901200860002077
:1026800008601A671B6F13F0010F0FD0FEF7DAFE18
:10269000054606E0FEF7D6FE401B41F2883398421D
:1026A00035D81E4B1B6F13F0020FF3D0A36A03F44F
:1026B0004072B2F5407F0AD118498A6822F4F812B4
:1026C00023F0704323F4407313438B6004E0134AF8
:1026D000936823F4F8139360104A116FA36AC3F34D
:1026E0000B030B431367236813F0100F11D094F8FA
:1026F0002C200E4B1A6000200CE003200AE003207F
:1027000008E0032006E0032004E0032002E00320A9
:1027100000E0002003B030BD6800474200380240AE
:102720007000474200700040400E4742E0114742AF
:10273000E8B138B504460D4690F82C3013F0FF0F81
:1027400004D1002380F82D30FEF7ECFD022384F83D
:102750002C30211D206800F04BFE6268294620685D
:1027600000F084FE012384F82C30002038BD0120C5
:10277000704700BF00283CD010B504460023836298
:1027800090F8513013F0FF0F04D1002380F850303F
:10279000FEF7B8FC022384F851302268136823F056
:1027A0004003136021686268A3681A43E3681A4310
:1027B00023691A4363691A43A36903F4007313433B
:1027C000E2691343226A1343A26A1A430A6021682A
:1027D000638B03F00402636A13434B602268D3697E
:1027E00023F40063D36100206065012384F8513035
:1027F00010BD0120704700BF70B4036A23F00103CD
:102800000362036A4668826922F073020C6842EA36
:10281000040523F002028B6813430F4CA04202D040
:102820000E4A904205D123F00803CA68134323F0EF
:102830000403094CA04202D0084A904205D126F474
:1028400040764A6932438E691643466085614A681C
:102850004263036270BC7047000001400004014005
:1028600030B4036A23F480730362036A4568C26963
:1028700022F073020C68224323F400738C6843EA4D
:102880000423124CA04203D004F58064A04206D178
:1028900023F40063CC6843EA042323F480630B4CE5
:1028A000A04203D004F58064A04207D125F440552E
:1028B0004C6945EA04158C6945EA04154560C26116
:1028C0004A68C263036230BC704700BF0000014029
:1028D00030B4036A23F480530362036A4468C26914
:1028E00022F4E6420D6842EA052223F400538D6883
:1028F00043EA0533094DA84203D005F58065A84297
:1029000004D124F480444D6944EA85144460C261D2
:102910004A680264036230BC704700BF0000014097
:1029200010B4036A046A24F001040462846924F088
:10293000F00444EA021223F00A031943826101629F
:102940005DF8044B704700BF10B4036A23F0100316
:1029500003628469036A24F4704444EA023223F077
:10296000A00343EA0111826101625DF8044B7047E4
:10297000836823F07003194341F0070181607047B9
:10298000704700BF704700BF704700BF704700BF6F
:10299000704700BF704700BF10B5044603681A694E
:1029A00012F0020F17D0DA6812F0020F13D06FF096
:1029B00002021A610123037703689B6913F0030F76
:1029C00002D0FFF7E3FF04E0FFF7DEFF2046FFF74A
:1029D000DFFF0023237723681A6912F0040F19D050
:1029E000DA6812F0040F15D06FF004021A610223A6
:1029F000237723689B6913F4407F03D02046FFF7B9
:102A0000C5FF05E02046FFF7BFFF2046FFF7C0FFE8
:102A10000023237723681A6912F0080F19D0DA68A7
:102A200012F0080F15D06FF008021A610423237703
:102A30002368DB6913F0030F03D02046FFF7A6FFDE
:102A400005E02046FFF7A0FF2046FFF7A1FF002387
:102A5000237723681A6912F0100F19D0DA6812F080
:102A6000100F15D06FF010021A6108232377236826
:102A7000DB6913F4407F03D02046FFF787FF05E0B2
:102A80002046FFF781FF2046FFF782FF00232377D0
:102A900023681A6912F0010F09D0DA6812F0010FE9
:102AA00005D06FF001021A612046FFF76BFF236823
:102AB0001A6912F0800F09D0DA6812F0800F05D081
:102AC0006FF080021A61204600F0E4F923681A6969
:102AD00012F0400F09D0DA6812F0400F05D06FF005
:102AE00040021A612046FFF755FF23681A6912F069
:102AF000200F09D0DA6812F0200F05D06FF0200205
:102B00001A61204600F0C4F910BD00BF0368304AC6
:102B1000904212D0B0F1804F0FD0A2F57C4290428B
:102B20000BD002F58062904207D002F5806290429D
:102B300003D002F57842904203D123F070034A6833
:102B40001343234A90422AD0B0F1804F27D0A2F5F8
:102B50007C42904223D002F5806290421FD002F561
:102B6000806290421BD002F57842904217D002F565
:102B70007052904213D002F5806290420FD002F55D
:102B8000806290420BD0A2F59832904207D002F5B5
:102B90008062904203D002F58062904203D123F418
:102BA0004073CA68134323F080034A6913430360E8
:102BB0008B68C3620B688362054B984203D003F5B0
:102BC0008063984201D10B6903630123436170471D
:102BD00000000140B8B110B5044690F83D3013F044
:102BE000FF0F04D1002380F83C30FEF7C3FA022324
:102BF00084F83D30211D2068FFF788FF012384F809
:102C00003D30002010BD0120704700BFB8B110B5A5
:102C1000044690F83D3013F0FF0F04D1002380F8F4
:102C20003C30FFF7ADFE022384F83D30211D2068C3
:102C3000FFF76CFF012384F83D30002010BD012018
:102C4000704700BF30B4036A23F010030362036AC5
:102C50004468826922F4E6420D6842EA052223F0C4
:102C600020038D6843EA0513114DA84203D005F5F2
:102C70008065A84206D123F08003CD6843EA05139E
:102C800023F040030A4DA84203D005F58065A84211
:102C900007D124F440644D6944EA85048D6944EA0F
:102CA0008504446082614A688263036230BC704775
:102CB0000000014038B590F83C30012B66D00D463D
:102CC0000446012380F83C30022380F83D300C2A72
:102CD00055D8DFE802F0075454541A5454542E5473
:102CE000545441000068FFF787FD2268936943F060
:102CF000080393612268936923F0040393612268B7
:102D000091692B690B43936139E00068FFF79AFFE3
:102D10002268936943F4006393612268936923F402
:102D20008063936122689369296943EA012393616F
:102D300025E00068FFF794FD2268D36943F008039B
:102D4000D3612268D36923F00403D3612268D16977
:102D50002B690B43D36112E00068FFF7B9FD2268CD
:102D6000D36943F40063D3612268D36923F4806399
:102D7000D3612268D369296943EA0123D36101231E
:102D800084F83D30002084F83C0038BD022038BD76
:102D900010B4846824F47F4442EA0323194344EACC
:102DA000010383605DF8044B704700BF90F83C302E
:102DB000012B6AD010B50446012380F83C30022371
:102DC00080F83D300268936823F47F4323F0770353
:102DD00093600B68402B43D00AD8102B4AD002D8FE
:102DE000002B47D04AE0202B44D0302B42D045E086
:102DF000602B2BD002D8502B1ED03FE0702B03D07D
:102E0000B3F5005F0CD039E0CB684A688968006888
:102E1000FFF7BEFF2268936843F0770393602DE0CD
:102E2000CB684A6889680068FFF7B2FF2268936838
:102E300043F48043936021E0CA6849680068FFF763
:102E40006FFD50212068FFF793FD17E0CA684968BD
:102E50000068FFF779FD60212068FFF789FD0DE02C
:102E6000CA6849680068FFF75BFD40212068FFF7EA
:102E70007FFD03E019462068FFF77AFD012384F8FF
:102E80003D30002084F83C0010BD0220704700BF98
:102E9000704700BF704700BF0268D36823F4907387
:102EA000D3600268536923F001035361202380F843
:102EB0003A30704790F83930DBB2212B2BD1836840
:102EC000B3F5805F0FD1036A02681B88C3F3080360
:102ED000536003691BB9036A0233036209E0036AA2
:102EE0000133036205E00268036A591C01621B7822
:102EF0005360C38C9BB2013B9BB2C3846BB9026825
:102F0000D36823F08003D3600268D36843F04003A2
:102F1000D36000207047022070470020704700BF38
:102F2000F8B5044601680B6923F44052C3681343A3
:102F30000B6181680369194343691943C3691943E4
:102F40000068C26822F4164323F00C030B43C360ED
:102F500021684B6923F44072A36913434B61E36911
:102F6000B3F5004F61D123685F4A934203D002F565
:102F7000806293422CD1FFF783FA2568002106185E
:102F800041EB010736184F41FB0043EA5673F2004C
:102F900016461F466268002392185B4180197941EA
:102FA000FDF734F9514BA3FB00125109642202FBD7
:102FB0001102D2003232A3FB02235B095A0002F451
:102FC000F87202EB011203F007031344AB60F8BD83
:102FD000FFF746FA25680021061841EB010736186D
:102FE0004F41FB0043EA5673F20016461F466268E3
:102FF000002392185B4180197941FDF707F93B4B9B
:10300000A3FB00125109642202FB1102D2003232EA
:10301000A3FB02235B095A0002F4F87202EB0112CF
:1030200003F007031344AB60F8BD23682E4A9342B4
:1030300003D002F5806293422AD1FFF721FA256876
:103040000021061841EB010736184F41FB0043EA07
:103050005673F20016461F4663689A009B0F80194C
:103060007941FDF7D3F8214BA3FB002149096422E4
:1030700002FB110212013232A3FB02235B0903F0AF
:10308000F00202EB011103F00F030B44AB60F8BD3B
:10309000FFF7E6F925680021061841EB010736180D
:1030A0004F41FB0043EA5673F20016461F46636821
:1030B0009A009B0F80197941FDF7A8F80B4BA3FBF1
:1030C00000214909642202FB110212013232A3FBE2
:1030D00002235B0903F0F00202EB011103F00F037E
:1030E0000B44AB60F8BD00BF001001401F85EB51E1
:1030F00068B310B5044690F8393013F0FF0F04D1CF
:10310000002380F83830FEF79BF8242384F8393008
:103110002268D36823F40053D3602046FFF700FFF2
:103120002268136923F4904313612268536923F0E2
:103130002A0353612268D36843F40053D36000200C
:10314000E063202384F8393084F83A3010BD012040
:10315000704700BF90F83930DBB2202B16D1B9B1DF
:10316000C2B190F83830012B16D001628284C2843B
:103170000023C363212280F8392080F838300168A9
:10318000CA6842F08002CA60184670470220704741
:1031900001207047012070470220704790F83A30B4
:1031A000DBB2202B20D109B312B390F83830012BB9
:1031B00020D081628285C2850023C363222280F8E9
:1031C0003A2080F838300168CA6842F48072CA60D8
:1031D00001684A6942F001024A610168CA6842F026
:1031E0002002CA60184670470220704701207047CD
:1031F0000120704702207047704700BF08B5016882
:10320000CB6823F04003CB60202380F83930FFF7F0
:10321000F3FF002008BD00BF08B590F83A30DBB2DC
:10322000222B44D18368B3F5805F13D1826A03698E
:1032300043B903685B68C3F308031380836A0233EE
:10324000836218E003685B68DBB21380836A013332
:10325000836210E0036933B9836A5A1C8262026890
:1032600052681A7007E0826A531C836203685B68C5
:1032700003F07F031370C38D9BB2013B9BB2C385E8
:10328000BBB90268D36823F02003D3600268D36817
:1032900023F48073D3600268536923F00103536100
:1032A000202380F83A30FDF7E7FB002008BD02201C
:1032B00008BD002008BD00BF704700BF10B5044620
:1032C00002681368D168526913F00F0009D113F036
:1032D000200F06D011F0200F03D02046FFF79CFFEF
:1032E00010BD002865D012F0010202D111F4907FC8
:1032F0005FD013F0010F06D011F4807F03D0E06B94
:1033000040F00100E06313F0040F04D01AB1E06B49
:1033100040F00200E06313F0020F04D01AB1E06B3A
:1033200040F00400E06313F0080F07D011F0200F05
:1033300000D11AB1E26B42F00802E263E26B002AAC
:103340004AD013F0200F05D011F0200F02D02046F4
:10335000FFF762FF23685B6903F04003E26B12F042
:10336000080F00D1FBB12046FFF796FD23685A698C
:1033700012F0400F13D05A6922F040025A61636B79
:103380004BB1164A1A65606BFEF7CAF820B3606B42
:10339000036D984710BD2046FFF78EFF10BD2046F5
:1033A000FFF78AFF10BD2046FFF786FF0023E36387
:1033B00010BD13F0800F06D011F0800F03D020460F
:1033C000FFF778FD10BD13F0400F05D011F0400F4E
:1033D00002D02046FFF712FF10BD00BFE133000806
:1033E00008B5806B0023C385C384FFF765FF08BD64
:1033F00030B40B68012B18D0036823F4FF4424F089
:103400007F044A688B681A43CB681A430B691A43D6
:103410004B691A438B691A43CB691A430B6A1343EE
:103420004A6A1343234303601CE0046824F4F8420F
:10343000CC690B6A1C434B6A234342EA030443688A
:1034400023F4FF4525F07F054A688B681A43CB6853
:103450001A430B691A434B6913438A6913432B437D
:1034600004604360002030BC704700BFF0B5012A03
:1034700020D0836803F0704E0B685A1E4E68013EE0
:1034800042EA06178D68013D47EA0526CC68013CF3
:1034900046EA04350A69013A45EA02444B69013BB0
:1034A00044EA03528B69013B42EA03634EEA030399
:1034B000836026E0876827F4700222F47042CF68A8
:1034C000013F4B69013B1B0543EA073342EA03070F
:1034D000C36803F0704E0B685E1E4C68013C46EA00
:1034E00004158A68013A45EA02240B69013B44EA63
:1034F00003428B69013B42EA03634EEA03038760A0
:10350000C3600020F0BD00BF1FB51C46094B1B68FF
:103510000546D86812B9084B1A4600E0074B0292DC
:103520008DE80A0022462B46054900F011F800F00C
:1035300017FC00BF6C0000203B4900080049000850
:103540000D490008014B1868704700BF6C0000204F
:103550000EB403B5014603AB054853F8042B0068CD
:10356000019300F05FF802B05DF804EB03B0704720
:103570006C00002070B50E4B0E4CE41AA410002510
:103580001E46A54204D056F8253098470135F8E785
:1035900001F01EF9084C094BE41AA41000251E4640
:1035A000A54204D056F8253098470135F8E770BD9C
:1035B000DC490008DC490008E0490008DC49000853
:1035C00002440346934202D003F8011BFAE7704716
:1035D0009368013B002B10B4936009DA9469A3420D
:1035E00002DBCBB20A2B03D15DF8044B00F0F6BA34
:1035F0001368581C10601970C8B25DF8044B70470E
:10360000F8B506460F461446D518AC4208D03A46DF
:1036100014F8011B3046FFF7DBFF431CF5D100E037
:103620000020F8BD2DE9F04F9DB00C4617460393DE
:10363000064618B183690BB900F08CFC7F4B9C42A5
:1036400001D1746808E07E4B9C4201D1B46803E06C
:103650007C4B9C4208BFF468A38918070CD52369EA
:1036600053B10023099320238DF8293030238DF89E
:103670002A30DFF8D4B144E02146304600F002FBA6
:103680000028EED04FF0FF30D5E0039A111D1268EC
:103690000391002A80F28C80524243F0020007928C
:1036A000049098F800302E2B00F08480032298F8C4
:1036B00000106548FCF73CFF48B14023CBEB00000D
:1036C00003FA00F0049B1843049008F1010898F8ED
:1036D00000105E488DF82810062208F10107FCF75B
:1036E00027FF002800F09580594B002B40F0888080
:1036F000039B073323F0070308330393099B5344C9
:103700000993B846454615F8013B1BB9B8EB0709C4
:103710000FD003E0252BF9D0A846F3E74B463A46F5
:1037200021463046FFF76CFF01307FD0099B4B44A8
:10373000099398F80030002B78D000234FF0FF3227
:1037400004930793059206938DF853301A9301273B
:10375000052229783F48FCF7EBFE05F10108049BA0
:1037600038B13C4A801A07FA00F0184304904546E5
:10377000EEE7D90644BF20228DF853201A0744BF34
:103780002B228DF853202A782A2A3FF47EAF079AFD
:1037900000210A20A846013598F80030303B092B5B
:1037A00003D800FB02320121F4E700293FF479AF8E
:1037B000079276E798F801302A2B0BD1039B1A1D4C
:1037C0001B680392002BB8BF4FF0FF3308F10208CB
:1037D00005936BE70023059308F1010019460A25BC
:1037E0008046013098F80020303A092A03D805FBBA
:1037F00001210123F4E7002B3FF458AF059155E771
:1038000003AB00932246144B04A93046AFF300806B
:1038100007E003AB009322460F4B04A9304600F0AB
:1038200093F8B0F1FF3F82467FF468AFA3895B064F
:103830003FF528AF09981DB0BDE8F08F7449000826
:1038400094490008B4490008464900084A4900085C
:103850000000000040490008013600082DE9F0474B
:1038600091461F460A698B68DDF820809342B8BFF5
:103870001346C9F8003091F8432006460C4612B1B1
:103880000133C9F800302368990642BFD9F80030E7
:103890000233C9F80030256815F0060510D104F18F
:1038A000190A07E00123524639463046C047013025
:1038B0001AD00135E368D9F800209B1A9D42F1DB4C
:1038C00094F843302268003318BF012392060FD5C5
:1038D000E1185A1C302081F84300224494F8451026
:1038E00082F84310023303E04FF0FF30BDE8F08769
:1038F00004F1430239463046C0470130F4D0226813
:10390000D9F80050E36802F00602042A08BF5D1BE4
:103910002269A3680CBF25EAE57500259342C4BF60
:103920009B1AED184FF000091A344D4509D00123B8
:10393000224639463046C0470130D5D009F1010949
:10394000F3E70020BDE8F0872DE9F04317460A7E33
:1039500085B06E2A984606460C460C9B01F1430E34
:1039600000F0AE8011D8632A22D009D8002A00F0D6
:10397000BB80582A40F0CA8081F84520834955E031
:10398000642A1ED0692A1CD0C0E0732A00F0B080DF
:1039900009D86F2A2ED0702A40F0B8800A6842F009
:1039A00020020A603EE0752A24D0782A3AD0ADE0A1
:1039B0001A6801F14205111D1960136884F842303C
:1039C000A8E021681A6811F0800F02D0111D19605B
:1039D00008E011F0400F02F10401196002D0B2F9C1
:1039E000003000E01368002B3CDA2D225B4284F8A3
:1039F000432037E021681A6811F0800F02D0111DB2
:103A0000196007E011F0400F02F10401196001D0C4
:103A1000138800E01368227E5C496F2A14BF0A22D3
:103A200008221BE078225A4984F845202268186849
:103A300012F0800F00F104051D6003D1550601D579
:103A4000038800E00368D00744BF42F020022260F0
:103A50001BB9226822F0200222601022002084F884
:103A6000430001E049490A226568A560002D08DB92
:103A7000206820F0040020602BB9002D7DD1754610
:103A80000CE0002B79D07546B3FBF2F002FB10334B
:103A9000CB5C05F8013D03460028F5D1082A0BD17F
:103AA0002368DA0708D5236962689A42DEBF3023AB
:103AB00005F8013C05F1FF35C5EB0E0323612EE04F
:103AC00008681A68496910F0800F03D0101D18604B
:103AD000136808E010F0400F02F10400186013684A
:103AE00001D0198000E0196000232361754616E0BB
:103AF0001A68111D19601568626800212846FCF7D4
:103B000017FD08B1401B6060636804E004F14205E2
:103B100084F8422001232361002384F84330CDF848
:103B200000803B4603AA21463046FFF797FE01304E
:103B300002D14FF0FF3026E023692A46394630464D
:103B4000C0470130F5D023689B0710D5002504F14C
:103B5000190907E001234A4639463046C04701307B
:103B6000E7D00135E368039A9B1A9D42F2DBE068D7
:103B7000039B9842B8BF184605E00B7884F84230A2
:103B800004F142058AE705B0BDE8F0835149000819
:103B9000624900080EB400B59CB04FF402711DAB31
:103BA000ADF81410029006906FF000410A4804919D
:103BB00007914FF6FF7153F8042BADF8161000680B
:103BC000019302A900F002FC029B00221A701CB0B3
:103BD0005DF804EB03B070476C000020F8B50F46A9
:103BE0001446054618B183690BB900F0B3F9224BAE
:103BF0009C4201D16C6808E0204B9C4201D1AC682A
:103C000003E01F4B9C4208BFEC68A369A360A38933
:103C10001A0709D523693BB123682069181A63691B
:103C20009842FEB20FDB08E02146284600F02AF851
:103C30000028F1D04FF0FF361BE02146284600F067
:103C40001FF90028F6D1A368013BA36023685A1C22
:103C500022601F7063690130984204D0A389DB079A
:103C600007D50A2E05D12146284600F009F900287B
:103C7000E0D13046F8BD00BF7449000894490008FF
:103C8000B4490008324B70B51D6806460C4625B194
:103C9000AB6913B9284600F05DF92E4B9C4201D167
:103CA0006C6808E02C4B9C4201D1AC6803E02B4BC4
:103CB0009C4208BFEC68B4F90C309AB215071DD4C9
:103CC000D00602D4092232603AE0510712D5616B66
:103CD00041B104F14403994202D0304600F04AFA5F
:103CE00000236363A38923F02403A381002363607B
:103CF00023692360A38943F00803A38123694BB997
:103D0000A38903F42073B3F5007F03D02146304626
:103D100000F0CEF9A28912F0010305D00023A360C0
:103D200063695B42A36103E0920758BF6369A360C4
:103D300023695BB9B4F90C3003F0800080B230B174
:103D400043F04003A3814FF0FF3070BD002070BDF1
:103D50006C0000207449000894490008B449000828
:103D600008B5062000F060FC0120FCF765FC0000AF
:103D70008A892DE9F041054610070C4659D44B6855
:103D8000002B02DC0B6C002B17DDE66AAEB102F4EF
:103D90008052002392B22F682B600AB1606D15E04B
:103DA000216A01232846B047411C0FD12B686BB113
:103DB0001D2B01D0162B03D12F600020BDE8F08110
:103DC000A38943F04003A381BDE8F081A3895A078A
:103DD00005D56368C01A636B0BB1236CC01A00234E
:103DE0000246E66A216A2846B047431CA38906D1E9
:103DF00029681D293AD8214ACA40D60736D500225B
:103E00006260D9042269226004D5421C01D12B686A
:103E100003B96065616B2F600029CED004F14403C3
:103E2000994202D0284600F0A5F900206063BDE861
:103E3000F0810F69002FC0D093070E6808BF4B694F
:103E40000F6018BF0023C7EB06088B6002E0074431
:103E5000C0EB0808B8F1000FAFDD43463A46216ACF
:103E6000A66A2846B0470028F1DCA38943F0400346
:103E7000A3814FF0FF30BDE8F08100BF010040207A
:103E800038B50B6905460C46DBB118B183690BB92F
:103E900000F060F80C4B9C4201D16C6808E00B4BC1
:103EA0009C4201D1AC6803E0094B9C4208BFEC681E
:103EB000B4F90C302BB121462846BDE83840FFF755
:103EC00057BF002038BD00BF74490008944900085E
:103ED000B4490008014900F0A9B800BF813E0008BC
:103EE000002310B50446036043608360818143660C
:103EF000C281036143618361194608225C30FFF788
:103F00005FFB054B6362054BA362054BE362054B08
:103F10002462236310BD00BF614600088346000889
:103F2000BB460008DF46000870B568234D1E5D43A0
:103F30000E4605F1740100F06BF9044640B1002112
:103F400080E842000C30A06005F16802FFF738FB02
:103F5000204670BD836910B5044633BB8364C364D7
:103F60000365124B124A1B688262984204BF012308
:103F7000836100F01FF86060204600F01BF8A0602D
:103F8000204600F017F80022E06004216068FFF787
:103F9000A7FF01220921A068FFF7A2FF0222122138
:103FA000E068FFF79DFF0123A36110BD3C490008B5
:103FB000D53E0008F8B51C4B1E68B369074613B917
:103FC0003046FFF7C7FF4836B4687368013B04D436
:103FD000B4F90C507DB16834F8E733680BB136683A
:103FE000F2E704213846FFF79FFF30600028F6D142
:103FF0000C233B60F8BD4FF6FF73E3810123A381DF
:1040000065662560A560656025616561A56108221A
:10401000294604F15C00FFF7D3FA6563A563A56444
:10402000E5642046F8BD00BF3C4900082DE9F8438F
:104030008046894600F14804002694B1A568676867
:10404000013F0CD4AB89012B07D9B5F90E300133F0
:1040500003D029464046C84706436835F0E7246840
:10406000EBE73046BDE8F88370B50E46B1F90E10A7
:10407000002990B014461D4606DA00232B60B38950
:104080001A060ED540230EE001AA00F04FFB0028CF
:10409000F3DB029A02F47042A2F500535A425A41ED
:1040A0002A604FF480630020236010B070BD0000D0
:1040B0008B8973B59E0705460C4610D401AB6A4642
:1040C000FFF7D2FF00990646284600F0A1F868B92C
:1040D000B4F90C309A0522D443F00203A38104F111
:1040E0004703236023610123636118E00D4BAB623A
:1040F000A389206043F08003A381009B6361019B3F
:1041000020614BB1B4F90E10284600F021FB18B124
:10411000A38943F00103A381A0893043A08102B0A9
:1041200070BD00BFD53E000810B5431E0A44914241
:1041300004D011F8014B03F8014FF8E710BD884295
:1041400010B501EB020301D8421E0BE09842FBD2EE
:104150008118D21AD34204D013F8014D01F8014D51
:10416000F8E710BD994204D011F8014B02F8014F55
:10417000F8E710BD38B50546002946D051F8043C93
:104180000C1F002BB8BFE41800F004FB1F4A136893
:10419000114613B96360146032E0A3420ED922685D
:1041A000A018834204BF18685B68636004BF1218DC
:1041B00022600C6024E0A24203D813465A68002A09
:1041C000F9D118681918A1420BD121680144581877
:1041D0008242196014D1106852685A600144196013
:1041E0000EE002D90C232B600AE02168601882429D
:1041F00004BF10685268626004BF091821605C60E7
:104200002846BDE8384000F0C6BA38BD1801002085
:1042100070B5CD1C25F0030508350C2D38BF0C25D5
:10422000002D064601DBA94202D90C23336046E08B
:1042300000F0B0FA234B1C681A462146A1B10B6866
:104240005B1B0ED40B2B03D90B60CC18CD501EE09A
:104250008C420DBF63684B686360136018BF0C46E7
:1042600015E00C464968E9E7174C23681BB930464E
:1042700000F0A0F920602946304600F09BF9431C6D
:1042800018D0C41C24F00304A0420DD12560304690
:1042900000F081FA04F10B00231D20F00700C31A7F
:1042A0000ED05A42E25070BD211A304600F082F919
:1042B0000130EBD10C233360304600F06CFA002063
:1042C00070BD00BF1801002014010020F8B507469A
:1042D00015460E4621B91146BDE8F840FFF798BFD4
:1042E0001AB9FFF747FF2846F8BD00F055FA854296
:1042F0000ED929463846FFF78BFF044650B13146A8
:104300002A46FFF711FF31463846FFF733FF01E039
:104310003046F8BD2046F8BD2DE9F0478E689E4234
:1043200082460C46914698463ED88A8912F4906F90
:104330003AD0256809696F1A6569022305EB4505BE
:1043400095FBF3F57B1C43449D4238BF1D46530546
:104350000FD52946FFF75CFF064698B13A4621691A
:10436000FFF7E2FEA38923F4906343F08003A38167
:1043700013E02A46FFF7AAFF064670B921695046A6
:10438000FFF7F8FE0C23CAF80030A38943F040037E
:10439000A3814FF0FF30BDE8F087266165613E44A0
:1043A000ED1B2660A5604646464528BF4646324678
:1043B00049462068FFF7C3FEA3689B1BA3602368E0
:1043C0001E4426600020BDE8F08700002DE9F04F74
:1043D0009DB0804603938B891C060D4616460DD56D
:1043E0000B695BB94021FFF713FF2860286118B9FA
:1043F0000C23C8F80030CDE040236B610023099303
:1044000020238DF82930DFF89CB130238DF82A3035
:1044100037463C4614F8013B1BB9B7EB060910D0F0
:1044200003E0252BF9D02746F3E74B4632462946D1
:104430004046FFF771FF013000F0A780099B4B4415
:1044400009933B78002B00F0A08000234FF0FF324F
:1044500004930793059206938DF853301A9301261F
:10446000052221784E48FCF763F8671C049B38B19D
:104470004B4A801A06FA00F0184304903C46EFE7D6
:10448000D90644BF20228DF853201A0744BF2B229F
:104490008DF8532022782A2A03D0079A00210A2077
:1044A0000BE0039A111D12680391002A10DA5242A0
:1044B00043F00200079204900BE0274601343B785A
:1044C000303B092B03D800FB02320121F5E701B193
:1044D00007923B782E2B1ED17B782A2B0AD1039B87
:1044E0001A1D1B680392002BB8BF4FF0FF33023731
:1044F000059310E000230593781C19460A2407460B
:1045000001303A78303A092A03D804FB012101230B
:10451000F5E703B10591032239782248FCF708F842
:1045200040B14023CBEB000003FA00F0049B18439A
:104530000490013739781C488DF8281006227E1C1B
:10454000FBF7F6FF88B1194B33B9039B073323F010
:1045500007030833039314E003AB00932A46144B7C
:1045600004A94046AFF3008007E003AB00932A465E
:104570000F4B04A94046FFF7E7F9B0F1FF3F824631
:1045800003D0099B5344099342E7AB895B0601D4EE
:10459000099801E04FF0FF301DB0BDE8F08F00BF7B
:1045A00040490008464900084A4900080000000048
:1045B0001943000838B5064C002305460846236019
:1045C000FCF75EF8431C02D1236803B12B6038BDB1
:1045D000EC0300201F2938B504460D4604D91623E4
:1045E00003604FF0FF3038BD426C12B152F82130F9
:1045F0004BB9204600F032F82A4601462046BDE875
:10460000384000F019B8012B0CD0591C03D11623E7
:104610000360012038BD0024284642F82540984711
:10462000204638BD002038BD024B01461868FFF710
:10463000D1BF00BF6C00002038B5074C00230546F1
:10464000084611462360FBF7EFFF431C02D12368A5
:1046500003B12B6038BD00BFEC030020FBF7E2BFC5
:1046600010B50C46B1F90E1000F0A0F80028ABBF51
:10467000636DA3891B1823F48053ACBF6365A381CA
:1046800010BD2DE9F0411F468B89DB0505460C4620
:10469000164605D502230022B1F90E1000F068F885
:1046A000A389B4F90E1023F48053A38132463B460C
:1046B0002846BDE8F04100F017B810B50C46B1F936
:1046C0000E1000F055F8431CA38915BF606523F454
:1046D000805343F48053A38118BFA38110BDB1F967
:1046E0000E1000F013B8000038B5074C0546084618
:1046F0001146002222601A46FBF7B4FF431C02D188
:10470000236803B12B6038BDEC03002038B5064C9C
:104710000023054608462360FBF7CEFF431C02D169
:10472000236803B12B6038BDEC03002038B5074C7B
:1047300000230546084611462360FBF7C1FF431CD2
:1047400002D1236803B12B6038BD00BFEC03002009
:1047500038B5064C0023054608462360FBF7B6FF34
:10476000431C02D1236803B12B6038BDEC03002049
:1047700038B5074C054608461146002222601A4605
:10478000FBF7A6FF431C02D1236803B12B6038BDA1
:10479000EC0300207047704751F8040C0028BEBF9E
:1047A000091851F8043CC0180438704738B5074C54
:1047B000054608461146002222601A46FBF742FFD2
:1047C000431C02D1236803B12B6038BDEC030020E9
:1047D000F8B500BFF8BC08BC9E467047F8B500BFEE
:0847E000F8BC08BC9E467047BE
:1047E80052696E674275666665725F496E697400E4
:1047F80052696E674275666665725F436C65617281
:104808000000000052696E674275666665725F490E
:1048180073456D707479000052696E6742756666FB
:1048280065725F4765744C656E00000052696E677B
:104838004275666665725F47657443617061636956
:104848007479000052696E674275666665725F50DA
:10485800757443686172000052696E6742756666D6
:1048680065725F476574436861720000000000006C
:104878000000000001020304060708090000000008
:1048880001020304256300000A0D000042756666F4
:10489800657220697320656D7074790A0D000000D7
:1048A80072696E6742756666657200002E2E2F412A
:1048B80070706C69636174696F6E2F557365722FC0
:1048C800436F72652F72696E675F6275666665729F
:1048D8002E6300006461746142756666657200004B
:1048E8006461746142756666657253697A65203ED3
:1048F80020300000630000002C2066756E63746928
:104908006F6E3A2000617373657274696F6E20224E
:10491800257322206661696C65643A2066696C6556
:1049280020222573222C206C696E6520256425734E
:1049380025730A000C000020232D302B2000686C02
:104948004C006566674546470030313233343536AA
:1049580037383941424344454600303132333435E3
:10496800363738396162636465660000000000000C
:10497800000000000000000000000000000000002F
:10498800000000000000000000000000000000001F
:10499800000000000000000000000000000000000F
:1049A80000000000000000000000000000000000FF
:1049B80000000000000000000000000000000000EF
:0C49C800000000000000000000000000E3
:0849D40068B8FF7F010000003C
:0449DC00D5010008F9
:0449E000B101000819
:1049E4000024F4000100000010000000000000009A
:1049F4007449000894490008B44900080000000004
:104A040000000000000000000000000000000000A2
:104A14000000000000000000000000000000000092
:104A24000000000000000000000000000000000082
:104A34000000000000000000000000000000000072
:104A44000000000000000000000000000C00002036
:04000005080005D119
:00000001FF
